S31500000000F81A0020810100008F0100009101000014
S3150000001000000000000000000000000000000000DA
S315000000200000000000000000000000009301000036
S31500000030000000000000000095010000CD2C00002B
S315000000409901000099010000990100009901000042
S315000000509901000099010000990100009901000032
S31500000060511C00009901000099010000990100004F
S31500000070990100009901000001000020990100008B
S315000000809901000099010000990100009901000002
S3150000009099010000990100009901000099010000F2
S315000000A099010000000000000000000000000000B0
S315000000B0000000000000000000000000000000003A
S315000000C000F002F800F04CF812A030C808382418E6
S315000000D02D18AC4201D100F043F80FCCA246AB4636
S315000000E00CA730CF2D1B083F3F197C427F1E54447E
S315000000F02D090426F441641EAC4201D300F030F809
S315000001000126334200D0FB1A3343984754465D46D6
S31500000110DFE70000B05A0000E05A0000103A02D3B0
S3150000012078C878C1FAD8520701D330C830C101D592
S3150000013004680C607047000070470000002300242C
S3150000014000250026103A01D378C1FBD8520700D308
S3150000015030C100D50B6070471FB51FBD10B510BD6F
S3150000016000F00CFC1146FFF7F7FF02F0D5FE00F099
S3150000017024FC03B4FFF7F2FF03BC00F07FFC000091
S31500000180094880F308880948804709480047FEE780
S31500000190FEE7FEE7FEE7FEE7FEE700000548064944
S315000001A0064A074B70470000F81A0020412D000050
S315000001B0C1000000F8140020F81A0020F8160020EC
S315000001C0F81600204343514330B55C18010C130C5C
S315000001D00D4692B25D4380B251432C1905465543F4
S315000001E00A0C09044D1962415843010C00044019D8
S315000001F0514130BD01E004C0091F0429FBD28B0721
S3150000020001D50280801CC90700D002707047002902
S315000002100BD0C30702D00270401C491E022904D32A
S31500000220830702D50280801C891EE3E70022EEE7E1
S315000002300022DFE77047704770470000F0B50C46B4
S31500000240871A9C410D46861A9D4103D2C01BA141C7
S31500000250D21963410D0D1F0DC94EEC1BAE435CD088
S315000002607F057F0D0026002F51D02D05AC46A943F2
S31500000270DD020123ED0A1B051D4320231B1B24D48D
S315000002801746E740381871412F46E740CC199D4084
S315000002902818314661410C0D27D161449A4013D587
S315000002A00023401C594152000ED140084000012253
S315000002B04B005205D34207D305204007C14201D562
S315000002C0B04900E0B0493046F0BD6B00002A00D0CE
S315000002D001229A181F23203C1B1B01D5002302E094
S315000002E0E540281871410C0DD7D0012424050919C1
S315000002F0C407CD0740084908E40F28436144002C91
S31500000300D5D00024401C61419A40D0D1CDE76A0582
S31500000310520DD9D1C90FC907D5E79C4D4E0000280B
S3150000032001D0012400E0002434195F00002A01D026
S31500000330012600E00026BE19954FAC420CD8AE420D
S315000003400AD8B44206D001256D05EC42BCD0104651
S315000003501946F0BD9942FCD000203946F0BDF0B5F3
S315000003601FB40C460F46811A9F412546861A9D41A9
S3150000037006D20125ED076F40401ABC4152187B4159
S31500000380210D1E0D8D1BAC467D4D8D437ED0750512
S315000003906D0D7CD00D05AE46AC431B031B0B794D92
S315000003A052429D41202366469B1B14D31746F740B5
S315000003B0381800260090744160462F460741E4191C
S315000003C000989D402818664116D4714671189A40C7
S315000003D025D5012320E093182A466A415200002BB6
S315000003E000D0521C1E23203E9B1B002B61DD354195
S315000003F0EE1728186641E8D5001876415B1C9A402E
S3150000040000D3401C4B05F3181524E34010D3002BF2
S3150000041052D071467118D30FC01802D3491C05B0CB
S31500000420F0BD0123DB079A42F9D140084000F6E708
S3150000043001225205B21801D1002853D00123CC0A5B
S31500000440DB029943891E002A08D1020C03D0020C54
S315000004500004103902E00246002020390023550B23
S3150000046005D112020823550B01D152010D23550C5B
S3150000047001D112011B1DD50C01D192009B1C150D3B
S3150000048001D152005B1C2025EE1A01E02CE022E08F
S315000004900546F54015439840CA1AE1076918130541
S315000004A0C918002ABBDA032040070818C10FC9077C
S315000004B00FE071466118B2E7F10740080843711072
S315000004C071444A000CD001235B059A42A7D2C90F9A
S315000004D0C9070020A3E74905490D26D1002001E000
S315000004E00028F4D100219AE7284D6600002801D0A3
S315000004F0012100E0002171185F00002A01D00126C9
S3150000050000E00026BE19224FA94210D8AE420ED8EE
S31500000510B14208D001256D05E94206D01946A80268
S31500000520414010467BE79C4201D0214677E70020F8
S31500000530394674E710B50C465C4005D50124E4073E
S315000005406340FFF70CFF10BDFFF778FE10BD30B417
S315000005500C465C4004D50124E407634030BC6DE6DC
S3150000056030BCFCE670B50124E40761400D465D40F1
S3150000057002D4FFF763FE70BD6340FFF7F0FE70BD67
S31500000580FF0700000000F0FF0000F07F0000E0FF22
S315000005900000F87F30B50346CA02400D1043164DE1
S315000005A0164C0A1502D02043002A06DBAA1A002A96
S315000005B012DDD040FF2A0BDC30BD5205520D01D1B1
S315000005C040004008AA1A07D4D0404042FF2A01DD65
S315000005D0002030BD0028FCDD4A00002B01D00120A0
S315000005E000E00020101801225205D042F0D8C817AA
S315000005F0C043604030BD00001E04000000000080C3
S31500000600F0B5FF252D04C609C209FF2704462E4072
S315000006100137CB093E4348402A402B400746002A73
S315000006206BD0002B69D0AA4267D0AB4265D00028B8
S3150000063000DA32460125ED0529432C430902200242
S31500000640090AD21A4B0C7F24E31A434C000A7C4455
S31500000650E35C7D242404121914145B00A21888425A
S3150000066001D3521C00E0400049420C465C43241171
S315000006705C43DB016415E318040A5C43C502200DE4
S315000006800C4644436419250A5D432303EC0C0D46CE
S31500000690654300030019EB184C42A34201D35B18D3
S315000006A0401CD4052018002B07D05B00C91804D3C2
S315000006B0401C002901D1400840003F2189048A429C
S315000006C009D3002A08DC1106090F04D003214907C3
S315000006D04018C00FC007F0BD01224100120689185C
S315000006E07F2252069142F6D205214907C84201D51A
S315000006F09010F0BDFF20C005F0BD002F00DA324695
S315000007001648AA4207D2AB4205D21902090E17D0E3
S31500000710F80FC007F0BDFF2563002D06AB42F9D8E0
S315000007204900A942F6D8AB4201D1A942F2D0A9426A
S3150000073001D1002101E061004908D0050843F0BD60
S315000007401102090EFBD0FF200243D005F0BD0A4678
S315000007500146104654E70000123500000000C07F35
S3150000076010B501469E240002CA15A307002A02D02E
S315000007701843002A04DBA21A002A0CDDD04010BD63
S315000007801206120E01D140004008A21A03D4D0402E
S3150000079040420028F3DDFF2248001206904201D9AC
S315000007A0002010BDC817C043584010BD10B500F05A
S315000007B05BF8006810BD10B5044600F055F80460FB
S315000007C010BD000070B505464800440D124B0020D0
S315000007D0002C0AD0634008D09A4206DA6642B2423A
S315000007E003DD12054019514170BD002C08D0002BC5
S315000007F009D0C90FC907002AF6DB084A114370BDA4
S31500000800C90FC90770BD28460A03104302D000204D
S31500000810034970BD284670BDFF0700000000F07F49
S315000008200000F87F10B5FF22C30D134009D05A40CF
S3150000083007D0914205DA5C42A14202DDC9050818DB
S3150000084010BDC40FE407002B06D0002A06D00029ED
S3150000085002DBFF20C0050443204610BD4102FCD048
S31500000860004810BD0000C07F0048704718120020E5
S31500000870F8B5264C4E00069DA6420AD8A64201D1DE
S31500000880002806D15E00A64203D8A6420AD1002A55
S3150000089008D00D242404254233D02946002000F038
S315000008A094F8F8BD0C461C4311D4994207D0C81AD7
S315000008B002D3EFF30080F8BDEFF30080F8BD801A95
S315000008C002D3EFF30080F8BDEFF30080F8BD0924F2
S315000008D02407E5008B4207D0581A02D3EFF30080B5
S315000008E006E0EFF3008007E0101A03D3EFF3008071
S315000008F0A04303E0EFF30080A043284380F3008881
S31500000900F8BD009500F078F8F8BD00000000E0FFA3
S3150000091010B5FF231B0644009C421DD84C009C4288
S315000009201AD80346124A0B4307D4401A02D3EFF3F0
S31500000930008010BDEFF3008010BD081A03D3EFF35B
S315000009400080904305E0EFF3008001219043C90742
S31500000950084380F3008810BD0D231B041A4204D0FF
S315000009601146002000F031F810BD00F04FF810BD20
S315000009700000009000487047181200207546FFF7E7
S31500000980F9FFAE46050069465346C008C0008546D5
S3150000099018B020B5FFF702FC60BCB646002600275B
S315000009A0C0C5C0C5C0C5C0C5C0C5C0C5C0C5C0C519
S315000009B0403D490849008D46704710B50446C0467B
S315000009C0C0462046FFF7D5FB10BDC80212D5480326
S315000009D0400F002804D0C803C04301218840704757
S315000009E0EFF300800001000903210907084380F3A3
S315000009F0008870470020704710B500200249029A0F
S31500000A0000F00CF810BD00000000F87F10B5024899
S31500000A1000F004F810BD00000000C07F10B50C46C1
S31500000A201107090F092904D00A290AD008290CD16F
S31500000A3004E011460820FFF7C8FF06E0510606D578
S31500000A4001E0510601D50120C007214610BDD1069F
S31500000A5007D501010909CC084907000E0006044321
S31500000A6009E0410F20024907000A0143200E000653
S31500000A701D22D14101430846E7E70000014918203D
S31500000A80ABBEFEE726000200704710B5012B04D16D
S31500000A9001238B40446E1C4344668B071B0F0F24B7
S31500000AA09C400907890F89004018016DA1439A40AF
S31500000AB00A43026510BD9422815070470246903267
S31500000AC052689023C0580A400240501E8241104688
S31500000AD070470000B0B50C4605460120014601F0FE
S31500000AE0D7FE20886188014390202950E08A0002C1
S31500000AF0A18A09010143608A08432866208AA867FB
S31500000B00A0880003E1888902014320890002084386
S31500000B10618909010143A089C0000843E1890143B5
S31500000B206967608BC4216850C435A08B6860E08B10
S31500000B30A860A1204401204601F08CFE124D2860D9
S31500000B40201D01F087FE68602046083001F082FE15
S31500000B50A86020460C3001F07DFEE860204610308B
S31500000B6001F078FE094D28602046143001F072FE2F
S31500000B7068602046183001F06DFEA8601C342046DF
S31500000B8001F068FEE860B0BD8004014080050140C8
S31500000B9010B504461221FFF749FB002020830120EF
S31500000BA0E082A082608210BD10B588B06C462046F7
S31500000BB001F0C0FE01200290002000900390FF216A
S31500000BC001910490059006900790204601F06EFE74
S31500000BD008B010BDB0B5194A0123136000240460A3
S31500000BE00C7A8460CC68C4600C6904614C6944600A
S31500000BF04C78A4028D782D022543CC78A4012C4391
S31500000C000D792D0125434C79E4002C438D796D0037
S31500000C102543CC792C430460097800290BD0084978
S31500000C2040180521C841032805D8800005A10858A9
S31500000C305168014351601360B0BDC0468012014047
S31500000C4000EEFEBF010000000200000004000000EC
S31500000C50080000000021016041608160C1600161FF
S31500000C604161704780B50121480401F04DFE80BD09
S31500000C70EFF3108272B6034B18605960986882F3DE
S31500000C801088704720300140F0B585B00346002734
S31500000C90F843002900D106E1002A00D103E10292BF
S31500000CA0594349000124012900D821467F48FFF70E
S31500000CB0DFFF81B2480A2602002804970DD0880A71
S31500000CC013D0C80A14D0080B15D0480B16D0880BC1
S31500000CD017D0CB0B18D1062217E0012900D8012125
S31500000CE03546FF350D40394618E04908012211E026
S31500000CF0890802220EE0C90803220BE00909042232
S31500000D0008E04909052205E00722002B01D18909DF
S31500000D1000E0C9093546FF350D405102644B18788D
S31500000D200122039250402A2242439B189E85294362
S31500000D30080A604901900C5CE006C20F2007C10F4B
S31500000D409142374600D0049FDF8051406007C70FAD
S31500000D50B942304600D0049818811002704098803D
S31500000D604F40A007C10F8F42304600D004985881EB
S31500000D707940039804408C423046049F00D03846A0
S31500000D8098814C40E8B200094A49095CC806C20F7E
S31500000D909442304600D03846D88162400807C40FD6
S31500000DA0A242304600D03846188254404807C20F47
S31500000DB09442304600D03846588262408807C40FB5
S31500000DC0A242304600D038469882544003980140EB
S31500000DD0A142304600D03846D88261400F272846C7
S31500000DE03840344A145CE006C20F9142304600D0C7
S31500000DF0049818834A402007C10F8A42304600D023
S31500000E000498588351406007C20F9142304600D083
S31500000E10049898834A40A007C10F8A42304600D002
S31500000E200498D8835140039804408C42304600D041
S31500000E30049818844C402809684038400199484075
S31500000E401C49095CC806C20F94423046049D00D076
S31500000E502846588462400807C40FA242304600D094
S31500000E602846988454404807C20F9442304600D022
S31500000E702846D88462408807C40FA242304600D074
S31500000E8028461885544003980140A14200D02E46BA
S31500000E905E8507490878039A504048708A70142086
S31500000EA002990870284605B0F0BDC0460087930336
S31500000EB0E8120020A43B0000B0B50468651C05607C
S31500000EC04468A54204D9046000240C7014701C60A8
S31500000ED007490A682021891AC18192B2202A05D0C1
S31500000EE00122427489B2102900D38274B0BDC04673
S31500000EF008120140F0B585B004AD00242C70457C85
S31500000F00012D00D0A7E0C589102D00D291E0103D3B
S31500000F10ADB204AF039003980291294601923A4676
S31500000F20009300F051F9029E05460398397801298D
S31500000F3000D07EE00F212F460F40A14B1B78022BDD
S31500000F4000D14F402B0B2A0A5A402B095A400A401F
S31500000F50974200D06DE0324604600126334083811B
S31500000F606F09690A032912D3012010700020019924
S31500000F7008703A4878433A4940187D21090102F041
S31500000F80EBF8029A014603980A31009B1960018921
S31500000F908F420FD14189491C89B2324B99420B4687
S31500000FA000D3304B438107290AD321460781242FDA
S31500000FB00AD93EE0448131460781242F04D938E01E
S31500000FC001210781242F34D813461278002A00D134
S31500000FD00E46002E26D1F91F0E2923D87944097909
S31500000FE049008F44070F1F1F1F0A1F1F171F1F1FB0
S31500000FF01F1E0C00C474204607E0C07C05E00121DA
S31500001000C1740FE00121C174084601F09FFC029BE8
S31500001010039807E01C700121019A117000990C6079
S3150000102000E0C4741F2D04D81C7001990C7000993F
S315000010300C606349097801290CD1C189102909D3AB
S315000010405E490A6801239A430A6020228A600A6878
S315000010501A430A60447405B0F0BDC0469A1F0000EA
S31500001060BA32FAFF60EA0000F0B589B004AD28464E
S3150000107000F0E3FE002706970820049005975148E4
S31500001080294600F00BFE7D20C5003E4638460197F6
S3150000109007E00124204601F013FF0298401C322885
S315000010A01BD0029003A8019901800088A842F04C49
S315000010B004D3EEE7B6180888A842EAD208212046EB
S315000010C000F0B4FE03994A1C03A90A80431E024697
S315000010D09A410028EED17F1CECE7F1190CD00123D0
S315000010E0092F01D81C4600E0022407224A430A21A0
S315000010F07143914200D81C46204609B0F0BDC04657
S31500001100F0B5AFB0DE4908680124A0430860D74EA9
S3150000111000273046394601F045FE0BAD284601F062
S31500001120C9FE1D941B94189416940D940C97600296
S315000011302690032025900F20800123902290209056
S3150000114007202490119713971D480078801E411E92
S3150000115002468A411F92414241411E911A911992BB
S315000011603046294601F028FEF843306206AD28468F
S3150000117000F063FE082006900797F348294600F022
S315000011808DFD6D462846FFF765FD202028728020DC
S31500001190059901432975B7480090B7480490B748A8
S315000011A00190304610300390E5482946FFF712FDBE
S315000011B03046214601F0F6FD2FB0F0BD0012014089
S315000011C010120020400D014070B501241470C08932
S315000011D0401AC3B2002B0BD04800A7490818102BA1
S315000011E009D101880B465A3B3D2B1DD2002120E038
S315000011F0002188B270BD0024214604E04900801C0D
S31500001200641C9C420ED205882E465A3E3C2EF5D9C9
S31500001210B43D782D00D9C4E04900491C801C641CEB
S315000012209C42F0D388B270BDB439792900D3B8E0B6
S31500001230022143881D465A3D3D2D04D3B43B782BED
S3150000124000D9AEE0214383881C465A3C3C2C01D889
S31500001250490005E0B43B782B00D9A2E04900491CBF
S31500001260C3881C465A3C3C2C01D8490005E0B43BD7
S31500001270782B00D995E04900491C03891C465A3C45
S315000012803C2C01D8490005E0B43B782B00D988E016
S315000012904900491C43891C465A3C3C2C01D849004C
S315000012A004E0B43B782B7CD84900491C83891C4652
S315000012B05A3C3C2C01D8490004E0B43B782B70D84A
S315000012C04900491CC3891C465A3C3C2C01D849009C
S315000012D004E0B43B782B64D84900491C038A1C46B9
S315000012E05A3C3C2C01D8490004E0B43B782B58D832
S315000012F04900491C438A1C465A3C3C2C01D84900EB
S3150000130004E0B43B782B4CD84900491C838A1C4620
S315000013105A3C3C2C01D8490004E0B43B782B40D819
S315000013204900491CC38A1C465A3C3C2C01D849003A
S3150000133004E0B43B782B34D84900491C038B1C4687
S315000013405A3C3C2C01D8490004E0B43B782B28D801
S315000013504900491C438B1C465A3C3C2C01D8490089
S3150000136004E0B43B782B1CD84900491C838B1C46EF
S315000013705A3C3C2C01D8490004E0B43B782B10D8E9
S315000013804900491CC08B03465A3B3C2B02D84900F6
S3150000139088B270BDB438782803D84800411C88B29A
S315000013A070BD0021117088B270BDC046F0B5B1B0F5
S315000013B004460DAF384601F07DFD624800263146F1
S315000013C001F0F0FC01251F951D951A9518950F95AE
S315000013D0A01E411E02468A4121920E96414241417B
S315000013E020911C91680228901B920320019027905F
S315000013F00F20800122900720269013961596514CB7
S315000014002046394601F0D8FCF043206208AF384642
S3150000141000F013FD082408940996C34E3046394659
S3150000142000F03CFC30460199224600F07FFC02ACFD
S315000014302046FFF70FFC20202072802007990143E9
S3150000144021750C4802900C4806900C4803903D4EBE
S315000014503046103005903A482146FFF7BBFB304630
S31500001460294601F09FFC31B0F0BDC046000901409D
S31500001470400D01400001010042130020010001015E
S3150000148000120140F0B5ABB02C498878002803D093
S315000014904878087000208870294A10680124A04303
S315000014A01060284E00273046394601F07BFC07AD18
S315000014B0284601F0FFFC20021E90199718971F90EE
S315000014C01497A002229013972197FF201C900F9744
S315000014D00D973046294601F06FFC3046394601F03B
S315000014E061FCB760F84330628F48416808221143B7
S315000014F0416001689143016001AF3846FFF7AAFBDE
S315000015001420387280200699014339753046103010
S3150000151005900E4802900E480190084A10782A213C
S3150000152041435018001D049005483946FFF752FB09
S315000015303046214601F036FC2BB0F0BDE812002003
S315000015400012014000090140400D01400000010168
S315000015500001010110B5244A904223D0234B984242
S315000015600FD0234A90421CD110291AD288B2224A9F
S31500001570C240D00715D0880020A108581D49086030
S3150000158010BD0123002907D00A2903D0012906D15D
S315000015905B0202E09B0200E01B02164C23609042B5
S315000015A000D010BDCA1E0C2AFBD80121C802C046B5
S315000015B07A44127952009744080706060B06060677
S315000015C0060F06061300ECE708030A49086010BD7B
S315000015D048030849086010BD88030649086010BD25
S315000015E0C8030449086010BD800D0140400D01404C
S315000015F0000D01400C0E01404FC800000100000024
S3150000160002000000040000000800000001000000C5
S3150000161001000000100000000100000001000000B1
S315000016200100000001000000200000000100000091
S31500001630010000004000000080000000024600207B
S31500001640384B9A4225D0384B9A4218D0374B9A429B
S3150000165000D065E00F2900D962E0C04679440979D7
S3150000166049008F44074451555D5D595D5D5D5D40A0
S315000016705D5D484C2E4801680120084070470A29E4
S315000016801DD0012917D000294AD129480068C00574
S3150000169045E0C91E0C2943D87944097949008F448D
S315000016A006163F3F123F3F3F3F1A3F3F1E0020486E
S315000016B00068000533E01E48006880052FE01C48DE
S315000016C0006840052BE01A480068800427E01848A7
S315000016D00068C00423E01648006840041FE0144870
S315000016E0006800041BE012480068800617E01048F6
S315000016F00068800713E00E48006840060FE00C48BB
S315000017000068C0B2C009704709480068400706E093
S3150000171007480068000702E005480068C006C00FD9
S315000017207047C046800D0140400D0140000D01404C
S315000017300C0E0140F0B581B000911B491B4B0B60AC
S315000017401B4B8B62012674041A4B1D681A4F1B4AE9
S315000017501B49954210D10D4610351F686F403D68F4
S3150000176015490D4016493D6060603868009D284364
S31500001770F50705433D60104F1868104DA84208D183
S31500001780186848400F4901602068384020600020F2
S31500001790186020683840206000201860024988627E
S315000017A0086001B0F0BDC046A8000040837A000082
S315000017B0CA8F00009C130020FF77FF7F1F360D9A0B
S315000017C00F360F9ABADC5476F0B587B0A3204000E6
S315000017D0FC4A012414542720C000FB491152FB483F
S315000017E0FB490F2201F036FF0A2201F033FF0546BE
S315000017F00E460494E0070C46069084430022FC4BF8
S3150000180028462146039201F0C5FD002811D1002784
S31500001810F84B284621463A4601F0C7FD00280DD16F
S315000018200022F44B28463146FEF784FE01F076FE90
S3150000183001E028463146FEF7ADFE07468920400006
S31500001840EA490F52EC480A21029101F03BFF054696
S315000018500446069884434B2006062046314601F08E
S31500001860AFFD0028059609D13F20060620463146E1
S3150000187001F0B1FD002805D000200BE02846FEF758
S315000018806FFF08E02846314602F012F801F0AAFE82
S31500001890FEF766FF059E8D214900D44A5052D7486F
S315000018A0072101F00FFF05460446069884432046AB
S315000018B0314601F085FD00280FD13F20060620465F
S315000018C0314601F088FD0028039809D128463146A3
S315000018D001F0EEFF01F086FE00E02846FEF740FF2D
S315000018E02321CB001122C1490392CA5247229200FA
S315000018F08852C348C3490F2201F0ACFE06460D4686
S315000019000C46069884430027B94B304621463A4692
S3150000191001F040FD002810D1B64B304621463A462C
S3150000192001F043FD00280DD10022B24B3046294676
S31500001930FEF700FE01F0F2FD01E030462946FEF713
S3150000194029FE0746C420A9490F50AF48AF490F22C8
S3150000195001F080FE07460E460D4606988543002296
S31500001960A34B38462946019201F014FD002811D1F7
S315000019700024A04B38462946224601F016FD0028D1
S315000019800DD100229B4B38463146FEF7D3FD01F0C0
S31500001990C5FD01E038463146FEF7FCFD0446CC2085
S315000019A092490C509A480F2101F08CFE05460446D8
S315000019B0069884432046059E314601F001FD002825
S315000019C009D13F2006062046314601F004FD0028D5
S315000019D005D000200BE02846FEF7C2FE08E02846A8
S315000019E0314601F065FF01F0FDFDFEF7B9FE059EEB
S315000019F0E0217E4A505087480F2101F063FE0546DC
S31500001A000446069884432046314601F0D9FC002856
S31500001A1009D13F2006062046314601F0DCFC0028AD
S31500001A2005D000200BE02846FEF79AFE08E028467F
S31500001A30314601F03DFF01F0D5FDFEF791FE059E12
S31500001A40DC216A4A50503F2007060821384601F03B
S31500001A5039FE05460446069884432046314601F081
S31500001A60AFFC002807D12046394601F0B4FC002817
S31500001A7003D0002009E0284605E02846394601F053
S31500001A8017FF01F0AFFDFEF76BFE8F214900574CA3
S31500001A90605261480F25294601F014FE01F00AFD47
S31500001AA0FEF75EFED02160505C485D49042201F0DD
S31500001AB0D1FD092252015B4BA352FC225A4BA35083
S31500001AC045229200029BA352049A1202574BA3503E
S31500001AD0C822574BA350E422564BA35001F086FC74
S31500001AE0FEF758FD8B21490060525348082101F04A
S31500001AF0E9FD01F0DFFCFEF733FEE82160504F48B8
S31500001B00294601F0DFFD01F0D5FCFEF729FEF421A0
S31500001B1060504B48294601F0D5FDF821494A6250EC
S31500001B2001F0C8FCFEF71CFEF02160507B20C005CA
S31500001B30294601F0C7FD01F0BDFCFEF711FE91211B
S31500001B40490060527F20C005294601F0BBFD0546CD
S31500001B500446069884432046314601F031FC0028AD
S31500001B6007D12046394601F036FC002803D0002074
S31500001B7009E0284605E02846394601F099FE01F0BD
S31500001B8031FDFEF7EDFDEC21184A50502E480F218D
S31500001B9001F098FD054604460698844320463146E2
S31500001BA001F00EFC002815D12046394601F013FC41
S31500001BB00028019811D12846394601F079FE01F036
S31500001BC011FD08E0A8130020FFFF0000322E915AF5
S31500001BD08A20FD3E2846FEF7C3FDD823034AD0508F
S31500001BE0039800011949115207B0F0BDA81300204F
S31500001BF0000030430000E03F4E4E8E40C2C3D33F4C
S31500001C005E07C88B45CAEC3F0ED942C8FCB0F83F08
S31500001C10959F673D1A344C4329E1FF3C6D245BA830
S31500001C207379A93F8B18000025999600C0CCCC3C4F
S31500001C30A08C000080666646922409414B11143937
S31500001C406F5D113C66660000B44D673A35050000CD
S31500001C50B0B50F4C0E212046FFF7F0FC002815D03A
S31500001C6004200C4D285E41280CDB29784842484167
S31500001C70287000F0D7FC2A78074802828021204687
S31500001C8000F0E2F80E212046FFF764FCB0BDC04626
S31500001C90000D014078120020C8120020B0B50D4694
S31500001CA004460121C80200F02FFE03CD083D03299A
S31500001CB009D0012904D000291ED16168814304E0BE
S31500001CC0616801431AE0616801436160216801436C
S31500001CD02160A968002918D1216981432161E96839
S31500001CE0002918D1A1698143A1612969002918D168
S31500001CF0E1698143E161B0BD61688143616021684A
S31500001D0081432160A9680029E6D021690143216148
S31500001D10E9680029E6D0A1690143A1612969002982
S31500001D20E6D0E1690143E161B0BD00000F2960D84A
S31500001D307944097949008F4407482E3A1A4F5D4184
S31500001D406B27641321560E353749E131036A0B4080
S31500001D50991801627047C16A324B0B40110246E086
S31500001D60816A2F4B0B4011035918816270472E4927
S31500001D70E131436A0B409918416270472A49E131C3
S31500001D80C36A0B40991833E0816A274B0B40110157
S31500001D90591881627047016A224B0B40110259188B
S31500001DA001627047C16A1E4B0B4011031FE0016AB6
S31500001DB01B4B0B401103591801627047416A184BBF
S31500001DC00B401103591841627047016A164B0B40CC
S31500001DD01101591801627047416A134B0B401101FA
S31500001DE0591841627047C16A0F4B0B4011015918CF
S31500001DF0C1627047416A0B4B0B4011025918416290
S31500001E007047816A074B0B4011025918816270476F
S31500001E100549E131836A0B40991881627047C046D3
S31500001E20FF0F0000FFF000000FFF00008068084071
S31500001E30411E88417047416370470021016041603F
S31500001E408160C16001617047002A04D03022835846
S31500001E500B4383507047342283580B43835070479B
S31500001E60F0B589B001AF3846FEF792FE00247C80BB
S31500001E7001253D80BC80FC803C817C81BC81FC814D
S31500001E80BC8202267E823D821A487F210091FEF79F
S31500001E9012FE18483946FEF71DFE0322154F384636
S31500001EA021462346FEF7F1FD3846294632462346AB
S31500001EB0FEF7EBFD01AE3046FEF76AFEF481B48113
S31500001EC074813481F480B4807480B48275823582E2
S31500001ED0094D28460099FEF7EEFD28463146FEF7E5
S31500001EE0F9FD0C22284621462346FEF7CEFD09B011
S31500001EF0F0BDC0460004014000050140F0B5BFB08A
S31500001F000025284600F08EFB06AE304600F018FB92
S31500001F1044203552212035546C203552A2203552AA
S31500001F203046A230032484773146213101270F71D0
S31500001F304D71F777B58531466C310D813A02CA800D
S31500001F4075778D7005732D4A13920F3232803F22BA
S31500001F501201009210323E92109507950895099548
S31500001F60274A1592FF2202329623F2528A23F5520D
S31500001F70334696339A805A8032468A329580558007
S31500001F803246483295804583CD818D8218951D480D
S31500001F90672101601C482590304600F075F82846F8
S31500001FA000F040FB01AD2846FFF747FF174E04211E
S31500001FB030462246FFF7BAFE052130462246FFF795
S31500001FC0B5FE062130462246FFF7B0FE0721304611
S31500001FD02246FFF7ABFE082130462246FFF7A6FE53
S31500001FE0092130462246FFF7A1FE0098019002978C
S31500001FF030462946FFF752FE3FB0F0BD26050000E9
S315000020000F000F00140E014001010100400D0140B8
S31500002010F0B583B004200124214600F039FC6F4658
S31500002020384600F0F9FA0294002601960325009539
S315000020303046394600F08AFA1020214600F028FC86
S315000020406F46384600F0E8FA0294019600950220A1
S31500002050394600F07BFA2020214600F019FC6F4635
S31500002060384600F0D9FA029401960095284639467A
S3150000207000F06CFA03B0F0BD0F2080020149086041
S315000020807047C04604170140F0B581B004460121EF
S31500002090880200F039FCFC48FC49016021462031E9
S315000020A08A794B799B0013430A79D2001A43CB787D
S315000020B01B0113438A7852011A43E37F9B011343A2
S315000020C0A27FD2011A434978090211432022A25C59
S315000020D052020A43617F89021143227FD2020A43D8
S315000020E0EB49CA67A28E0A63E28E4A63228F8A632D
S315000020F0628FCA6322880A6462884A64254660350C
S31500002100AA7CEB7C1B0113432A7D52011A436B7D8B
S315000021109B011343AA7D12021A43EB7D1B03134353
S315000021202A7E52031A436B7E9B0313434B67A28F8F
S315000021300A66E28F4A664022A25A8A6626464036D8
S315000021407288CA66034601462C3BFB481860234644
S31500002150A0339F78DA7852003A431F7ABF001743BC
S315000021605A7AD2003A439F7A3F011743DA7A5201EC
S315000021703A431F7BBF0117435A7BD2013A431F796B
S31500002180BF0217435A79D2023A439F793F03174356
S31500002190DA7952033A439F7BBF0317430A46403A14
S315000021A01760DA7B1F7C7F0017435A7D92003A4303
S315000021B09F7DFF001743DA7D12013A431F7E7F01A0
S315000021C017435A7E92013A439F7EFF0117435A7C7A
S315000021D092023A439F7CFF021743DA7C12033A438A
S315000021E01F7D7F031743DA7E92033A430F46383F3B
S315000021F03A601A7F12015F7F7F0117439A7F92012F
S315000022003A43DF7FF80110432746C0377A78120237
S315000022100243B8784002104330390860B088C54997
S315000022208865F088C865C020205C0867387EFA7D1E
S3150000223052000243B87D800010437A7DD2000243EB
S31500002240387D00011043FA7C52010243B87C8001BC
S3150000225010437A7CD2010243387C00021043FA7B99
S3150000226052020243B87B800210437A7BD2020243B9
S31500002270387B00031043FA7A52030243B87A80038C
S3150000228010437A7AD2030243A949084628380260E5
S31500002290F8783A7952000243787980001043BA7987
S315000022A0D2000243F879000110433A7A5201024300
S315000022B0084624380260307A727A520002436878FF
S315000022C0800010436022A25CD2000243707D0001B0
S315000022D01043327D52010243287B80011043228D38
S315000022E0D2010243B07A00021043F27A520202434C
S315000022F0E87880021043AA78D2020243F07D0003F8
S315000023001043B27D52030243687B80031043628D03
S31500002310D203024308460F4620380260307B727BA8
S31500002320520002436879800010432A79D2000243A2
S31500002330707E00011043327E52010243A87B800169
S315000023401043A28DD2010243B07B00021043F27B00
S3150000235052020243E87980021043AA79D20202436C
S31500002360F07E00031043B27E52030243E87B8003F3
S315000023701043E28DD203024308461C380260307CCB
S31500002380727C52000243687A800010432A7AD20097
S315000023900243707F00011043327F52010243287CC2
S315000023A080011043228ED2010243B07C000210430A
S315000023B0F27C52020243E87A80021043AA7AD202E1
S315000023C00243F07F00031043B27F52030243687C4E
S315000023D080031043628ED203024308461838026017
S315000023E0A08854490860E088486020898860608930
S315000023F0C860A0890861E0894861208A8861608A8E
S31500002400C861A08A0862E08A4862208B8862608B75
S31500002410C8628020205CC000EA7F92000243A87E4A
S3150000242000011043EA7E5201024326468036707848
S31500002430C00110436A7F12020243A87F8002104344
S315000024402A7FD2030243384610380260F0798000B2
S31500002450327AD2000243B07800011043F27852017A
S315000024600243707AC0011043727912020243B079B6
S31500002470800210433279D203024338460C38026098
S31500002480F07AB27A520005E0C00C0140ADDE0000E1
S31500002490000C01400243707B80001043327BD20067
S315000024A00243F07B00011043B27B52010243707C71
S315000024B080011043327CD2010243F07C00021043BB
S315000024C0B27C52020243707D80021043327DD202FA
S315000024D00243384608380260B07DF27D520002435E
S315000024E0307E80001043727ED2000243B07E00012F
S315000024F01043F27E52010243307F80011043727F07
S31500002500D2010243B07F00021043F27F520202431F
S31500002510A020205C800210435A78D2020243381F62
S315000025200260054808650548386001B0F0BDC04640
S31500002530C00C0140000C0140FFFF0000FECA000075
S3150000254080B5E421FDF774FE80BD0000F0B5E94AD0
S31500002550E94B13602E4B1D685C69032854D8C046AE
S315000025607844007940008744012C0F1E48680028F3
S3150000257002D1284E012737700326B543284320256C
S31500002580ED431C3502262AE04868002802D1214E78
S31500002590012737703026B543000128432025ED4337
S315000025A0103504261BE04868002802D1194E012781
S315000025B03770C026B543800128432025ED43052604
S315000025C00DE04868002802D1124E012737700C260C
S315000025D0B543800028432025ED43183503262C40BB
S315000025E08D68B54025430B4C2478641E66426641CF
S315000025F074000C60710203242402A04308181860BA
S315000026005D6100201060F0BD28462546EBE7C04618
S3150000261010000040A0130020002103220260426047
S31500002620816070470C490D4A0A610A68002808D083
S3150000263040231A430A60486818434860002008612E
S3150000264070474020C3431A400A60486818404860F3
S31500002650002008617047C046B00C0140ADDE0000A6
S31500002660F0B584B015460091014601AC01222270F6
S31500002670A048AF4E0660364EC662C5480768354E5E
S31500002680C44CA74254D10468334F67403868334C72
S3150000269004403C600C46316038681843D206024359
S315000026A03A600023BA4803600098C71C03218F4391
S315000026B00297009403940298002818D02A4603989B
S315000026C088433060107854782402201894782404C3
S315000026D00019D4782406001970600298001F029031
S315000026E00398001D0390121D02980028E7D1029757
S315000026F00098039006E00298001F02900398001DC0
S3150000270003902D1D0298002812D00398884330604C
S3150000271028786A7812021018AA7812048018EA78C3
S3150000272012068018B2689042E5D001A80370E2E76D
S31500002730301F01680A4A0A40026000209449086076
S315000027406C49C862086001A8007804B0F0BDC046B4
S31500002750358F0000040002000CA4FF9AFF7FFF7F64
S31500002760FFF7FFF710B582B0044600200190012163
S31500002770CB0201AA00F004F80198207002B010BD47
S31500002780B0B582B0144600220192009200910190E9
S315000027900098002846D0244D002B0BD13B4824E05E
S315000027A00098401E00900198001D0190241D00987D
S315000027B0002837D0019800F039F820602868C00753
S315000027C0EED12868C007EBD12868C007E8D1286891
S315000027D0C007F3D0E4E70099491E00910199091D4D
S315000027E00191241D009900291CD029461839019A07
S315000027F00B6803400B602B46143B1A602A460C3AC2
S3150000280012680B6803400B6022602968C907E2D191
S315000028102968C907DFD12968C907DCD12968C90732
S31500002820F3D0D8E702B0B0BD1800020010B51649C3
S315000028300968491E4A1E9141C902012252041368C1
S31500002840124C2340591811605060D068116821401D
S31500002850116010BD10B50C490968491E4A1E914108
S31500002860CA02012149040B68084C23409A180A60E1
S31500002870592212064A604860C868952212064A60C4
S315000028800A6822400A6010BDA0000040FFF7FFFF63
S31500002890184A274B1360194A002903D011680143CF
S315000028A011607047116881431160704710B5114976
S315000028B01F4A0A6011494A68114B13400468E20333
S315000028C0D2184A600122012C01D0920200E0920344
S315000028D00B680C4C1C4012190A60426883681B0284
S315000028E09A18CA65C268CA6602694A6740698867F3
S315000028F010BDC046A8000040837A000024000040B6
S31500002900FF7F0000FFBB0000084A094BD360012986
S3150000291005D11168014311600020D060704711682D
S31500002920814311600020D0607047C0469C00004083
S31500002930837A000000210122FF230AC00260416061
S315000029408160C1600161416170470000F0B581B0EE
S315000029500D4A0E4911606C4620700125EE020027D3
S3150000296038463146FEF7E6FE07480760084909483B
S3150000297008603846294622463346FFF771FE04486A
S31500002980076001B0F0BDC0469C1300201F360D9AAB
S31500002990A41300200CA4FD9AF0B5C7B007920691C7
S315000029A0029000242046FFF73DFE42AE3046FFF778
S315000029B044FA09AD2846FFF7C3FD3F2738010490C6
S315000029C04290012008904390A9483146FFF766F9E6
S315000029D0A8480699FDF714FE390601F003F80146EA
S315000029E00798039100F0FEFF0746294621312A4643
S315000029F0443228466C30069002982E46A236E035C0
S31500002A0005950328079600D19FE0022851D000972C
S31500002A100128089F00D0E7E002910421944D284642
S31500002A2001922246FFF782F9102128462246FFF737
S31500002A300BFA052128462246FFF778F92021284679
S31500002A402246FFF701FA062128462246FFF76EF9CD
S31500002A50402128463A46FFF7F7F907210322284680
S31500002A60FFF764F9082128462246FFF75FF9390285
S31500002A7028462246FFF7E8F9092128462246FFF7AD
S31500002A8055F9790228462246FFF7DEF9009D2846C9
S31500002A90FDF766FE09AFF8800898C007454028464E
S31500002AA0FDF75EFE019A0299B880089F0C940B947C
S31500002AB09AE0029104216E4D284601922246FFF7C4
S31500002AC035F9102128462246FFF7BEF9052128468A
S31500002AD02246FFF72BF9202128462246FFF7B4F9B4
S31500002AE0062128462246FFF721F940212846089E5E
S31500002AF03246FFF7A9F9072128462246FFF716F9BD
S31500002B00802128462246FFF79FF9082103222846FE
S31500002B10FFF70CF9092128462246FFF707F971024B
S31500002B2028462246FFF790F93846FDF719FE394642
S31500002B3009AF7881F00741400846FDF711FE019A7A
S31500002B40029938813746079E4CE002910421484D90
S31500002B5000972F46284601922246FFF7E7F81021F4
S31500002B602846089D2A46FFF76FF905213846224672
S31500002B70FFF7DCF8202138462246FFF765F90621E3
S31500002B8038462246FFF7D2F8402138462246FFF75C
S31500002B905BF9072138462246FFF7C8F880213846F8
S31500002BA02246FFF751F9082103223846FFF7BEF8FF
S31500002BB0092138462246FFF7B9F869023846224607
S31500002BC0FFF742F9009F3846FDF7CAFD394609AFBF
S31500002BD07881E80741400846FDF7C2FD019A02994F
S31500002BE038812F460C940A940F714C710C20B077E3
S31500002BF03D4609AFFD77BC857C770C701480304666
S31500002C00069E3481B47034800480047304991031B4
S31500002C10059801600398FDF7A3FD38802802F0802F
S31500002C201549189113941694FF2102319622B95230
S31500002C308A22BC523A4696329180518039468A3170
S31500002C408C804C80394648318C80F48107994C83BE
S31500002C50B0820A4830611B940948672101603846F2
S31500002C60FFF712FA2846FFF7DDFC47B0F0BDC04675
S31500002C70400D0140001BB74C0F000F000101010081
S31500002C80140E014081B000210091009981421BD2AF
S31500002C9000BF0099491C00910099814214D200BFDF
S31500002CA00099491C0091009981420DD200BF0099FC
S31500002CB0491C00910099814206D200BF0099491C27
S31500002CC0009100998142E3D301B0704710B5184CCA
S31500002CD0207D002807D1174B591C9A1C1833204613
S31500002CE0FEF7EAF8207DA17C01290FD11249097867
S31500002CF002290BD1002809D1617D002906D10020C7
S31500002D00A07401202075FEF7BDFB207D012807D1A8
S31500002D100A480068002803D1FEF7F2F90020207562
S31500002D20012000047A490A6882430A6010BDC04641
S31500002D30841300207812002010120020081201408F
S31500002D4081B0F548F54901600121CA0313490A60BB
S31500002D5000220092009B632B1BD800BF009B5B1CCC
S31500002D600093009B632B14D800BF009B5B1C009351
S31500002D70009B632B0DD800BF009B5B1C0093009B40
S31500002D80632B06D800BF009B5B1C0093009B642B43
S31500002D90E3D3034BCB65026001B0704724000040CB
S31500002DA0FF010000424A002900D0511C036813406D
S31500002DB00B4303607047C04670B50D4604463A485B
S31500002DC020180821C841032805D88000374908582B
S31500002DD00121FFF799FD2846803035492A78002AD7
S31500002DE000D04A1C23680B4013432360696D616061
S31500002DF0E96DE160296E2161696E6161A96EA1616B
S31500002E00E96EE161A96F4902EA6F12020A434AC8F4
S31500002E100068C90111439A000A4371001143014336
S31500002E20616268684007A96809070143286FC00600
S31500002E300843696F89060143E86840060843296923
S31500002E40090601436869C0050843A96909050143E4
S31500002E50E869C0040843296A89040143686A400492
S31500002E600843A96A09040143E86A00030843296B79
S31500002E70C9020143686B80020843A96B49020143FA
S31500002E80E86B00020843296C09010143686CC00025
S31500002E900843A96C89000143E86C40000843296D8A
S31500002EA00143216070BDC04600FAFEBFB43B00007E
S31500002EB0FFFFFF7F80B5001D8C21FDF7B9F980BDAE
S31500002EC070B5002821D00021104A114B114C0D4637
S31500002ED006E000261E609E606D1CAEB2B04214D99C
S31500002EE05C6005261E6099601E681640012EF0D1B2
S31500002EF01E681640012EECD11E681640012EE8D140
S31500002F001E681640012EEFD0E3E770BD01000100F8
S31500002F1010E000E00077010082B072B67E487F497B
S31500002F200160FDF741FEFFF7A7F8FDF79BFEFEF7F0
S31500002F309BF87B490870FEF739FAFEF7DFFFFEF7CC
S31500002F408FFFFFF765F86420FFF79CFE754FF96861
S31500002F503A690020744C261F33681BB25918F96071
S31500002F6023681BB29A183A6133681BB25918F96084
S31500002F7023681BB29A183A6133681BB25918F96074
S31500002F8023681BB29A183A6133681BB25918F96064
S31500002F9023681BB29A183A6133681BB25918F96054
S31500002FA023681BB29A183A6133681BB25918F96044
S31500002FB023681BB29A183A6133681BB25918F96034
S31500002FC023681BB29A183A6133681BB25918F96024
S31500002FD023681BB29A183A610723034308303F2B34
S31500002FE0B9D390118911F960386101204F49504ACF
S31500002FF00090FFF7D1FC96200190FFF761FF206853
S315000030001025795F00B2401A386302204749484AC2
S31500003010FFF7C2FC0198FFF753FF2068795F00B203
S31500003020401A786303204149414AFFF7B5FC0198ED
S31500003030FFF746FF30680C21795E00B2401AB8638C
S3150000304000242046FFF7EEFA19200601386B002807
S3150000305052D4786B002855D4B86B002858D4C820B1
S31500003060FFF72EFF3349324A009D2846FFF794FCAE
S315000030703046FFF725FF03202F492D4AFFF78CFC2A
S315000030803046FFF71DFFFEF739FF6420FFF7FAFD14
S31500003090FC603C617C61294E30461330FFF762FBD1
S315000030A02046FFF7BFFAFF20000425490A6882433D
S315000030B0E80510180860A8032249086062B6204691
S315000030C0FFF7B0FA34602048048220488021FEF7DA
S315000030D0B2FE1F4D1F4C791CBA1C3B4618333046B6
S315000030E0FDF708FF0E4800780228F4D1A8680721EA
S315000030F02246FDF7C9FDEEE73046FFF7E1FE786BA5
S315000031000028A9D53046FFF7DBFEB86B0028A6D508
S315000031103046FFF7D5FEA2E7A8000040837A0000FC
S3150000312010120020781200200404014000C0C94497
S315000031300AD7233C00A0F04400B01A4584130020AF
S315000031400CE400E000E100E0C8120020000D0140A0
S31500003150B81200204013002043088B421AD30022E5
S3150000316003098B4279D3030A8B425ED3030B8B424E
S3150000317042D3030C8B4227D30902FF2212BA030C57
S315000031808B4202D31212090203D0030B8B4233D3B4
S315000031901AE0D3E0411A8041401C704703460B43B6
S315000031A071D443088B42F5D3002203098B4254D3D2
S315000031B0030A8B4239D3030B8B421DD3030C8B427C
S315000031C002D394466EE0090AC30B8B4201D3CB03AC
S315000031D0C01A5241830B8B4201D38B03C01A524152
S315000031E0430B8B4201D34B03C01A5241030B8B4254
S315000031F001D30B03C01A5241C30A8B4201D3CB023F
S31500003200C01A5241830A8B4201D38B02C01A524123
S31500003210430A8B4201D34B02C01A5241030A8B4226
S3150000322001D30B02C01A5241CDD2C3098B4201D33E
S31500003230CB01C01A524183098B4201D38B01C01ABC
S31500003240524143098B4201D34B01C01A5241030933
S315000032508B4201D30B01C01A5241C3088B4201D3E2
S31500003260CB00C01A524183088B4201D38B00C01A8F
S31500003270524143088B4201D34B00C01A5241411AB6
S31500003280524110007047CA0F00D04942031000D3C4
S315000032904042534000229C4603098B422DD3030A29
S315000032A08B4212D38901FC2212BA030A8B420CD339
S315000032B0890192118B4208D3890192118B4204D362
S315000032C0890137D0921100E08909C3098B4201D3E5
S315000032D0CB01C01A524183098B4201D38B01C01A1C
S315000032E0524143098B4201D34B01C01A5241030993
S315000032F08B4201D30B01C01A5241C3088B4201D342
S31500003300CB00C01A524183088B4201D38B00C01AEE
S315000033105241D9D243088B4201D34B00C01A5241C5
S31500003320411A00D201465241104663465B1000D353
S315000033304042704763465B1000D3404201B500210E
S31500003340004201D0C9430846C046C04602BD00003F
S3150000335010B50721024A00200907FDF733FA10BD10
S3150000336001030000034A10B500201107FDF72AFAF1
S3150000337010BD000001FDFFFF10B507206121000709
S31500003380FDF750FA10BD5E2110B5C9430807FDF7D9
S3150000339049FA10BD10B500F0F3F9EFF30080800094
S315000033A001D5012010BD002010BD10B500F01AFA9D
S315000033B0EFF30080800001D4012010BD002010BD75
S315000033C010B500F0BBFAEFF30080800001D50120B4
S315000033D010BD002010BD10B500F0DAFAEFF3008042
S315000033E0800001D4012010BD002010BDF8B54A00B0
S315000033F02B4B520DD6182B4A0C460546142E2BDAAB
S31500003400002E12DA284BFDF795F80022134600F03D
S315000034101BFA40D2002C03DA0124E40700253AE027
S315000034202046284337D0214C14E0214F0B46F74065
S315000034303B402B4331D01C4BFDF77CF80022134652
S3150000344000F002FA27D2002C03DD01200005F0402F
S315000034500419BC4300251EE0332E1EDC334600272C
S31500003460143BFF43DF40384217D00F4BFDF77AF885
S315000034700022134600F0E8F90DD2002C0ADD142EC6
S315000034800CD03420811B012088404019A84200D26C
S31500003490641C0546BD4321462846F8BD641CF9E771
S315000034A001FCFFFF9C7500883CE4377E0000F03F7E
S315000034B0FFFF0F00F8B541000D0E7F3D0446172DA6
S315000034C027DAFF273F061349002D0FDA00F0F0F93F
S315000034D04100B9421CD800281ADD002C01DAFC0193
S315000034E016E0002C14D07F24E40511E00A4EEE40CD
S315000034F030420ED000F0DCF94100B94208D800286D
S3150000350006DD002C03DD0120C005E8400419B443A4
S315000035102046F8BDCAF24971FFFF7F00F8B54A00A0
S315000035202B4B520DD6182B4A0C460546142E2BDA79
S31500003530002E12DA284BFCF7FDFF0022134600F09E
S3150000354083F940D2002C02DB002425463BE06000D4
S315000035504008284337D0214C14E0214F0B46F74052
S315000035603B402B4331D01C4BFCF7E4FF00221346B3
S3150000357000F06AF927D2002C03DA01200005F0409A
S315000035800419BC4300251EE0332E1EDC33460027FB
S31500003590143BFF43DF40384217D00F4BFCF7E2FFE6
S315000035A00022134600F050F90DD2002C0ADA142E30
S315000035B00CD03420811B012088404019A84200D23B
S315000035C0641C0546BD4321462846F8BD641CF9E740
S315000035D001FCFFFF9C7500883CE4377E0000F0BFCD
S315000035E0FFFF0F00F8B541000D0E7F3D0446172D75
S315000035F028DAFF273F061449002D10DA00F058F9A3
S315000036004100B9421DD800281BDD002C01DB002437
S3150000361017E00120C007844213D00C4C11E00C4E79
S31500003620EE4030420ED000F043F94100B94208D8CE
S31500003630002806DD002C03DA0120C005E840041945
S31500003640B4432046F8BD0000CAF24971000080BFAD
S31500003650FFFF7F0070B50546080DC04316460C46B1
S3150000366040052CD000221346284600F057F826D0F5
S31500003670324628462146FDF7A5F80546080DC04303
S315000036800C46400510D000221346284600F046F8A6
S3150000369015D10220FDF78FF8FFF764FE49004908AF
S315000036A0E20FD207114370BD0220FDF784F8FFF741
S315000036B04FFE49004908E20FD207114370BD284664
S315000036C0214670BDC20DD2431206120E24D042000E
S315000036D022D010B5FDF7A6F80446C00DC04300067B
S315000036E0000E03D060000CD0204610BD0220FDF76E
S315000036F062F8FFF741FE40004008E10FC9070843A2
S3150000370010BD0220FDF757F8FFF73DFE40004008C8
S31500003710E10FC907084310BD7047000070B50125C9
S315000037202D050C001C4310D4EC4206D4AC420AD43E
S31500003730994200D070BD904270BDE94217D4EB4269
S3150000374015D4994270BD894270BDEC4206D5AC4293
S31500003750F9D58B4200D070BD824270BD6D004C0021
S31500003760EC4204D25C00EC4201D28B4270BD034CA9
S3150000377030B4FDF77DF830BC70BD00BF19001204EF
S3150000378070B501252D050C001C4310D4EC4206D45F
S31500003790AC420AD4994200D070BD904270BDE94255
S315000037A017D4EB4215D4994270BD894270BDEC42E4
S315000037B006D5AC42F9D58B4200D070BD824270BDB1
S315000037C06D004C00EC4204D25C00EC4201D28B420C
S315000037D070BD034C30B4FDF74BF830BC70BD00BF74
S315000037E01900130470B501252D050C001C4310D4D7
S315000037F0EC4206D4AC420AD4994200D070BD904245
S3150000380070BDE94217D4EB4215D4994270BD894286
S3150000381070BDEC4206D5AC42F9D58B4200D070BDE6
S31500003820824270BD6D004C00EC4204D25C00EC425A
S3150000383001D28B4270BD034C30B4FDF719F830BC91
S3150000384070BD00BF1900160470B501252D051C00BA
S315000038500C4310D4EC4206D4AC420AD48B4200D0BE
S3150000386070BD824270BDEB4217D4E94215D48B423B
S3150000387070BD9B4270BDEC4206D5AC42F9D599426B
S3150000388000D070BD904270BD6D005C00EC4204D269
S315000038904C00EC4201D2994270BD0FB40CBC03BC83
S315000038A0024C30B4FCF7E4FF30BC70BD19001604BE
S315000038B070B50125ED0704004C4020D4441A01D20E
S315000038C0001B0919C60D4B00F2B2FF2A29D01B0EA8
S315000038D02CD000020C0228432C43D31ADC400519D5
S315000038E010D2280A02D3401C6D0611D0761EF605AA
S315000038F08019FF2A00DA70BDC00DC00570BD694091
S3150000390000F0CEF801200543C541521C761CE8E7BD
S3150000391064089C40C90161408900E7D10124A043A5
S31500003920E4E71B0E440200D0034870BD002AFCD118
S31500003930C00FC00770BD00BF0000C07F0123DB05BC
S3150000394002000A430DD4DA4203D49A4207D48842CD
S315000039507047D84214D4D94212D488427047804264
S315000039607047DA4203D59A42F9D5814270475B0027
S315000039704200DA4204D24A00DA4201D2814270475A
S3150000398010B5024AFCF7C4FF10BD00BF09001304BE
S315000039900123DB0502000A430DD4DA4203D49A421E
S315000039A007D488427047D84214D4D94212D48842E8
S315000039B0704780427047DA4203D59A42F9D5814270
S315000039C070475B004200DA4204D24A00DA4201D272
S315000039D08142704710B5024AFCF79AFF10BD00BF3E
S315000039E00900160470B5420064414B005C41120E9A
S315000039F039D01B0E38D0FF2A3CD0FF2B3AD0D21834
S31500003A007F3A40024902400A490A4518ED0106007C
S31500003A104E43000A090A48430104731A4019190C57
S31500003A204318990F04D05B08012149075B1A521C01
S31500003A30D80904D3401CF50301D19D0607D0FF2AFF
S31500003A4008D2D50506D0E4072043401970BD0125EC
S31500003A50A843F4E7002A01DCE00770BD2402FF203A
S31500003A602043C00570BD1B0EFF2A03D0FF2B01D0DB
S31500003A70E00770BDFF2636064500B54206D84D0064
S31500003A80B54203D8D218FF2A00D0E7E7004870BD38
S31500003A900000C07F70B50125ED0704004C4022D41C
S31500003AA0441A02D26C40001B0919C60D4B00F2B233
S31500003AB0FF2A4BD01B0E50D000020C02A8432C4309
S31500003AC0D31ADC40051B05D5AD0019D36D08761E4B
S31500003AD0521E37D0F605280A01D2801970BD7041F2
S31500003AE06D0603D070BD6940FFF7E8FE9C400902F1
S31500003AF06140490001D0401E70BD0124A04370BD45
S31500003B006D081DD001202B0C01D12D0410302B0E79
S31500003B1001D12D0208302B0F01D12D01001DAB0F55
S31500003B2001D1AD00801CEB0F01D16D00401C361A8F
S31500003B30121A6D00680AF5054019012A02DB70BDEC
S31500003B40002070BDC036300AC00770BD1B0E44028F
S31500003B5001D1FF2B00D1024870BD002AF0D070BD04
S31500003B600000C07F8182838485868788898B8C8DBF
S31500003B708E8F919293959697999A9C9D9FA0A2A3BA
S31500003B80A5A7A8AAACAEB0B2B3B5B7B9BCBEC0C201
S31500003B90C5C7C9CCCED1D4D7D9DCDFE2E6E9ECF093
S31500003BA0F3F7FAFE191B12131D1516171A090A0B3D
S31500003BB01E0D0E0F10000000200000004000000047
S31500003BC0800000000000320065009700C900FB007D
S31500003BD02E0160019201C401F70129025B028E02E7
S31500003BE0C002F202240357038903BB03ED0320043A
S31500003BF052048404B604E9041B054D057F05B2058D
S31500003C00E405160648067A06AD06DF0611074307E1
S31500003C107507A807DA070C083E087008A208D50839
S31500003C20070939096B099D09CF09010A340A660A91
S31500003C30980ACA0AFC0A2E0B600B920BC40BF60BF1
S31500003C40280C5A0C8D0CBF0CF10C230D550D870D4D
S31500003C50B90DEB0D1D0E4E0E800EB20EE40E160FB4
S31500003C60480F7A0FAC0FDE0F101042107410A5101B
S31500003C70D71009113B116D119E11D0110212341289
S31500003C8066129712C912FB122D135E139013C213FC
S31500003C90F313251457148814BA14EB141D154F1575
S31500003CA08015B215E315151646167816A916DB16F5
S31500003CB00C173E176F17A117D21703183518661879
S31500003CC09718C918FA182B195D198E19BF19F0190A
S31500003CD0221A531A841AB51AE61A181B491B7A1B9C
S31500003CE0AB1BDC1B0D1C3E1C6F1CA01CD11C021D3B
S31500003CF0331D641D951DC61DF71D281E581E891EE1
S31500003D00BA1EEB1E1C1F4C1F7D1FAE1FDF1F0F2090
S31500003D1040207120A120D220022133216321942149
S31500003D20C521F521252256228622B722E72217230E
S31500003D3048237823A823D9230924392469249A24DB
S31500003D40CA24FA242A255A258A25BA25EA251A26B6
S31500003D504A267A26AA26DA260A273A276A279A2799
S31500003D60C927F927292859288828B828E82817298B
S31500003D7047297629A629D529052A342A642A932A89
S31500003D80C32AF22A212B512B802BAF2BDF2B0E2C93
S31500003D903D2C6C2C9B2CCA2CF92C292D582D872DAB
S31500003DA0B62DE52D132E422E712EA02ECF2EFE2ED1
S31500003DB02C2F5B2F8A2FB82FE72F16304430733005
S31500003DC0A130D030FE302D315B318931B831E6314A
S31500003DD01432433271329F32CD32FB322A3358339A
S31500003DE08633B433E23310343D346B349934C734FC
S31500003DF0F534233550357E35AC35D935073634366E
S31500003E0062368F36BD36EA36183745377237A037F1
S31500003E10CD37FA37273855388238AF38DC38093984
S31500003E20363963399039BD39E939163A433A703A29
S31500003E309D3AC93AF63A223B4F3B7C3BA83BD53BE1
S31500003E40013C2D3C5A3C863CB23CDF3C0B3D373DA9
S31500003E50633D8F3DBB3DE73D133E3F3E6B3E973E88
S31500003E60C33EEF3E1A3F463F723F9D3FC93FF53F77
S31500003E7020404C407740A340CE40F9402541504178
S31500003E807B41A641D141FC41274252427D42A84294
S31500003E90D342FE42294354437F43A943D443FE43BE
S31500003EA0294454447E44A944D344FD4428455245FC
S31500003EB07C45A645D145FB4525464F467946A34652
S31500003EC0CD46F64620474A4774479D47C747F147C0
S31500003ED01A4844486D489748C048E94813493C4940
S31500003EE065498E49B849E1490A4A334A5C4A844AD7
S31500003EF0AD4AD64AFF4A284B504B794BA24BCA4B88
S31500003F00F34B1B4C434C6C4C944CBC4CE54C0D4D4C
S31500003F10354D5D4D854DAD4DD54DFD4D254E4C4E2A
S31500003F20744E9C4EC34EEB4E134F3A4F624F894F21
S31500003F30B04FD84FFF4F26504D5075509C50C35030
S31500003F40EA50115137515E518551AC51D251F95158
S31500003F50205246526D529352BA52E05206532C5397
S31500003F60535379539F53C553EB53115437545D54F0
S31500003F708254A854CE54F35419553E556455895568
S31500003F80AF55D455F9551F56445669568E56B356F5
S31500003F90D856FD56225746576B579057B557D9579F
S31500003FA0FE57225847586B588F58B458D858FC5863
S31500003FB02059445968598C59B059D459F8591B5A43
S31500003FC03F5A635A865AAA5ACD5AF15A145B375B3E
S31500003FD05A5B7E5BA15BC45BE75B0A5C2D5C505C55
S31500003FE0725C955CB85CDB5CFD5C205D425D645D8B
S31500003FF0875DA95DCB5DEE5D105E325E545E765EDA
S31500004000985EB95EDB5EFD5E1F5F405F625F835F49
S31500004010A55FC65FE75F09602A604B606C608D60D4
S31500004020AE60CF60F060116131615261736193617E
S31500004030B461D461F5611562356256627662966244
S31500004040B662D662F662166335635563756394632A
S31500004050B463D363F36312643264516470648F642F
S31500004060AE64CD64EC640B652A6549656765866553
S31500004070A565C365E26500661E663D665B66796694
S315000040809766B566D366F1660F672D674A676867F8
S315000040908667A367C167DE67FB671968366853687A
S315000040A070688D68AA68C768E46801691D693A691D
S315000040B0576973699069AC69C869E569016A1D6ADF
S315000040C0396A556A716A8D6AA96AC56AE06AFC6AC4
S315000040D0186B336B4E6B6A6B856BA06BBC6BD76BC7
S315000040E0F26B0D6C286C426C5D6C786C936CAD6CED
S315000040F0C86CE26CFD6C176D316D4B6D666D806D35
S315000041009A6DB46DCD6DE76D016E1B6E346E4E6E9D
S31500004110676E816E9A6EB36ECC6EE66EFF6E186F2A
S31500004120316F496F626F7B6F946FAC6FC56FDD6FD8
S31500004130F66F0E7026703F7057706F7087709F70A5
S31500004140B670CE70E670FE7015712D7144715C719B
S3150000415073718A71A171B871CF71E671FD711472B4
S315000041602B72427258726F7285729C72B272C872EA
S31500004170DF72F5720B73217337734D736273787345
S315000041808E73A373B973CE73E473F9730E742374C9
S3150000419039744E74637477748C74A174B674CA746B
S315000041A0DF74F37408751C753075447559756D7533
S315000041B081759475A875BC75D075E375F7750A7623
S315000041C01E763176447658766B767E769176A47630
S315000041D0B676C976DC76EF76017714772677387768
S315000041E04B775D776F7781779377A577B777C877C2
S315000041F0DA77EC77FD770F78207831784378547842
S315000042006578767887789878A978B978CA78DB78E7
S31500004210EB78FC780C791C792C793D794D795D79B0
S315000042206D797D798C799C79AC79BB79CB79DA79A2
S31500004230EA79F979087A177A267A357A447A537AB6
S31500004240627A707A7F7A8E7A9C7AAA7AB97AC77AF3
S31500004250D57AE37AF17AFF7A0D7B1B7B297B367B55
S31500004260447B517B5F7B6C7B797B877B947BA17BDB
S31500004270AE7BBB7BC87BD47BE17BEE7BFA7B077C8A
S31500004280137C1F7C2C7C387C447C507C5C7C687C5A
S31500004290737C7F7C8B7C967CA27CAD7CB97CC47C59
S315000042A0CF7CDA7CE57CF07CFB7C067D117D1B7D7A
S315000042B0267D307D3B7D457D4F7D5A7D647D6E7DBF
S315000042C0787D827D8C7D957D9F7DA97DB27DBC7D2F
S315000042D0C57DCE7DD77DE17DEA7DF37DFC7D047EC7
S315000042E00D7E167E1F7E277E307E387E407E487E7F
S315000042F0517E597E617E697E707E787E807E887E64
S315000043008F7E977E9E7EA57EAD7EB47EBB7EC27E70
S31500004310C97ED07ED67EDD7EE47EEA7EF17EF77EA5
S31500004320FE7E047F0A7F107F167F1C7F227F287FF8
S315000043302D7F337F397F3E7F447F497F4E7F537F7A
S31500004340587F5D7F627F677F6C7F717F757F7A7F25
S315000043507E7F837F877F8B7F907F947F987F9C7FF4
S31500004360A07FA37FA77FAB7FAE7FB27FB57FB97FEC
S31500004370BC7FBF7FC27FC57FC87FCB7FCE7FD07F0C
S31500004380D37FD67FD87FDB7FDD7FDF7FE17FE37F53
S31500004390E57FE77FE97FEB7FED7FEE7FF07FF17FC3
S315000043A0F37FF47FF57FF77FF87FF97FFA7FFB7F56
S315000043B0FB7FFC7FFD7FFD7FFE7FFE7FFE7FFF7F15
S315000043C0FF7FFF7FFF7FFF7FFF7FFF7FFE7FFE7FF9
S315000043D0FD7FFD7FFC7FFC7FFB7FFA7FF97FF87F07
S315000043E0F77FF67FF57FF47FF27FF17FEF7FEE7F39
S315000043F0EC7FEA7FE87FE67FE47FE27FE07FDE7F97
S31500004400DC7FD97FD77FD47FD27FCF7FCC7FC97F18
S31500004410C77FC47FC17FBD7FBA7FB77FB47FB07FC0
S31500004420AD7FA97FA57FA17F9E7F9A7F967F927F92
S315000044308E7F897F857F817F7C7F787F737F6E7F8C
S315000044406A7F657F607F5B7F567F517F4B7F467FAC
S31500004450417F3B7F367F307F2B7F257F1F7F197FF4
S31500004460137F0D7F077F017FFA7EF47EEE7EE77E67
S31500004470E07EDA7ED37ECC7EC57EBE7EB77EB07E03
S31500004480A97EA27E9A7E937E8B7E847E7C7E747EBF
S315000044906D7E657E5D7E557E4D7E447E3C7E347EA1
S315000044A02B7E237E1A7E127E097E007EF77DEE7DB0
S315000044B0E57DDC7DD37DCA7DC07DB77DAD7DA47DE8
S315000044C09A7D907D877D7D7D737D697D5F7D557D40
S315000044D04A7D407D367D2B7D217D167D0B7D007DC1
S315000044E0F67CEB7CE07CD57CC97CBE7CB37CA87C6E
S315000044F09C7C917C857C797C6E7C627C567C4A7C3B
S315000045003E7C327C257C197C0D7C007CF47BE77B31
S31500004510DB7BCE7BC17BB47BA77B9A7B8D7B807B51
S31500004520737B667B587B4B7B3D7B2F7B227B147B8F
S31500004530067BF87AEA7ADC7ACE7AC07AB27AA37AFD
S31500004540957A867A787A697A5A7A4C7A3D7A2E7A88
S315000045501F7A107A007AF179E279D279C379B37940
S31500004560A479947984797579657955794579357918
S31500004570247914790479F378E378D278C278B1781B
S31500004580A0788F787E786D785C784B783A78297841
S3150000459017780678F477E377D177BF77AE779C778D
S315000045A08A7778776677547741772F771D770A77FA
S315000045B0F876E576D376C076AD769A768776747693
S315000045C061764E763B76277614760176ED75DA754A
S315000045D0C675B2759E758B75777563754E753A752A
S315000045E026751275FD74E974D574C074AB7497742E
S315000045F082746D74587443742E7419740474EE7353
S31500004600D973C473AE73997383736D73577342739F
S315000046102C7316730073EA72D372BD72A77291720D
S315000046207A7264724D72367220720972F271DB719F
S31500004630C471AD7196717F71677150713871217156
S315000046400971F270DA70C270AB7093707B70637030
S315000046504B7032701A700270EA6FD16FB96FA06F2B
S31500004660876F6F6F566F3D6F246F0B6FF26ED96E4B
S31500004670C06EA76E8D6E746E5B6E416E276E0E6E8B
S31500004680F46DDA6DC16DA76D8D6D736D596D3E6DEF
S31500004690246D0A6DEF6CD56CBB6CA06C856C6B6C75
S315000046A0506C356C1A6CFF6BE46BC96BAE6B936B1D
S315000046B0776B5C6B416B256B0A6BEE6AD26AB76AE5
S315000046C09B6A7F6A636A476A2B6A0F6AF369D769CE
S315000046D0BA699E698169656948692C690F69F268DA
S315000046E0D668B9689C687F686268456827680A6802
S315000046F0ED67CF67B2679467776759673C671E6750
S315000047000067E266C466A66688666A664C662E66BA
S315000047100F66F165D265B465956577655865396547
S315000047201B65FC64DD64BE649F64806460644164F0
S3150000473022640364E363C463A463856365634563BA
S3150000474025630663E662C662A662866266624562A3
S3150000475025620562E561C461A461836163614261AA
S3150000476021610061E060BF609E607D605C603A60D0
S315000047701960F85FD75FB55F945F735F515F2F5F16
S315000047800E5FEC5ECA5EA95E875E655E435E215E75
S31500004790FF5DDC5DBA5D985D765D535D315D0E5DF6
S315000047A0EC5CC95CA75C845C615C3E5C1B5CF85B92
S315000047B0D55BB25B8F5B6C5B495B265B025BDF5A4A
S315000047C0BB5A985A745A515A2D5A095AE659C2591F
S315000047D09E597A59565932590E59EA58C658A1580F
S315000047E07D58595834581058EB57C757A2577E571B
S315000047F0595734570F57EA56C556A0567B56565644
S3150000480031560C56E755C1559C55775551552C5583
S315000048100655E154BB5495546F544A542454FE53E0
S31500004820D853B2538C53665340531953F352CD5257
S31500004830A6528052595233520C52E651BF519851EA
S3150000484072514B512451FD50D650AF508850615093
S315000048503A501350EB4FC44F9D4F754F4E4F264F56
S31500004860FF4ED74EB04E884E604E384E114EE94D33
S31500004870C14D994D714D494D214DF94CD04CA84C27
S31500004880804C584C2F4C074CDE4BB64B8D4B654B32
S315000048903C4B134BEB4AC24A994A704A474A1E4A56
S315000048A0F549CC49A3497A4951492749FE48D54893
S315000048B0AB48824859482F480648DC47B2478947E3
S315000048C05F4735470B47E246B8468E4664463A464A
S315000048D01046E645BB45914567453D451245E844CA
S315000048E0BE44934469443E441444E943BF4394435D
S315000048F069433E431443E942BE42934268423D4205
S315000049001242E741BC41914165413A410F41E440C1
S31500004910B8408D40614036400A40DF3FB33F883F94
S315000049205C3F303F053FD93EAD3E813E553E293E78
S31500004930FD3DD13DA53D793D4D3D213DF53CC83C74
S315000049409C3C703C443C173CEB3BBE3B923B653B7E
S31500004950393B0C3BE03AB33A863A593A2D3A003A9B
S31500004960D339A63979394C391F39F238C5389838D0
S315000049706B383E381138E437B63789375C372E370F
S315000049800137D436A63679364B361E36F035C23563
S315000049909535673539350C35DE34B03482345434C8
S315000049A02734F933CB339D336F3341331233E4323B
S315000049B0B63288325A322C32FD31CF31A1317231C2
S315000049C044311631E730B9308A305C302D30FE2F55
S315000049D0D02FA12F722F442F152FE62EB72E892EFA
S315000049E05A2E2B2EFC2DCD2D9E2D6F2D402D112DAB
S315000049F0E22CB32C842C552C252CF62BC72B982B6C
S31500004A00682B392B0A2BDA2AAB2A7C2A4C2A1D2A38
S31500004A10ED29BE298E295F292F29FF28D028A02815
S31500004A20702841281128E127B127822752272227FB
S31500004A30F226C2269226622632260226D225A225F2
S31500004A40722542251225E224B224812451242124F0
S31500004A50F123C123902360233023FF22CF229F22FC
S31500004A606E223E220D22DD21AC217C214B211B2111
S31500004A70EA20B920892058202820F71FC61F951F35
S31500004A80651F341F031FD21EA21E711E401E0F1E5D
S31500004A90DE1DAD1D7C1D4C1D1B1DEA1CB91C881C92
S31500004AA0571C261CF41BC31B921B611B301BFF1AD1
S31500004AB0CE1A9D1A6B1A3A1A091AD819A719751916
S31500004AC044191319E118B0187F184D181C18EB1764
S31500004AD0B917881756172517F416C21691165F16BA
S31500004AE02E16FC15CA159915671536150415D31417
S31500004AF0A1146F143E140C14DA13A913771345137B
S31500004B001413E212B0127E124D121B12E911B711E4
S31500004B10861154112211F010BE108C105B10291052
S31500004B20F70FC50F930F610F2F0FFD0ECB0E990ECA
S31500004B30670E360E040ED20DA00D6E0D3C0D0A0D3D
S31500004B40D80CA60C730C410C0F0CDD0BAB0B790BC0
S31500004B50470B150BE30AB10A7F0A4D0A1B0AE8093F
S31500004B60B609840952092009EE08BC0889085708C5
S31500004B702508F307C1078F075C072A07F806C6064C
S31500004B80940661062F06FD05CB05980566053405D6
S31500004B900205CF049D046B0439040604D403A20362
S31500004BA070033D030B03D902A702740242021002EE
S31500004BB0DE01AB01790147011501E200B0007E007C
S31500004BC04B001900E7FFB5FF82FF50FF1EFFEBFE0B
S31500004BD0B9FE87FE55FE22FEF0FDBEFD8CFD59FD99
S31500004BE027FDF5FCC3FC90FC5EFC2CFCFAFBC7FB26
S31500004BF095FB63FB31FBFEFACCFA9AFA68FA35FAB2
S31500004C0003FAD1F99FF96CF93AF908F9D6F8A4F83C
S31500004C1071F83FF80DF8DBF7A9F777F744F712F7C5
S31500004C20E0F6AEF67CF64AF618F6E5F5B3F581F54C
S31500004C304FF51DF5EBF4B9F487F455F423F4F1F3CD
S31500004C40BFF38DF35AF328F3F6F2C4F292F260F250
S31500004C502EF2FCF1CAF199F167F135F103F1D1F0C9
S31500004C609FF06DF03BF009F0D7EFA5EF74EF42EF40
S31500004C7010EFDEEEACEE7AEE49EE17EEE5EDB3EDB3
S31500004C8082ED50ED1EEDECECBBEC89EC57EC26EC1E
S31500004C90F4EBC2EB91EB5FEB2DEBFCEACAEA99EA87
S31500004CA067EA36EA04EAD2E9A1E96FE93EE90CE9E6
S31500004CB0DBE8AAE878E847E815E8E4E7B3E781E740
S31500004CC050E71FE7EDE6BCE68BE659E628E6F7E592
S31500004CD0C6E595E563E532E501E5D0E49FE46EE4DB
S31500004CE03DE40CE4DAE3A9E378E347E316E3E5E21F
S31500004CF0B4E284E253E222E2F1E1C0E18FE15EE157
S31500004D002EE1FDE0CCE09BE06BE03AE009E0D8DF85
S31500004D10A8DF77DF47DF16DFE5DEB5DE84DE54DEAB
S31500004D2023DEF3DDC2DD92DD61DD31DD01DDD0DCC8
S31500004D30A0DC70DC3FDC0FDCDFDBAFDB7FDB4EDBD8
S31500004D401EDBEEDABEDA8EDA5EDA2EDAFED9CED9DE
S31500004D509ED96ED93ED90ED9DED8AED87ED84FD8D8
S31500004D601FD8EFD7BFD790D760D730D701D7D1D6C6
S31500004D70A1D672D642D613D6E3D5B4D584D555D5A9
S31500004D8026D5F6D4C7D498D468D439D40AD4DBD37C
S31500004D90ABD37CD34DD31ED3EFD2C0D291D262D245
S31500004DA033D204D2D5D1A6D177D149D11AD1EBD0FD
S31500004DB0BCD08ED05FD030D002D0D3CFA4CF76CFA8
S31500004DC047CF19CFEACEBCCE8ECE5FCE31CE03CE44
S31500004DD0D4CDA6CD78CD4ACD1CCDEECCBFCC91CCD2
S31500004DE063CC35CC07CCD9CBACCB7ECB50CB22CB4E
S31500004DF0F4CAC7CA99CA6BCA3ECA10CAE2C9B5C9BB
S31500004E0087C95AC92CC9FFC8D2C8A4C877C84AC816
S31500004E101CC8EFC7C2C795C768C73BC70EC7E1C660
S31500004E20B4C687C65AC62DC600C6D3C5A7C57AC599
S31500004E304DC520C5F4C4C7C49BC46EC442C415C4C2
S31500004E40E9C3BCC390C364C338C30BC3DFC2B3C2D8
S31500004E5087C25BC22FC203C2D7C1ABC17FC153C1D8
S31500004E6027C1FBC0D0C0A4C078C04DC021C0F6BFCA
S31500004E70CABF9FBF73BF48BF1CBFF1BEC6BE9BBEA5
S31500004E806FBE44BE19BEEEBDC3BD98BD6DBD42BD6D
S31500004E9017BDECBCC2BC97BC6CBC41BC17BCECBB20
S31500004EA0C2BB97BB6DBB42BB18BBEEBAC3BA99BABD
S31500004EB06FBA45BA1ABAF0B9C6B99CB972B948B947
S31500004EC01EB9F5B8CBB8A1B877B84EB824B8FAB7BA
S31500004ED0D1B7A7B77EB755B72BB702B7D9B6AFB616
S31500004EE086B65DB634B60BB6E2B5B9B590B567B55C
S31500004EF03EB515B5EDB4C4B49BB473B44AB422B48C
S31500004F00F9B3D1B3A8B380B358B330B307B3DFB2A4
S31500004F10B7B28FB267B23FB217B2EFB1C8B1A0B1A4
S31500004F2078B150B129B101B1DAB0B2B08BB063B08B
S31500004F303CB015B0EDAFC6AF9FAF78AF51AF2AAF5B
S31500004F4003AFDCAEB5AE8EAE68AE41AE1AAEF4AD12
S31500004F50CDADA7AD80AD5AAD33AD0DADE7ACC0ACB0
S31500004F609AAC74AC4EAC28AC02ACDCABB6AB91AB35
S31500004F706BAB45AB1FABFAAAD4AAAFAA89AA64AA9F
S31500004F803FAA19AAF4A9CFA9AAA985A960A93BA9EC
S31500004F9016A9F1A8CCA8A7A882A85EA839A815A822
S31500004FA0F0A7CCA7A7A783A75FA73AA716A7F2A63D
S31500004FB0CEA6AAA686A662A63EA61AA6F7A5D3A53B
S31500004FC0AFA58CA568A545A521A5FEA4DAA4B7A41E
S31500004FD094A471A44EA42BA408A4E5A3C2A39FA3E2
S31500004FE07CA359A337A314A3F2A2CFA2ADA28AA28F
S31500004FF068A246A224A201A2DFA1BDA19BA179A11C
S3150000500057A136A114A1F2A0D1A0AFA08DA06CA08B
S315000050104BA029A008A0E79FC69FA49F839F629FDD
S31500005020419F209F009FDF9EBE9E9D9E7D9E5C9E13
S315000050303C9E1B9EFB9DDB9DBB9D9A9D7A9D5A9D2A
S315000050403A9D1A9DFA9CDB9CBB9C9B9C7B9C5C9C22
S315000050503C9C1D9CFD9BDE9BBF9BA09B809B619BFC
S31500005060429B239B049BE59AC79AA89A899A6B9AB6
S315000050704C9A2E9A0F9AF199D299B4999699789951
S315000050805A993C991E990099E298C498A7988998CC
S315000050906C984E9831981398F697D997BB979E9728
S315000050A08197649747972A970E97F196D496B89664
S315000050B09B967F966296469629960D96F195D5957E
S315000050C0B9959D958195659549952E951295F69478
S315000050D0DB94BF94A49489946D94529437941C9451
S315000050E00194E693CB93B09395937B93609345930A
S315000050F02B931193F692DC92C292A7928D927392A1
S3150000510059923F9226920C92F291D991BF91A59114
S315000051108C9173915991409127910E91F590DC9065
S31500005120C390AA9091907990609047902F90169096
S31500005130FE8FE68FCE8FB58F9D8F858F6D8F558FA6
S315000051403E8F268F0E8FF78EDF8EC88EB08E998E8D
S31500005150818E6A8E538E3C8E258E0E8EF78DE08D57
S31500005160CA8DB38D9C8D868D6F8D598D438D2D8DFA
S31500005170168D008DEA8CD48CBE8CA98C938C7D8C7C
S31500005180678C528C3C8C278C128CFC8BE78BD28BD9
S31500005190BD8BA88B938B7E8B698B558B408B2B8B12
S315000051A0178B038BEE8ADA8AC68AB28A9D8A898A27
S315000051B0758A628A4E8A3A8A268A138AFF89EC8918
S315000051C0D989C589B2899F898C89798966895389E4
S315000051D040892D891B890889F688E388D188BF888C
S315000051E0AC889A88888876886488528841882F880F
S315000051F01D880C88FA87E987D787C687B587A4876D
S3150000520093878287718760874F873E872E871D87A2
S315000052100D87FC86EC86DC86CB86BB86AB869B86BA
S315000052208B867C866C865C864D863D862E861E86A3
S315000052300F860086F085E185D285C385B485A6856F
S31500005240978588857A856B855D854E85408532850F
S31500005250248516850885FA84EC84DE84D184C3848B
S31500005260B584A8849A848D848084738466845984E2
S315000052704C843F843284258419840C840084F3830F
S31500005280E783DB83CE83C283B683AA839E8392831E
S3150000529087837B836F83648358834D8342833783FD
S315000052A02B83208315830A830083F582EA82DF82BB
S315000052B0D582CA82C082B682AB82A18297828D8253
S315000052C083827982708266825C82538249824082BE
S315000052D036822D8224821B82128209820082F78105
S315000052E0EE81E681DD81D581CC81C481BC81B3812B
S315000052F0AB81A3819B8193818C8184817C81758123
S315000053006D8166815E8157815081498142813B81F1
S3150000531034812D8126812081198112810C8106819B
S31500005320FF80F980F380ED80E780E180DB80D58027
S31500005330D080CA80C580BF80BA80B580AF80AA8081
S31500005340A580A0809B80968092808D8088808480B6
S315000053507F807B80778072806E806A8066806280C4
S315000053605F805B805780538050804C8049804680A8
S3150000537043803F803C8039803780348031802E8066
S315000053802C80298027802480228020801E801C80FB
S315000053901A80188016801480128011800F800E806B
S315000053A00C800B800A8009800880078006800580B3
S315000053B004800480038003800280028001800180D3
S315000053C001800180018001800180028002800280CC
S315000053D0038003800480058005800680078008809E
S315000053E009800B800C800D800F8010801280138046
S315000053F01580178019801B801D801F8021802380C7
S31500005400258028802A802D80308032803580388023
S315000054103B803E804180448047804B804E80528056
S31500005420558059805D806080648068806C80708063
S31500005430758079807D80828086808B808F80948045
S3150000544099809E80A380A880AD80B280B780BC8002
S31500005450C280C780CD80D380D880DE80E480EA8099
S31500005460F080F680FC80028109810F8116811C8103
S3150000547023812A81308137813E8145814C81538148
S315000054805B81628169817181788180818881908167
S3150000549097819F81A781AF81B881C081C881D08162
S315000054A0D981E181EA81F381FC8104820D82168231
S315000054B01F82298232823B8244824E8257826182D7
S315000054C06B8274827E82888292829C82A682B1825C
S315000054D0BB82C582D082DA82E582EF82FA820583B8
S315000054E010831B83268331833C83478353835E83E8
S315000054F06A83758381838D839883A483B083BC83F9
S31500005500C883D483E183ED83F983068412841F84E0
