:020000040000FA
:10000000D8070020650100007301000075010000A1
:1000100000000000000000000000000000000000E0
:100020000000000000000000000000007701000058
:10003000000000000000000079010000B93200005B
:100040007D0100007D0100007D0100007D010000B8
:100050007D0100007D0100007D0100007D010000A8
:10006000612300007D0100007D0100007D01000092
:100070007D0100007D010000410A00007D010000BB
:100080007D0100007D0100007D0100007D01000078
:100090007D0100007D0100007D0100007D01000068
:1000A0007D010000000000000000000000000000D2
:1000B0000000000000000000000000000000000040
:1000C00000F002F800F03EF812A030C808382418FA
:1000D0002D18AC4201D100F035F80FCCA246AB464A
:1000E0000CA730CF2D1B083F3F197C427F1E544484
:1000F0002D090426F441641EAC4201D300F022F81D
:100100000126334200D0FB1A3343984754465D46DC
:10011000DFE70000884200009842000070470000BE
:100120000023002400250026103A01D378C1FBD813
:10013000520700D330C100D50B6070471FB51FBDFB
:1001400010B510BD00F0F4FB1146FFF7F7FF03F008
:1001500021F900F00CFC03B4FFF7F2FF03BC00F040
:1001600067FC0000094880F308880948804709486F
:100170000047FEE7FEE7FEE7FEE7FEE7FEE70000DA
:1001800005480649064A074B70470000D80700207B
:10019000D9320000C1000000D8010020D80700209B
:1001A000D8030020D803002001E004C0091F04295F
:1001B000FBD28B0701D50280801CC90700D00270DA
:1001C000704700290BD0C30702D00270401C491EA3
:1001D000022904D3830702D50280801C891EE3E72D
:1001E0000022EEE70022DFE770477047704700000B
:1001F000F0B50C46871A9C410D46861A9D4103D2E4
:10020000C01BA141D21963410D0D1F0DC94EEC1B3E
:10021000AE435CD07F057F0D0026002F51D02D0509
:10022000AC46A943DD020123ED0A1B051D43202333
:100230001B1B24D41746E740381871412F46E7406E
:10024000CC199D402818314661410C0D27D16144DD
:100250009A4013D50023401C594152000ED140084A
:10026000400001224B005205D34207D3052040072E
:10027000C14201D5B04900E0B0493046F0BD6B0045
:10028000002A00D001229A181F23203C1B1B01D5F5
:10029000002302E0E540281871410C0DD7D001245D
:1002A00024050919C407CD0740084908E40F28436D
:1002B0006144002CD5D00024401C61419A40D0D12B
:1002C000CDE76A05520DD9D1C90FC907D5E79C4DB5
:1002D0004E00002801D0012400E0002434195F0002
:1002E000002A01D0012600E00026BE19954FAC423D
:1002F0000CD8AE420AD8B44206D001256D05EC42B6
:10030000BCD010461946F0BD9942FCD000203946B9
:10031000F0BDF0B51FB40C460F46811A9F4125462B
:10032000861A9D4106D20125ED076F40401ABC4157
:1003300052187B41210D1E0D8D1BAC467D4D8D430A
:100340007ED075056D0D7CD00D05AE46AC431B030C
:100350001B0B794D52429D41202366469B1B14D3B3
:100360001746F740381800260090744160462F4623
:100370000741E41900989D402818664116D471463B
:1003800071189A4025D5012320E093182A466A4126
:100390005200002B00D0521C1E23203E9B1B002B22
:1003A00061DD3541EE1728186641E8D50018764121
:1003B0005B1C9A4000D3401C4B05F3181524E34006
:1003C00010D3002B52D071467118D30FC01802D32E
:1003D000491C05B0F0BD0123DB079A42F9D1400862
:1003E0004000F6E701225205B21801D1002853D08F
:1003F0000123CC0ADB029943891E002A08D1020C92
:1004000003D0020C0004103902E00246002020391B
:100410000023550B05D112020823550B01D15201BF
:100420000D23550C01D112011B1DD50C01D19200D9
:100430009B1C150D01D152005B1C2025EE1A01E01A
:100440002CE022E00546F54015439840CA1AE10722
:1004500069181305C918002ABBDA032040070818D9
:10046000C10FC9070FE071466118B2E7F1074008F4
:100470000843711071444A000CD001235B059A4275
:10048000A7D2C90FC9070020A3E74905490D26D106
:10049000002001E00028F4D100219AE7284D6600F1
:1004A000002801D0012100E0002171185F00002A1E
:1004B00001D0012600E00026BE19224FA94210D823
:1004C000AE420ED8B14208D001256D05E94206D0F2
:1004D0001946A802414010467BE79C4201D02146C4
:1004E00077E70020394674E710B50C465C4005D527
:1004F0000124E4076340FFF70CFF10BDFFF778FE0F
:1005000010BD30B40C465C4004D50124E4076340C0
:1005100030BC6DE630BCFCE670B50124E4076140F8
:100520000D465D4002D4FFF763FE70BD6340FFF7E8
:10053000F0FE70BDFF0700000000F0FF0000F07F3C
:100540000000E0FF0000F87F30B50346CA02400D0E
:100550001043164D164C0A1502D02043002A06DB24
:10056000AA1A002A12DDD040FF2A0BDC30BD52054A
:10057000520D01D140004008AA1A07D4D040404291
:10058000FF2A01DD002030BD0028FCDD4A00002BE1
:1005900001D0012000E00020101801225205D042B5
:1005A000F0D8C817C043604030BD00001E040000F2
:1005B00000000080F0B5FF252D04C609C209FF2701
:1005C00004462E400137CB093E4348402A402B4089
:1005D0000746002A6BD0002B69D0AA4267D0AB42F5
:1005E00065D0002800DA32460125ED0529432C4369
:1005F00009022002090AD21A4B0C7F24E31A434C49
:10060000000A7C44E35C7D242404121914145B006A
:10061000A218884201D3521C00E0400049420C4617
:100620005C4324115C43DB016415E318040A5C435A
:10063000C502200D0C4644436419250A5D4323037B
:10064000EC0C0D46654300030019EB184C42A34225
:1006500001D35B18401CD4052018002B07D05B0089
:10066000C91804D3401C002901D1400840003F2193
:1006700089048A4209D3002A08DC1106090F04D034
:10068000032149074018C00FC007F0BD01224100F7
:10069000120689187F2252069142F6D20521490797
:1006A000C84201D59010F0BDFF20C005F0BD002F5D
:1006B00000DA32461648AA4207D2AB4205D21902E6
:1006C000090E17D0F80FC007F0BDFF2563002D06F7
:1006D000AB42F9D84900A942F6D8AB4201D1A942B0
:1006E000F2D0A94201D1002101E061004908D00502
:1006F0000843F0BD1102090EFBD0FF200243D005D4
:10070000F0BD0A460146104654E700005637000087
:100710000000C07F10B501469E240002CA15A30741
:10072000002A02D01843002A04DBA21A002A0CDD9A
:10073000D04010BD1206120E01D140004008A21A8E
:1007400003D4D04040420028F3DDFF2248001206C7
:10075000904201D9002010BDC817C043584010BDB9
:1007600010B500F05BF8006810BD10B5044600F04D
:1007700055F8046010BD000070B505464800440DF2
:10078000124B0020002C0AD0634008D09A4206DAAF
:100790006642B24203DD12054019514170BD002C82
:1007A00008D0002B09D0C90FC907002AF6DB084A78
:1007B000114370BDC90FC90770BD28460A03104315
:1007C00002D00020034970BD284670BDFF0700001D
:1007D0000000F07F0000F87F10B5FF22C30D13402A
:1007E00009D05A4007D0914205DA5C42A14202DDAD
:1007F000C905081810BDC40FE407002B06D0002A55
:1008000006D0002902DBFF20C0050443204610BDAE
:100810004102FCD0004810BD0000C07F0048704776
:1008200000000020F8B5264C4E00069DA6420AD8CE
:10083000A64201D1002806D15E00A64203D8A642F6
:100840000AD1002A08D00D242404254233D0294699
:10085000002000F094F8F8BD0C461C4311D49942D6
:1008600007D0C81A02D3EFF30080F8BDEFF3008081
:10087000F8BD801A02D3EFF30080F8BDEFF30080DB
:10088000F8BD09242407E5008B4207D0581A02D38B
:10089000EFF3008006E0EFF3008007E0101A03D3C7
:1008A000EFF30080A04303E0EFF30080A043284370
:1008B00080F30088F8BD009500F078F8F8BD0000DE
:1008C0000000E0FF10B5FF231B0644009C421DD82A
:1008D0004C009C421AD80346124A0B4307D4401AD4
:1008E00002D3EFF3008010BDEFF3008010BD081AB3
:1008F00003D3EFF30080904305E0EFF30080012184
:100900009043C907084380F3008810BD0D231B04E2
:100910001A4204D01146002000F031F810BD00F05A
:100920004FF810BD00000090004870470000002004
:100930007546FFF7F9FFAE46050069465346C00805
:10094000C000854618B020B5FFF71AFC60BCB6465B
:1009500000260027C0C5C0C5C0C5C0C5C0C5C0C52C
:10096000C0C5C0C5403D490849008D46704710B517
:100970000446C046C0462046FFF7EDFB10BDC80246
:1009800012D54803400F002804D0C803C0430121FA
:1009900088407047EFF30080000100090321090738
:1009A000084380F3008870470020704710B500208E
:1009B0000249029A00F00CF810BD00000000F87F18
:1009C00010B5024800F004F810BD00000000C07F20
:1009D00010B50C461107090F092904D00A290AD0BD
:1009E00008290CD104E011460820FFF7C8FF06E0F3
:1009F000510606D501E0510601D50120C007214668
:100A000010BDD10607D501010909CC084907000E20
:100A10000006044309E0410F20024907000A014390
:100A2000200E00061D22D14101430846E7E70000E1
:100A300001491820ABBEFEE7260002007047000007
:100A4000F0B583B0754C0121204600F06CF9002808
:100A500000D1E1E07248202101F070FD0420714DC9
:100A6000285E714F3F281FDC0026304602F080F9D7
:100A70003846314600F00AF969690818686120466D
:100A8000314600F003F9E9680818E86001212046C2
:100A900000F0FCF8296908182861A888401CA88083
:100AA00000B2412814DAAFE0402811D14120A880DB
:100AB000686980116861E8688011E86028698011C0
:100AC000286100F09DFBA88800B2412800DA9BE075
:100AD00000263846314600F0D9F8A8612046029633
:100AE000314600F0D3F8E968401AE8610121204658
:100AF00000F0CCF8A969EB694C4EF160AA6A511C70
:100B00000191A9624A4CA34200DC2346494FBB42F3
:100B100000DB3B46EB612969401AA04200DC20461D
:100B2000B84200DB3846286243490C7D002C1F4642
:100B300000D00746B760002C044600D01C46C01801
:100B400040426862346070603C4882420DDD3C493E
:100B500071613C49019A8A4207D3401C70613A484E
:100B60000199814201D30298A862384E301F4B216F
:100B7000CF0107603446083C05202060029D3560A7
:100B800000F0F6FD3068381A264FF86225603560AF
:100B90002F4C208801280CD10026304602F0E8F8BE
:100BA0003878224908828021E548324601F0CFFC9E
:100BB0000AE0387802F0DCF83A788021E04801F069
:100BC000C6FC3878194908823D461B48067DE288F4
:100BD0006088002E114600D001464B429FB21D4B4B
:100BE0001F608FB25F60A4886742BFB29F60DC6005
:100BF000002E00D01046424292B21A612C81E98048
:100C0000688180B25861054C0121204600F03AF815
:100C10002021CB4801F090FC03B0F0BD000401405E
:100C2000000D01406000002000050140B0000020E0
:100C30000180FFFFFF7F0000D0000020871300002D
:100C4000581B000011270000993A000018E000E04E
:100C5000A0000020000C014010B5012B04D101239D
:100C60008B40446E1C4344668B071B0F0F249C4033
:100C70000907890F89004018016DA1439A400A4372
:100C8000026510BD94228150704700000F2947D89B
:100C90007944097949008F4408071F27132F372B00
:100CA0003F1B3B0F17330B23001D006800B270473A
:100CB0003830006800B270472C30006800B27047CE
:100CC0001030006800B270473030006800B27047E2
:100CD0002430006800B270470830006800B27047E6
:100CE0003C30006800B270470C30006800B27047BA
:100CF0001C30006800B270471430006800B27047C2
:100D00003430006800B270471830006800B2704795
:100D10002830006800B270472030006800B2704789
:100D2000002000B270470246903252689023C058AB
:100D30000A400240501E824110467047B0B50C4632
:100D400005460120014602F0C1F820886188014370
:100D500090202950E08A0002A18A09010143608A9B
:100D600008432866208AA867A0880003E1888902D2
:100D70000143208900020843618909010143A089D8
:100D8000C0000843E18901436967608BC421685052
:100D9000C435A08B6860E08BA860A1204401204688
:100DA00002F076F8124D2860201D02F071F868609C
:100DB0002046083002F06CF8A86020460C3002F0A3
:100DC00067F8E8602046103002F062F8094D2860AC
:100DD0002046143002F05CF868602046183002F0BB
:100DE00057F8A8601C34204602F052F8E860B0BD05
:100DF000800401408005014010B504461221FFF730
:100E0000EFF9002020830120E082A082608210BDE3
:100E100010B588B06C46204602F0A8F80120029078
:100E2000002000900390FF2101910490059006900E
:100E30000790204602F058F808B010BDB0B504681D
:100E4000651C05604468A54204D9046000240C7048
:100E500014701C6012490B681422D31A048AA3422E
:100E600016D1837C5B1CDBB2FA2B1C4600D3FA2420
:100E700084740C68141B04820C68022B07D30B4685
:100E8000083B1C680125AC431C60C5740A60B0BDFA
:100E9000002383740B68D21A02820868B0BDC04672
:100EA0000812014010B5244A904223D0234B9842A7
:100EB0000FD0234A90421CD110291AD288B2224A5C
:100EC000C240D00715D0880020A108581D490860ED
:100ED00010BD0123002907D00A2903D0012906D11A
:100EE0005B0202E09B0200E01B02164C2360904272
:100EF00000D010BDCA1E0C2AFBD80121C802C04672
:100F00007A44127952009744080706060B06060633
:100F1000060F06061300ECE708030A49086010BD37
:100F200048030849086010BD88030649086010BDE1
:100F3000C8030449086010BD800D0140400D014008
:100F4000000D01400C0E01404FC8000001000000E0
:100F50000200000004000000080000000100000082
:100F6000010000001000000001000000010000006E
:100F7000010000000100000020000000010000004E
:100F80000100000040000000800000000246002038
:100F9000924B9A4225D0924B9A4218D0914B9A424A
:100FA00000D065E00F2900D962E0C0467944097994
:100FB00049008F44074451555D5D595D5D5D5D405D
:100FC0005D5D484C2B4801680120084070470A29A4
:100FD0001DD0012917D000294AD126480068C00534
:100FE00045E0C91E0C2943D87944097949008F444A
:100FF00006163F3F123F3F3F3F1A3F3F1E001D482E
:101000000068000533E01B48006880052FE01948A0
:10101000006840052BE017480068800427E0154869
:101020000068C00423E01348006840041FE0114832
:10103000006800041BE00F480068800617E00D48B8
:101040000068800713E00B48006840060FE009487D
:101050000068C0B2C009704706480068400706E053
:1010600004480068000702E002480068C006C00F9C
:101070007047C0460C0E014070B5584B984243D0A3
:10108000574CA0421DD0574B98422DD156488368EB
:1010900001241C4384600F2926D8C046794409796D
:1010A00049008F44076F858D2121942121212168DA
:1010B0002121777E4D49BD3103680B401343036006
:1010C00070BD494CA56802262E43A6600A2912D09D
:1010D00001290AD0002907D1444EBD366568354044
:1010E0001543656098420FD070BD404DB4356668B9
:1010F0002E40950004E03D4D903566682E40150168
:10110000354365609842EFD13748836804241C4317
:101110008460C91E0C29E7D87944097949008F44B5
:10112000071506060E060606061C06062300DBE764
:1011300041682E4B0B4091011943416070BD4168DD
:101140002D4B0B4091021943416070BD41682B4B00
:101150000B4011021943416070BD4168254B0B40A3
:1011600011031943416070BD4168214B0B4091034D
:101170005918416070BD01681F4B0B409102194323
:10118000016070BD1949B43103680B4091001943E7
:10119000016070BD0168174B0B40110319430160DA
:1011A00070BD0168124B0B4091035918016070BD6E
:1011B0000E49903103680B4011011943416070BD25
:1011C00001680A4B0B4091011943016070BD016831
:1011D0000A4B0B4011021943016070BD800D0140A4
:1011E000400D0140000D0140000E01403FFF000096
:1011F000FF3F0000FFCF0000FFF30000FFFC0000F6
:10120000F0B585B0E420FC4A01251554DA20FB49ED
:101210001152FF200230E22150527D208000D06127
:10122000F748F8490F2202F011FB0A2202F00EFBE8
:1012300007460C460295E8070E46049086430022B6
:10124000F14B38463146019202F0A0F9002811D145
:101250000025EE4B384631462A4602F0A2F9002816
:101260000DD10022E94B38462146FFF73DF902F047
:1012700051FA01E038462146FFF766F90546B020ED
:10128000DD490D52E2480A2102F018FB06460446E9
:10129000049884434B2001062046039102F08CF908
:1012A000002809D13F2005062046294602F08FF983
:1012B000002803D0002009E0304605E030462946EA
:1012C00002F0F2FB02F08AFAFFF724FAC221CA4ABE
:1012D0005052D048072102F0F1FA0646044604981D
:1012E00084432046039902F067F900280FD13F207C
:1012F00005062046294602F06AF90028019809D11E
:101300003046294602F0D0FB02F068FA00E0304691
:10131000FFF700FAC422B8498852BF48BF490F22DC
:1013200002F094FA07460D460C46049884430026C2
:10133000FA4B38462146324602F028F9002810D1EF
:10134000F74B38462146324602F02BF900280DD1E2
:101350000022F34B38462946FFF7C6F802F0DAF9C7
:1013600001E038462946FFF7EFF80646D420EA495F
:101370000E52EC48EC490F2202F068FA05460F467F
:101380000E46049886430022E44B284631460192DB
:1013900002F0FCF8002811D10024E14B2846314628
:1013A000224602F0FEF800280DD10022DC4B284630
:1013B0003946FFF799F802F0ADF901E028463946C1
:1013C000FFF7C2F80446D620D3490C52D7480F2164
:1013D00002F074FA05460446049884432046039EAE
:1013E000314602F0E9F8002809D13F2006062046E0
:1013F000314602F0ECF8002805D000200BE028462A
:10140000FFF788F908E02846314602F04DFB02F06C
:10141000E5F9FFF77FF9039EBF494867C4480F21EC
:1014200002F04CFA054604460498844320463146AF
:1014300002F0C2F8002809D13F20060620463146B6
:1014400002F0C5F8002805D000200BE02846FFF781
:1014500061F908E02846314602F026FB02F0BEF9A9
:10146000FFF758F9039EAC4908673F200706384646
:10147000029902F023FA0546044604988443204664
:10148000314602F099F8002807D12046394602F08B
:101490009EF8002803D0002009E0284605E02846F1
:1014A000394602F001FB02F099F9FFF733F9B82150
:1014B0003A22994C6252C6216052B62075212152BF
:1014C0009C489D49042202F0C1F9B522D200C823EC
:1014D000E252029A12059023E250B2220523A3524F
:1014E00002F080F8FFF730F8B42160529348A0660C
:1014F00093480F2102F0E2F905460446049884431C
:101500002046314602F058F8002807D120463946D7
:1015100002F05DF8002803D0002009E0284605E02D
:101520002846394602F0C0FA02F058F9FFF7F2F8FF
:101530009421844A784C625060668348A06783484F
:10154000082102F0BBF902F0B1F8FFF7E3F8E06719
:101550007F480F26314602F0B1F902F0A7F8FFF7F5
:10156000D9F8882160507B48314602F0A7F98C21D8
:10157000794A625002F09AF8FFF7CCF88421605063
:101580007648314602F09AF90546044604988443A9
:101590002046039E314602F00FF8002807D120466E
:1015A000394602F014F8002803D0002009E028464C
:1015B00005E02846394602F077FA02F00FF9FFF706
:1015C000A9F88021544A505065480F2102F076F95D
:1015D00005460446049884432046314601F0ECFF5A
:1015E000002807D12046394601F0F1FF002817D026
:1015F00000201DE0284619E0EC000020FFFF00005D
:10160000F168E388B5F8043F000030430000E03F94
:10161000CCCCC44000009640B201E40E6F57ED3FC1
:101620002846394602F040FA02F0D8F8FFF772F87F
:10163000BA21394A50524B480F2102F03FF9054672
:101640000446049884432046314601F0B5FF002843
:1016500007D12046394601F0BAFF002803D0002008
:1016600009E0284605E02846394602F01DFA02F056
:10167000B5F8FFF74FF8BC21274A50523A480F21DE
:1016800002F01CF90546044604988443204631467E
:1016900001F092FF002807D12046394601F097FF5C
:1016A000002803D0002009E0284605E028463946F6
:1016B00002F0FAF902F092F8FFF72CF8C021152297
:1016C000154B5A52BE21585228480F26314602F077
:1016D000F5F805460446049884432046039901F032
:1016E0006BFF00280DD12046394601F070FF00281D
:1016F000019809D12846394602F0D6F902F06EF871
:1017000000E02846FFF706F8F301AE21024A5352E3
:10171000D06605B0F0BDC046EC00002000003043AC
:101720000000E03F75FBCA123BB1E33F9C50883E8E
:10173000713D0A44DBB66DDBB66DBB3FA8610000AE
:101740003EC3AE39C0CCCC3C80666646922409418B
:101750003743F13702CA163AB87E0000ABAAEA3E18
:101760005555D53DABAA2A3D8988083B0AD7233A6F
:10177000F0B596B0C420BA4E335EBA4908694A69DA
:1017800058430B90C111C81713914140081A5A438E
:101790000A92D211D11710924A40511A884200D8A9
:1017A0000846B04989694B430C93DA11D11711925D
:1017B0004A40511A884200D80846316E0F220892DA
:1017C00051434018001114903066E822B05CDC21CF
:1017D0000F91755C802105917758C221715EA14BF4
:1017E000DB694B439C12042D0992159512941CD170
:1017F000002803D10120B0540020B0650E970123CA
:10180000980300218442184600DB0846F46E149FBA
:10181000A7421C4600DB0C46204301280DD1DB20EB
:10182000345C002131540E9F1AE000282FD0002094
:10183000B054DB20FF21315429E0DB25B820305E95
:1018400031464610896D0020B14201DA074600E0BA
:101850000127834A545D5755B14216460E9F06DA5A
:10186000002C01D0002000E0F06D411CF165B16E4C
:101870004910884204DA002014998F4204DA04E007
:10188000012014998F4200DB0346E1203354982550
:10189000715934464E1C00208E4218D2C643DF21B7
:1018A000635C002B18D0E023E15C491E062944D874
:1018B0007944097949008F440348262F195263005F
:1018C0001498874200DBDAE10020654E8CE0665117
:1018D000DF21635C002BE6D1E020032222540120AB
:1018E0006054002060512646159D86E0E1205C4E44
:1018F000305C002800D1D4E10220F0540120594985
:101900000880159D79E05748408C012847D1FA2E70
:1019100045D30620524E30E0012053498E4252D327
:10192000A0214F4C615E4403A1424CDA04254C4E89
:101930000F9835540520F0545FE04C48864218D289
:101940000025474E0F98355454E04648008C002837
:101950000FD0012043490880414E159D4DE041487C
:10196000408C002805D005253D4E0F9835540020A9
:1019700041E000203A4E70510320F054159D3CE0A8
:1019800014998F4200DB83E1354E0F9970547051EA
:101990000821F1540121334A118005462DE03148D8
:1019A000008C0128129C01D000F0A7FCFA2E01D275
:1019B00000F0A3FC01212A4E0F98315400207051F1
:1019C0000D46F1541AE02A4900248E42014600D9FE
:1019D00043E12146149EB742214E00DB42E1014320
:1019E000012900D043E100200F9970547051054641
:1019F0000820F05401201B490880129C30206043CD
:101A0000000C1221081A00B2C1178843182800DB05
:101A100018201849414318480C181248406A7D2381
:101A2000DA009042014600DC1146A04200DC0C4680
:101A3000DA2112480790052D159500D984E0705CD5
:101A40007D442D796D00AF4402582B4C1B66CA2093
:101A50000024345274549C203450159D9EE1C0469D
:101A6000EC000020A00000206A180000881300008D
:101A7000D330000084FEFFFF34210000CDFFFF7F44
:101A800004227254042864D1DD488189CA200E9151
:101A90003152E220305C00286FD1A820315A71E029
:101AA000022272549C2100227252BA21715A9E2243
:101AB000B152B021725EB621715E51438901C913E2
:101AC000022801D1F36AC918159D8B125A43D41309
:101AD000022801D1B06A2418CA203452B462F162DB
:101AE0005CE103227254032800D087E0E420305CDC
:101AF000002800D088E0716A88E0CA2000243452AF
:101B0000012070549E203452BA20305A40009C214B
:101B10007052159D42E1052272549C21002272529E
:101B2000BE21715A9E22B152B021715EC022B25EB6
:101B30004A439101CC13052801D1B0692418159DA1
:101B4000CA203452B46129E1FF207054CA20345AAB
:101B500024E1DE2100207054DD217054D821705220
:101B6000FF210231E222B152A5498A89CA210E928F
:101B70007252B0609900F1613062BC20305A41422B
:101B8000A8203152E320305CAA220028129205D00E
:101B9000BA20305ABC25755B281A00E0B05A02B250
:101BA00000201492002A00D41490D825765B09B244
:101BB000002900D401469348864213D2761C924AEB
:101BC0005653DD20175C002F11D0DE25505D012813
:101BD00041D1B0B20124A402E134A04269D902206B
:101BE000505568E0884ADD20175C002FEDD1DE23D8
:101BF0000124D4541454002050535CE0AC20002144
:101C00003152E42001213154CC20315AE420002209
:101C10003254AC20325A9C23F252BA23F35A9C1A03
:101C20009E257453B024345FB825755F6543AC01BD
:101C3000E4136418CA217452511C09B2BC22B25A6E
:101C40009A1A13B2994202DCCA1791430A463252D9
:101C50007462159DA2E094602DE0149EB7426A4E16
:101C600000DABCE620460143012900D1BBE6644806
:101C7000008C0028129C00D14EE3032554E3FA2E79
:101C8000129C00D241E300205F4E7051072051E3C7
:101C90005E498E42129C00D840E35B4E7051042096
:101CA00048E35748008C0028129C00D134E30425F7
:101CB0003AE3D8009060D36F9468D068D569641B0C
:101CC00026B20724E443A64209DC26464343082EF5
:101CD000129A08DA1C1273194B4E09D50FE04343D0
:101CE000082E129AF6DB08261C127319464E06D4EB
:101CF0004748C0183430844201DA464D11E0002BC9
:101D000006D5434832301840844201DD424D08E098
:101D1000181B414CA042054600DC25463D4CA04224
:101D2000EBDCE22000243452481C3746A826B85386
:101D30001498401CB85284203858B022BA5E2EB293
:101D40007243D213424390123A6A80188C22BD58D3
:101D5000A8422A4601DCC217024388202A4F38587D
:101D6000464390196F42B842064600DC3E46A84200
:101D700000DC3546681A9E21234E705200B20028BE
:101D800000D420461499081801210902081A473086
:101D90009C217052F3613262159D0E9C204680306A
:101DA00080B2C009401E80B240001C49085E1490F9
:101DB0008120C0010690201880B2C009401E80B268
:101DC0004000085E129011981099081A1449414376
:101DD000C8130F90002D0E940DD0E620315C002921
:101DE00020D0A620305AA221725AA421735A3169F8
:101DF000049171691DE0E6200021315421CE02E1F9
:101E0000A0000020FF070000EC000020D3300000FD
:101E1000CDFFFF7FFF7F00000080FFFF9C3D0000A3
:101E2000E6490000012131540021084604910A4688
:101E30000B469E24345B241A26B2EC4CA64200DCEE
:101E40002646EB4DAE4200DB2E463018A626E94F63
:101E5000B8539C26BE5BF3189B1A1BB2A34200DC4E
:101E60002346AB4200DB2B469A18A2230392FA5278
:101E7000149B139A5343129C0F9A5443E31ADB1397
:101E800000B2C51AB0203C5E20466843C313386FC9
:101E9000801243435E18B96F4B429E42374600DCC6
:101EA0001F468E420A4600DC3A460D92D14A566FD2
:101EB00075430D9A55199D422F4600DC1F468D42F1
:101EC0000A4600DC3A460292129F139A5743149A2C
:101ED0000F9D6A43D219D213039D2FB2BA1A5443ED
:101EE000E4136043049C04199C42204600DC18461D
:101EF0008C420C4600DC04460298051456430494B8
:101F0000A4199C42204600DC18462A466A438C42AB
:101F100000DC01460814014641435418210F01D04A
:101F20000699803901235A030A4396B27643A642A2
:101F300000D811461A030A4396B27643A64200D847
:101F40001146FE4A8A18521C96B27643A64200D821
:101F500011469A020A4396B27643A64200D8114629
:101F60005A020A4396B27643A64200D811461A0294
:101F70000A4396B27643A64200D81146059E0E4308
:101F8000B2B25243A24200D8314640220A4396B22E
:101F90007643A64200D8114620220A4396B27643E1
:101FA000A64200D8114610220A4396B27643A642B2
:101FB00000D8114608220A4396B27643A64200D8BA
:101FC000114604220A4396B27643A64200D811462F
:101FD00002220A4396B27643A64200D811460B432A
:101FE0009AB25243A242D64E00D81946D94A511A43
:101FF00009B20029049B00D40021A422B15233610C
:102000000D99716121C6083E149B19464143129CEB
:1020100022466A435118C9130D916B434443E01A99
:102020001290C0131490159CE720002C14D0315C42
:10203000002915D0F06C0490306D0590C14883895B
:10204000306B0190746BB06B0390F06B0090304676
:10205000366C416C029111E000213154F268A3E02A
:10206000012131540021B16404910B4602913046A4
:102070000E46009103910C4605910191D621455AD7
:10208000C621415E0F460D9A57437F10009ABA1A37
:102090006A43D213D427C75B7E43F61392190264B6
:1020A000149E71434910019E891B6943C9137C43E7
:1020B000E413641844630F98151AA748854200DC9E
:1020C0000546A24A954200DB1546B2269C498E5F22
:1020D000754302982F1AB4254D5F6F433F1138188E
:1020E0004864C863139FE41B9B498C4200DC0C4688
:1020F000944200DB14466643039AB11A4D432911FA
:1021000089188F4EB1633163069A9A1880339BB257
:10211000DB095B1E9BB25B008D4CE35E4343D8132F
:1021200092B2D209521E92B25200A25E4A43D11319
:1021300008184242B020305E01465143C913902333
:10214000F3589B124B4304995B18942171584C42ED
:10215000A3421D4600DC25468B420B4600DC2B4685
:10216000C825755F6A439D18A5422A4600DC2246B1
:102170008D4200DC11460A14F260746EB56C89124F
:102180004843C01305994018B264F3643065654351
:102190002902C91349006E4B591801239B02C95AE1
:1021A000081868498881159CF06F5043716D089B31
:1021B0004B431B1818117065AE20375AE521032CCC
:1021C0000CD8745C002C15975E4815D0D021715A3C
:1021D000CE24345B611AD224345B11E000247454A1
:1021E0000999715C00291ED11EE0C0460880FFFFDE
:1021F000F87F0000EC0000200124745400242146E4
:10220000D0250E9F7753CE2574538489D2257453DD
:102210000CB2E4136140091BA0243153159F0999A6
:10222000715C002900D0B265CC210E9A725219134C
:102230004448816049490D984143C91312980314D9
:10224000CE1A149AB2420BDC3246C9184B429A425B
:102250000ADD149CB4420BDB34469C420ADA0AE0E5
:10226000C9184B429A42F4DC1A46149CB442F3DA81
:102270009C4200DB1C46A31800220A9C7F2C324D96
:1022800000D8154638B25C103323109F002F1F462C
:1022900000D42F46F5192D1B4543ED0B2D046D423F
:1022A0002D0C46107519274FBD800B9D7F2D264D97
:1022B00000D81546139F002F1F4600D42F46149DAB
:1022C000ED192D1B4543ED0B2D046D422D0C751999
:1022D0001C4F7D800C9D7F2D00D807920919119A03
:1022E000002A00D4079B591A4843C00B00044042FF
:1022F000000C3018F88016B0F0BD0025104E0F9875
:10230000355410480580FFF779FB0E48008C0028F3
:102310000B4E01D0012507E0002009E00949098C96
:102320000029074E04D002250F983554FFF766FBAD
:1023300070510320F054159DFFF760FBFF0700006C
:10234000EC000020A0000020CDFFFF7FFF7F0000F9
:102350009C3D00009A3900000180FFFFD96E00000B
:10236000B0B5C04C0E212046FEF710FE002815D057
:1023700004200B4D285E41280CDB29784842484157
:10238000287000F0F5FC2A78064802828021204659
:1023900000F0DDF80E212046FEF784FDB0BDC046FA
:1023A00060000020B0000020B0B50D4604460121B9
:1023B000C80200F0C5FD03CD083D032909D001295D
:1023C00004D000291ED16168814304E061680143A3
:1023D0001AE0616801436160216801432160A968D6
:1023E000002918D1216981432161E968002918D1A8
:1023F000A1698143A1612969002918D1E16981435B
:10240000E161B0BD61688143616021688143216001
:10241000A9680029E6D0216901432161E968002902
:10242000E6D0A1690143A16129690029E6D0E169EB
:102430000143E161B0BD00000F2960D879440979FA
:1024400049008F4407482E3A1A4F5D416B276413A9
:1024500021560E353749E131036A0B409918016264
:102460007047C16A324B0B40110246E0816A2F4B24
:102470000B4011035918816270472E49E131436ABC
:102480000B409918416270472A49E131C36A0B40F9
:10249000991833E0816A274B0B401101591881626A
:1024A0007047016A224B0B401102591801627047B4
:1024B000C16A1E4B0B4011031FE0016A1B4B0B400E
:1024C0001103591801627047416A184B0B40110300
:1024D000591841627047016A164B0B401101591897
:1024E00001627047416A134B0B4011015918416258
:1024F0007047C16A0F4B0B4011015918C1627047F8
:10250000416A0B4B0B401102591841627047816AB6
:10251000074B0B4011025918816270470549E131A0
:10252000836A0B40991881627047C046FF0F000014
:10253000FFF000000FFF0000416370470163704728
:102540000021016041608160C16001617047002A23
:1025500004D0302283580B43835070473422835871
:102560000B43835070470000F0B589B001AF384687
:10257000FEF742FC00247C8001253D80BC80FC806D
:102580003C817C81BC81FC81BC8202267E823D82B2
:102590001A487F210091FEF775FB18483946FEF76F
:1025A000CDFB164F3846214622462346FEF754FB04
:1025B0003846294632462346FEF74EFB01AE3046EA
:1025C000FEF71AFCF481B48174813481F480B48004
:1025D0007480B48275823582094D28460099FEF7D1
:1025E00051FB28463146FEF7A9FB08222846214622
:1025F0002346FEF731FB09B0F0BDC04600040140A0
:1026000000050140F0B585B06D462846FFF798FFFC
:102610000027039701240294019420200090114E7A
:1026200030462946FFF7C0FE2846FFF789FF03978B
:10263000029401948020009030462946FFF7B4FEB2
:102640002846FFF77DFF0494A003009001973046D1
:102650002946FFF7A9FE0E2130462246FEF70CFD63
:1026600005B0F0BD000D0140F0B5BFB00025284613
:1026700000F07EFB06AE304600F008FB44203552E9
:10268000212035546C203552A22035523046A230DC
:10269000032484773146213101270F714D71F7777B
:1026A000B58531466C310D813A02CA8075778D70DF
:1026B00005732D4A13920F3232803F22120100928D
:1026C00010323E921095079508950995274A159264
:1026D000FF2202329623F2528A23F5523346963372
:1026E0009A805A8032468A329580558032464832E6
:1026F00095804583CD818D8218951D4867210160A5
:102700001C482590304600F065F8284600F030FB64
:1027100001AD2846FFF714FF174E0421304622462C
:10272000FFF78AFE052130462246FFF785FE062187
:1027300030462246FFF780FE072130462246FFF74B
:102740007BFE082130462246FFF776FE09213046FF
:102750002246FFF771FE0098019002973046294605
:10276000FFF722FE3FB0F0BD710700000F000F0021
:10277000140E014001010100400D014070B584B00C
:1027800004200124214600F0A1FB01AD284600F001
:10279000E9FA03940294032601960020294600F0EA
:1027A0007BFA1020214600F091FB01AD284600F095
:1027B000D9FA0394029401960220294600F06CFA9B
:1027C00004B070BD0F208002014908607047C04608
:1027D00004170140F0B581B004460121880200F0E1
:1027E000AFFBFC48FC490160214620318A794B79D6
:1027F0009B0013430A79D2001A43CB781B01134381
:102800008A7852011A43E37F9B011343A27FD201CE
:102810001A434978090211432022A25C52020A435A
:10282000617F89021143227FD2020A43EB49CA67C2
:10283000A28E0A63E28E4A63228F8A63628FCA6322
:1028400022880A6462884A6425466035AA7CEB7C4B
:102850001B0113432A7D52011A436B7D9B011343D5
:10286000AA7D12021A43EB7D1B0313432A7E5203F7
:102870001A436B7E9B0313434B67A28F0A66E28F5A
:102880004A664022A25A8A66264640367288CA663E
:10289000034601462C3BFB4818602346A0339F7833
:1028A000DA7852003A431F7ABF0017435A7AD200AF
:1028B0003A439F7A3F011743DA7A52013A431F7B2A
:1028C000BF0117435A7BD2013A431F79BF02174316
:1028D0005A79D2023A439F793F031743DA79520378
:1028E0003A439F7BBF0317430A46403A1760DA7B9F
:1028F0001F7C7F0017435A7D92003A439F7DFF0063
:102900001743DA7D12013A431F7E7F0117435A7E37
:1029100092013A439F7EFF0117435A7C92023A4349
:102920009F7CFF021743DA7C12033A431F7D7F032B
:102930001743DA7E92033A430F46383F3A601A7FD4
:1029400012015F7F7F0117439A7F92013A43DF7F35
:10295000F80110432746C0377A7812020243B8784C
:102960004002104330390860B088C5498865F08856
:10297000C865C020205C0867387EFA7D520002439B
:10298000B87D800010437A7DD2000243387D00017B
:102990001043FA7C52010243B87C800110437A7CD8
:1029A000D2010243387C00021043FA7B52020243F8
:1029B000B87B800210437A7BD2020243387B00034B
:1029C0001043FA7A52030243B87A800310437A7AAA
:1029D000D2030243A949084628380260F8783A79B8
:1029E00052000243787980001043BA79D200024342
:1029F000F879000110433A7A52010243084624381C
:102A00000260307A727A5200024368788000104384
:102A10006022A25CD2000243707D00011043327D2F
:102A200052010243287B80011043228DD2010243D0
:102A3000B07A00021043F27A52020243E878800230
:102A40001043AA78D2020243F07D00031043B27D06
:102A500052030243687B80031043628DD20302431A
:102A600008460F4620380260307B727B52000243DA
:102A70006879800010432A79D2000243707E0001F9
:102A80001043327E52010243A87B80011043A28D85
:102A9000D2010243B07B00021043F27B5202024398
:102AA000E87980021043AA79D2020243F07E000343
:102AB0001043B27E52030243E87B80031043E28D51
:102AC000D203024308461C380260307C727C5200FC
:102AD0000243687A800010432A7AD2000243707F52
:102AE00000011043327F52010243287C80011043D1
:102AF000228ED2010243B07C00021043F27C5202CB
:102B00000243E87A80021043AA7AD2020243F07F9D
:102B100000031043B27F52030243687C80031043DA
:102B2000628ED2030243084618380260A0885449D6
:102B30000860E0884860208988606089C860A08952
:102B40000861E0894861208A8861608AC861A08A3A
:102B50000862E08A4862208B8862608BC8628020AD
:102B6000205CC000EA7F92000243A87E000110436F
:102B7000EA7E52010243264680367078C001104337
:102B80006A7F12020243A87F800210432A7FD20389
:102B90000243384610380260F0798000327AD20061
:102BA0000243B07800011043F27852010243707A78
:102BB000C0011043727912020243B07980021043BF
:102BC0003279D203024338460C380260F07AB27A86
:102BD000520005E0C00C0140ADDE0000000C0140D9
:102BE0000243707B80001043327BD2000243F07BB3
:102BF00000011043B27B52010243707C80011043FC
:102C0000327CD2010243F07C00021043B27C5202BB
:102C10000243707D80021043327DD2020243384667
:102C200008380260B07DF27D52000243307E8000A1
:102C30001043727ED2000243B07E00011043F27E48
:102C400052010243307F80011043727FD201024360
:102C5000B07F00021043F27F52020243A020205CAA
:102C6000800210435A78D2020243381F026005489E
:102C700008650548386001B0F0BDC046C00C014091
:102C8000000C0140FFFF0000FECA000080B5E421F7
:102C9000FDF7A8FA80BD0000F0B5A54AB24B13605D
:102CA0002E4B1D685C69032854D8C04678440079CF
:102CB00040008744012C0F1E4868002802D1284E8E
:102CC000012737700326B54328432025ED431C35E3
:102CD00002262AE04868002802D1214E01273770D9
:102CE0003026B543000128432025ED431035042646
:102CF0001BE04868002802D1194E01273770C02612
:102D0000B543800128432025ED4305260DE04868A2
:102D1000002802D1124E012737700C26B5438000DF
:102D200028432025ED43183503262C408D68B540F7
:102D300025430B4C2478641E6642664174000C6087
:102D4000710203242402A043081818605D6100206A
:102D50001060F0BD28462546EBE7C0461000004055
:102D6000E800002000210322026042608160704779
:102D70000C490D4A0A610A68002808D040231A430A
:102D80000A60486818434860002008617047402086
:102D9000C3431A400A604868184048600020086130
:102DA0007047C046B00C0140ADDE000080B5024661
:102DB0000121CB02002000F001F880BDB0B582B047
:102DC0001446002201920092009101900098002880
:102DD00046D0244D002B0BD13B4824E00098401EE8
:102DE00000900198001D0190241D0098002837D004
:102DF000019800F039F820602868C007EED12868F3
:102E0000C007EBD12868C007E8D12868C007F3D015
:102E1000E4E70099491E00910199091D0191241DC3
:102E2000009900291CD029461839019A0B680340E3
:102E30000B602B46143B1A602A460C3A12680B684A
:102E400003400B6022602968C907E2D12968C907DD
:102E5000DFD12968C907DCD12968C907F3D0D8E7D1
:102E600002B0B0BD1800020010B516490968491E2D
:102E70004A1E9141C902012252041368124C234098
:102E8000591811605060D06811682140116010BD60
:102E900010B50C490968491E4A1E9141CA02012118
:102EA00049040B68084C23409A180A6059221206FC
:102EB0004A604860C868952212064A600A68224043
:102EC0000A6010BDA0000040FFF7FFFF184A264B24
:102ED0001360184A002903D011680143116070473C
:102EE000116881431160704710B511491E4A0A608C
:102EF00010494A68104B13400468E203D2184A6034
:102F00000122012C01D0920200E092030B680B4CCD
:102F10001C4012190A60426883681B029A18CA652D
:102F2000C268CA6602694A674069886710BDC046C0
:102F3000A800004024000040FF7F0000FFBB00000D
:102F4000084A094BD360012905D11168014311607A
:102F50000020D06070471168814311600020D0606C
:102F60007047C0469C000040837A00000021012287
:102F7000FF230AC0026041608160C160016141615C
:102F800070470000F0B5C7B0079206910290002488
:102F90002046FFF7EDFE42AE3046FFF7D1FA09AD0D
:102FA0002846FFF773FE3F27380104904290012026
:102FB00008904390A9483146FFF7F6F9A8480699CA
:102FC000FDF7F8FA390600F009FE0146079803916B
:102FD00000F004FE0746294621312A46443228469D
:102FE0006C30069002982E46A236E03505950328EF
:102FF000079600D19FE0022851D000970128089F32
:1030000000D0E7E002910421944D28460192224627
:10301000FFF712FA102128462246FFF798FA0521F9
:1030200028462246FFF708FA202128462246FFF7C5
:103030008EFA062128462246FFF7FEF9402128464F
:103040003A46FFF784FA072103222846FFF7F4F9EE
:10305000082128462246FFF7EFF939022846224682
:10306000FFF775FA092128462246FFF7E5F97902AC
:1030700028462246FFF76BFA009D2846FDF74AFBDB
:1030800009AFF8800898C00745402846FDF742FB85
:10309000019A0299B880089F0C940B949AE00291CF
:1030A00004216E4D284601922246FFF7C5F91021F2
:1030B00028462246FFF74BFA052128462246FFF70D
:1030C000BBF9202128462246FFF741FA062128466F
:1030D0002246FFF7B1F940212846089E3246FFF705
:1030E00036FA072128462246FFF7A6F9802128460E
:1030F0002246FFF72CFA082103222846FFF79CF905
:10310000092128462246FFF797F9710228462246F0
:10311000FFF71DFA3846FDF7FDFA394609AF788109
:10312000F00741400846FDF7F5FA019A0299388107
:103130003746079E4CE002910421484D00972F46E8
:10314000284601922246FFF777F910212846089D6C
:103150002A46FFF7FCF9052138462246FFF76CF9AD
:10316000202138462246FFF7F2F90621384622464A
:10317000FFF762F9402138462246FFF7E8F90721B8
:1031800038462246FFF758F9802138462246FFF795
:10319000DEF9082103223846FFF74EF909213846A7
:1031A0002246FFF749F9690238462246FFF7CFF970
:1031B000009F3846FDF7AEFA394609AF7881E80737
:1031C00041400846FDF7A6FA019A029938812F4638
:1031D0000C940A940F714C710C20B0773D4609AFE6
:1031E000FD77BC857C770C7014803046069E348158
:1031F000B470348004800473049910310598016020
:103200000398FDF787FA38802802F0801549189155
:1032100013941694FF2102319622B9528A22BC528D
:103220003A4696329180518039468A318C804C8062
:10323000394648318C80F48107994C83B0820A4822
:1032400030611B940948672101603846FFF7C2FAD4
:103250002846FFF78DFD47B0F0BDC046400D014048
:10326000001BB74C0F000F0001010100140E0140BC
:1032700081B000210091009981421BD200BF0099CA
:10328000491C00910099814214D200BF0099491C49
:103290000091009981420DD200BF0099491C009114
:1032A0000099814206D200BF0099491C0091009903
:1032B0008142E3D301B0704780B59948411C821C1C
:1032C0009F4B14339B48FDF7B9FD012000042F49A3
:1032D0000A6882430A6080BD81B08E488E490160D1
:1032E0000121CA0313490A6000220092009B632B4C
:1032F0001BD800BF009B5B1C0093009B632B14D862
:1033000000BF009B5B1C0093009B632B0DD800BF8C
:10331000009B5B1C0093009B632B06D800BF009BA7
:103320005B1C0093009B642BE3D3034BCB650260D3
:1033300001B0704724000040FF01000070B5002874
:1033400021D00021104A114B114C0D4606E00026F9
:103350001E609E606D1CAEB2B04214D95C60052642
:103360001E6099601E681640012EF0D11E6816403E
:10337000012EECD11E681640012EE8D11E681640C1
:10338000012EEFD0E3E770BD0100010010E000E086
:103390000077010082B072B65E485F490160FDF7B8
:1033A00037FDFFF70FFAFFF72DF9FFF75DF9FFF78C
:1033B000DBF8FFF7E3F96420FFF75AFF0025574ECB
:1033C000574C00213046FDF761FCE1680818E060C9
:1033D00001213046FDF75AFC216908182061691C5B
:1033E0003F2D0D46EDD380112061E0688011E06033
:1033F00001254C494C4A2846FFF7C4FD9620019010
:10340000FFF79CFF30462946FDF740FC1027E15F9F
:10341000401A206302204349434AFFF7B3FD019855
:10342000FFF78CFF304600952946FDF72FFCE15F42
:10343000401A606303203B493B4AFFF7A3FD019814
:10344000FFF77CFF002530462946FDF71FFC0C21C5
:10345000615E401AA0632846FFF78AFC1920060126
:10346000206B002845D4606B002848D4A06B00284E
:103470004BD4C820FFF762FF2C492B4A009F3846E7
:10348000FFF780FD3046FFF759FF03202849264A01
:10349000FFF778FD3046FFF751FFFFF7E5F86420AE
:1034A000FFF7E6FEE56025616561224C2046143099
:1034B000FFF77CFC2846FFF75BFCFF2001041E4A57
:1034C00053688B43B90559185160116881431160E5
:1034D000B8031A490860903E0E6062B62846FFF7AE
:1034E00047FC25601648056116488021FFF724F83F
:1034F000FEE73046FFF722FF606B0028B6D5304666
:10350000FFF71CFFA06B0028B3D53046FFF716FF6E
:10351000AFE7C046A8000040837A000000040140E5
:103520006000002000C0C9448FC2753D00A0F04477
:1035300000B01A45D000002008E400E000E100E0FF
:10354000B0000020000D014010B50721024A002004
:103550000907FDF711F910BD01030000034A10B57A
:1035600000201107FDF708F910BD000001FDFFFF65
:1035700010B5072061210007FDF72EF910BD5E216F
:1035800010B5C9430807FDF727F910BD10B500F0C5
:10359000F3F9EFF30080800001D5012010BD002079
:1035A00010BD10B500F01AFAEFF30080800001D4CE
:1035B000012010BD002010BD10B500F0BBFAEFF3E4
:1035C0000080800001D5012010BD002010BD10B585
:1035D00000F0DAFAEFF30080800001D4012010BD82
:1035E000002010BDF8B54A002B4B520DD6182B4ABF
:1035F0000C460546142E2BDA002E12DA284BFCF767
:1036000073FF0022134600F01BFA40D2002C03DAAD
:103610000124E40700253AE02046284337D0214C16
:1036200014E0214F0B46F7403B402B4331D01C4B5D
:10363000FCF75AFF0022134600F002FA27D2002CB2
:1036400003DD01200005F0400419BC4300251EE005
:10365000332E1EDC33460027143BFF43DF40384245
:1036600017D00F4BFCF758FF0022134600F0E8F983
:103670000DD2002C0ADD142E0CD03420811B012029
:1036800088404019A84200D2641C0546BD4321462B
:103690002846F8BD641CF9E701FCFFFF9C75008813
:1036A0003CE4377E0000F03FFFFF0F00F8B541001B
:1036B0000D0E7F3D0446172D27DAFF273F061349DD
:1036C000002D0FDA00F0F0F94100B9421CD80028B3
:1036D0001ADD002C01DAFC0116E0002C14D07F2446
:1036E000E40511E00A4EEE4030420ED000F0DCF965
:1036F0004100B94208D8002806DD002C03DD012076
:10370000C005E8400419B4432046F8BDCAF2497127
:10371000FFFF7F00F8B54A002B4B520DD6182B4AFD
:103720000C460546142E2BDA002E12DA284BFCF735
:10373000DBFE0022134600F083F940D2002C02DBAE
:10374000002425463BE060004008284337D0214C48
:1037500014E0214F0B46F7403B402B4331D01C4B2C
:10376000FCF7C2FE0022134600F06AF927D2002CB3
:1037700003DA01200005F0400419BC4300251EE0D7
:10378000332E1EDC33460027143BFF43DF40384214
:1037900017D00F4BFCF7C0FE0022134600F050F983
:1037A0000DD2002C0ADA142E0CD03420811B0120FB
:1037B00088404019A84200D2641C0546BD432146FA
:1037C0002846F8BD641CF9E701FCFFFF9C750088E2
:1037D0003CE4377E0000F0BFFFFF0F00F8B541006A
:1037E0000D0E7F3D0446172D28DAFF273F061449AA
:1037F000002D10DA00F058F94100B9421DD8002818
:103800001BDD002C01DB002417E00120C0078442EF
:1038100013D00C4C11E00C4EEE4030420ED000F0B4
:1038200043F94100B94208D8002806DD002C03DA2C
:103830000120C005E8400419B4432046F8BD00004B
:10384000CAF24971000080BFFFFF7F0070B50546D6
:10385000080DC04316460C4640052CD000221346E6
:10386000284600F057F826D0324628462146FCF775
:1038700083FF0546080DC0430C46400510D00022CA
:103880001346284600F046F815D10220FCF76DFFDC
:10389000FFF764FE49004908E20FD207114370BDEB
:1038A0000220FCF762FFFFF74FFE49004908E20FD4
:1038B000D207114370BD2846214670BDC20DD243C8
:1038C0001206120E24D0420022D010B5FCF784FF5D
:1038D0000446C00DC0430006000E03D060000CD0AB
:1038E000204610BD0220FCF740FFFFF741FE4000DC
:1038F0004008E10FC907084310BD0220FCF735FF5F
:10390000FFF73DFE40004008E10FC907084310BD26
:103910007047000070B501252D050C001C4310D424
:10392000EC4206D4AC420AD4994200D070BD904219
:1039300070BDE94217D4EB4215D4994270BD89425B
:1039400070BDEC4206D5AC42F9D58B4200D070BDBB
:10395000824270BD6D004C00EC4204D25C00EC422F
:1039600001D28B4270BD034C30B4FCF75BFF30BC1E
:1039700070BD00BF1900120470B501252D050C00A3
:103980001C4310D4EC4206D4AC420AD4994200D075
:1039900070BD904270BDE94217D4EB4215D49942F4
:1039A00070BD894270BDEC4206D5AC42F9D58B4260
:1039B00000D070BD824270BD6D004C00EC4204D25C
:1039C0005C00EC4201D28B4270BD034C30B4FCF77A
:1039D00029FF30BC70BD00BF1900130470B501256C
:1039E0002D050C001C4310D4EC4206D4AC420AD482
:1039F000994200D070BD904270BDE94217D4EB42AD
:103A000015D4994270BD894270BDEC4206D5AC42D6
:103A1000F9D58B4200D070BD824270BD6D004C0064
:103A2000EC4204D25C00EC4201D28B4270BD034CEC
:103A300030B4FCF7F7FE30BC70BD00BF19001604AF
:103A400070B501252D051C000C4310D4EC4206D4A2
:103A5000AC420AD48B4200D070BD824270BDEB42B2
:103A600017D4E94215D48B4270BD9B4270BDEC4225
:103A700006D5AC42F9D5994200D070BD904270BDD8
:103A80006D005C00EC4204D24C00EC4201D2994241
:103A900070BD0FB40CBC03BC024C30B4FCF7C2FECA
:103AA00030BC70BD1900160470B50125ED07040087
:103AB0004C4020D4441A01D2001B0919C60D4B00FA
:103AC000F2B2FF2A29D01B0E2CD000020C02284390
:103AD0002C43D31ADC40051910D2280A02D3401C0B
:103AE0006D0611D0761EF6058019FF2A00DA70BD2A
:103AF000C00DC00570BD694000F0CEF8012005433F
:103B0000C541521C761CE8E764089C40C90161402D
:103B10008900E7D10124A043E4E71B0E440200D052
:103B2000034870BD002AFCD1C00FC00770BD00BFA4
:103B30000000C07F0123DB0502000A430DD4DA42F6
:103B400003D49A4207D488427047D84214D4D94249
:103B500012D48842704780427047DA4203D59A42B5
:103B6000F9D5814270475B004200DA4204D24A0034
:103B7000DA4201D28142704710B5024AFCF7A2FE38
:103B800010BD00BF090013040123DB0502000A4336
:103B90000DD4DA4203D49A4207D488427047D842FF
:103BA00014D4D94212D48842704780427047DA4216
:103BB00003D59A42F9D5814270475B004200DA4250
:103BC00004D24A00DA4201D28142704710B5024A5B
:103BD000FCF778FE10BD00BF0900160470B5420066
:103BE00064414B005C41120E39D01B0E38D0FF2AC5
:103BF0003CD0FF2B3AD0D2187F3A40024902400A0B
:103C0000490A4518ED0106004E43000A090A4843D7
:103C10000104731A4019190C4318990F04D05B085A
:103C2000012149075B1A521CD80904D3401CF50333
:103C300001D19D0607D0FF2A08D2D50506D0E4079A
:103C40002043401970BD0125A843F4E7002A01DC98
:103C5000E00770BD2402FF202043C00570BD1B0E8D
:103C6000FF2A03D0FF2B01D0E00770BDFF263606E8
:103C70004500B54206D84D00B54203D8D218FF2AF8
:103C800000D0E7E7004870BD0000C07F70B5012597
:103C9000ED0704004C4022D4441A02D26C40001BB1
:103CA0000919C60D4B00F2B2FF2A4BD01B0E50D0A3
:103CB00000020C02A8432C43D31ADC40051B05D597
:103CC000AD0019D36D08761E521E37D0F605280AAE
:103CD00001D2801970BD70416D0603D070BD69407E
:103CE000FFF7E8FE9C4009026140490001D0401EF8
:103CF00070BD0124A04370BD6D081DD001202B0CA8
:103D000001D12D0410302B0E01D12D0208302B0FC4
:103D100001D12D01001DAB0F01D1AD00801CEB0FB7
:103D200001D16D00401C361A121A6D00680AF505A3
:103D30004019012A02DB70BD002070BDC036300A78
:103D4000C00770BD1B0E440201D1FF2B00D10248F9
:103D500070BD002AF0D070BD0000C07F81828384D6
:103D600085868788898B8C8D8E8F91929395969777
:103D7000999A9C9D9FA0A2A3A5A7A8AAACAEB0B2F9
:103D8000B3B5B7B9BCBEC0C2C5C7C9CCCED1D4D7F4
:103D9000D9DCDFE2E6E9ECF0F3F7FAFE000093018C
:103DA0002603B8044B06DD076F09010B920C230EA6
:103DB000B30F4211D1125F14ED1579170519901A3E
:103DC000191CA21D291FAF203422B8233A25BB2677
:103DD0003A28B829342BAE2C272E9E2F1331863249
:103DE000F7336635D3363E38A7390E3B723CD43DA7
:103DF000343F9140EB4143439944EC453C4789486B
:103E0000D4491B4B604CA24DE14E1D5055518B5275
:103E1000BD53EC541856405765588759A55AC05B96
:103E2000D75CEB5DFB5E07600F6114621563126483
:103E30000C650166F266E067C968AE69906A6D6BF1
:103E4000466C1B6DEB6DB76E7F6F43700271BD7179
:103E500074722673D4737D742275C2755E76F5769E
:103E6000877715789E782279A2791D7A947A057BD6
:103E7000727BDA7B3E7C9C7CF67C4B7D9A7DE67D7A
:103E80002C7E6D7EAA7EE17E147F427F6A7F8E7FCC
:103E9000AD7FC77FDC7FEC7FF77FFE7FFF7FFB7FFF
:103EA000F27FE57FD27FBB7F9E7F7D7F577F2B7F19
:103EB000FB7EC67E8C7E4D7E097EC17D737D217D1D
:103EC000C97C6D7C0D7CA77B3C7BCD7A597AE079EF
:103ED0006379E1785A78CF773E77AA761076727553
:103EE000D07429747E73CE7219726171A370E26FFF
:103EF0001C6F526E836DB16CDA6BFF6A206A3C698D
:103F0000556869677A6687658F6494639562926184
:103F10008C60815F735E615D4C5C335B175AF75850
:103F2000D357AD56825555542453F051B9507F4F55
:103F3000424E014DBE4B784A2F49E34794464345D4
:103F4000EE4398423E41E23F843E233DC03B5B3A14
:103F5000F33889371D36AF343F33CC315830E22E39
:103F60006B2DF12B762AF9287A27FA257924F62267
:103F70007221EC1F651EDE1C541BCA193F18B316B4
:103F8000261598130A127B10EB0E5A0DC90B380A2E
:103F9000A60814078205EF035C02C90037FFA4FDE1
:103FA00011FC7EFAECF85AF7C8F537F4A6F215F1D1
:103FB00085EFF6ED68ECDAEA4DE9C1E736E6ACE408
:103FC00022E39BE114E08EDE0ADD87DB06DA86D889
:103FD00007D78AD50FD495D21ED1A8CF34CEC1CC65
:103FE00051CBE3C977C80DC7A5C540C4DDC27CC1AC
:103FF0001EC0C2BE68BD12BCBDBA6CB91DB8D1B678
:1040000088B542B4FFB2BEB181B047AF10AEDCACF0
:10401000ABAB7EAA53A92DA809A7E9A5CDA4B4A34B
:104020009FA28DA17FA0749F6E9E6B9D6C9C719BC7
:10403000799A86999798AB97C496E09501952694BE
:104040004F937D92AE91E4901E905D8F9F8EE78D91
:10405000328D828CD78B308B8E8AF0895689C288BC
:104060003188A6871F879D862086A7853385C484CF
:104070005984F38393833783DF828D823F82F78174
:10408000B38174813A810581D580A9808380628063
:1040900045802E801B800E80058001800280098073
:1040A000148024803980538072809680BE80EC809A
:1040B0001F8156819381D4811A826682B5820A83D8
:1040C0006483C28326848E84FB846C85E3855E864C
:1040D000DE866287EB8779880B89A2893E8ADE8A31
:1040E000838B2C8CDA8C8C8D438EFE8EBD8F8190D1
:1040F00049911592E592BA93939470955296379799
:1041000020980E99FF99F49AEE9BEB9CEC9DF19E02
:10411000F99F05A115A229A340A45BA579A69BA799
:10412000C0A8E8A914AB43AC75ADABAEE3AF1FB10B
:104130005EB2A0B3E5B42CB677B7C4B814BA67BB07
:10414000BDBC15BE6FBFCCC02CC28EC3F2C459C655
:10415000C2C72DC99ACA09CC7ACDEDCE62D0D9D1C9
:1041600052D3CCD448D6C6D745D9C6DA48DCCCDD44
:1041700051DFD7E05EE2E7E370E5FBE687E813EAAC
:10418000A1EB2FEDBEEE4DF0DDF16EF3FFF491F6F5
:1041900023F8B5F948FBDAFC6DFE00000000400092
:1041A0008000C100010141018101C20102024202FD
:1041B0008202C202020343038303C30303044304D2
:1041C0008304C304020542058205C20501064106B7
:1041D0008106C00600073F077F07BE07FD073D08B1
:1041E0007C08BB08FA0839097809B709F509340AC7
:1041F000730AB10AEF0A2E0B6C0BAA0BE80B260C04
:10420000640CA20CE00C1E0D5B0D980DD60D130E68
:10421000500E8D0ECA0E070F440F800FBD0FF90F01
:1042200036107210AE10EA10251161119D11D811CF
:1042300013124F128A12C51200133A137513AF13DB
:10424000E91324145E149814D1140B1544157E152B
:10425000B715F015291662169A16D3160B174317C1
:104260007B17B317EB1723185A189218C91800199F
:1042700037196D19A419DA19101A471A7D1AB21ACA
:10428000E81A1D1B531B881BBD1BF21B261C5B1C45
:104290008F1CC31CF81C2B1D5F1D931DC61DF91D13
:1042A0002C1E5F1E921EC51EF71E291F5B1F8D1F31
:1042B000BF1FF11F222054208520B620E6201721A1
:1042C00048217821A821D821082237226722962266
:1042D000C522F422232352238023AF23DD230B2482
:1042E000392467249424C124EF241C2549257525ED
:1042F000A225CE25FA25272652267E26AA26D526B1
:1043000001272C2757278127AC27D72701282B28BF
:1043100055287F28A928D228FC2825294E29772925
:10432000A029C829F129192A412A692A912AB92ADA
:10433000E02A082B2F2B562B7D2BA42BCA2BF12BDD
:10434000172C3E2C642C8A2CAF2CD52CFA2C202D2B
:10435000452D6A2D8F2DB42DD82DFD2D212E452EC6
:10436000692E8D2EB12ED52EF82E1C2F3F2F622FA9
:10437000852FA82FCA2FED2F0F30313054307630D3
:104380009830B930DB30FC301E313F316031813143
:10439000A231C231E331033224324432AC43000053
:0C43A00000000020D807000020010000F1
:04000005000000C136
:00000001FF
