:020000040000FA
:10000000F8070020810100008F010000910100002D
:1000100000000000000000000000000000000000E0
:10002000000000000000000000000000930100003C
:100030000000000000000000950100007533000082
:100040009901000099010000990100009901000048
:100050009901000099010000990100009901000038
:100060003922000099010000990100009901000067
:1000700099010000990100005D0A0000990100004B
:100080009901000099010000990100009901000008
:1000900099010000990100009901000099010000F8
:1000A00099010000000000000000000000000000B6
:1000B0000000000000000000000000000000000040
:1000C00000F002F800F04CF812A030C808382418EC
:1000D0002D18AC4201D100F043F80FCCA246AB463C
:1000E0000CA730CF2D1B083F3F197C427F1E544484
:1000F0002D090426F441641EAC4201D300F030F80F
:100100000126334200D0FB1A3343984754465D46DC
:10011000DFE70000B4470000D4470000103A02D3E4
:1001200078C878C1FAD8520701D330C830C101D598
:1001300004680C6070470000704700000023002432
:1001400000250026103A01D378C1FBD8520700D30E
:1001500030C100D50B6070471FB51FBD10B510BD75
:1001600000F0F4FB1146FFF7F7FF03F009FA00F087
:100170000CFC03B4FFF7F2FF03BC00F067FC0000C7
:10018000094880F308880948804709480047FEE786
:10019000FEE7FEE7FEE7FEE7FEE70000054806494A
:1001A000064A074B70470000F8070020A133000003
:1001B000C1000000F8010020F8070020F80300202B
:1001C000F803002001E004C0091F0429FBD28B07BB
:1001D00001D50280801CC90700D002707047002939
:1001E0000BD0C30702D00270401C491E022904D361
:1001F000830702D50280801C891EE3E70022EEE718
:100200000022DFE77047704770470000F0B50C46EA
:10021000871A9C410D46861A9D4103D2C01BA141FD
:10022000D21963410D0D1F0DC94EEC1BAE435CD0BE
:100230007F057F0D0026002F51D02D05AC46A94328
:10024000DD020123ED0A1B051D4320231B1B24D4C3
:100250001746E740381871412F46E740CC199D40BA
:100260002818314661410C0D27D161449A4013D5BD
:100270000023401C594152000ED140084000012289
:100280004B005205D34207D305204007C14201D598
:10029000B04900E0B0493046F0BD6B00002A00D004
:1002A00001229A181F23203C1B1B01D5002302E0CA
:1002B000E540281871410C0DD7D0012424050919F7
:1002C000C407CD0740084908E40F28436144002CC7
:1002D000D5D00024401C61419A40D0D1CDE76A05B9
:1002E000520DD9D1C90FC907D5E79C4D4E00002842
:1002F00001D0012400E0002434195F00002A01D05D
:10030000012600E00026BE19954FAC420CD8AE4243
:100310000AD8B44206D001256D05EC42BCD0104687
:100320001946F0BD9942FCD000203946F0BDF0B529
:100330001FB40C460F46811A9F412546861A9D41DF
:1003400006D20125ED076F40401ABC4152187B418F
:10035000210D1E0D8D1BAC467D4D8D437ED0750548
:100360006D0D7CD00D05AE46AC431B031B0B794DC8
:1003700052429D41202366469B1B14D31746F740EB
:10038000381800260090744160462F460741E41952
:1003900000989D402818664116D4714671189A40FD
:1003A00025D5012320E093182A466A415200002BEC
:1003B00000D0521C1E23203E9B1B002B61DD3541CB
:1003C000EE1728186641E8D5001876415B1C9A4064
:1003D00000D3401C4B05F3181524E34010D3002B29
:1003E00052D071467118D30FC01802D3491C05B002
:1003F000F0BD0123DB079A42F9D140084000F6E73F
:1004000001225205B21801D1002853D00123CC0A91
:10041000DB029943891E002A08D1020C03D0020C8A
:100420000004103902E00246002020390023550B59
:1004300005D112020823550B01D152010D23550C91
:1004400001D112011B1DD50C01D192009B1C150D71
:1004500001D152005B1C2025EE1A01E02CE022E0C5
:100460000546F54015439840CA1AE1076918130577
:10047000C918002ABBDA032040070818C10FC907B2
:100480000FE071466118B2E7F107400808437110A8
:1004900071444A000CD001235B059A42A7D2C90FD0
:1004A000C9070020A3E74905490D26D1002001E036
:1004B0000028F4D100219AE7284D6600002801D0D9
:1004C000012100E0002171185F00002A01D00126FF
:1004D00000E00026BE19224FA94210D8AE420ED825
:1004E000B14208D001256D05E94206D01946A8029F
:1004F000414010467BE79C4201D0214677E700202F
:10050000394674E710B50C465C4005D50124E40774
:100510006340FFF70CFF10BDFFF778FE10BD30B44D
:100520000C465C4004D50124E407634030BC6DE612
:1005300030BCFCE670B50124E40761400D465D4027
:1005400002D4FFF763FE70BD6340FFF7F0FE70BD9D
:10055000FF0700000000F0FF0000F07F0000E0FF58
:100560000000F87F30B50346CA02400D1043164D17
:10057000164C0A1502D02043002A06DBAA1A002ACC
:1005800012DDD040FF2A0BDC30BD5205520D01D1E7
:1005900040004008AA1A07D4D0404042FF2A01DD9B
:1005A000002030BD0028FCDD4A00002B01D00120D6
:1005B00000E00020101801225205D042F0D8C817E0
:1005C000C043604030BD00001E04000000000080F9
:1005D000F0B5FF252D04C609C209FF2704462E40A9
:1005E0000137CB093E4348402A402B400746002AAA
:1005F0006BD0002B69D0AA4267D0AB4265D00028EF
:1006000000DA32460125ED0529432C430902200278
:10061000090AD21A4B0C7F24E31A434C000A7C448B
:10062000E35C7D242404121914145B00A218884290
:1006300001D3521C00E0400049420C465C432411A7
:100640005C43DB016415E318040A5C43C502200D1A
:100650000C4644436419250A5D432303EC0C0D4604
:10066000654300030019EB184C42A34201D35B1809
:10067000401CD4052018002B07D05B00C91804D3F8
:10068000401C002901D1400840003F2189048A42D2
:1006900009D3002A08DC1106090F04D003214907F9
:1006A0004018C00FC007F0BD012241001206891892
:1006B0007F2252069142F6D205214907C84201D550
:1006C0009010F0BDFF20C005F0BD002F00DA3246CB
:1006D0001648AA4207D2AB4205D21902090E17D01A
:1006E000F80FC007F0BDFF2563002D06AB42F9D817
:1006F0004900A942F6D8AB4201D1A942F2D0A942A1
:1007000001D1002101E061004908D0050843F0BD96
:100710001102090EFBD0FF200243D005F0BD0A46AE
:100720000146104654E70000563C00000000C07F20
:1007300010B501469E240002CA15A307002A02D064
:100740001843002A04DBA21A002A0CDDD04010BD99
:100750001206120E01D140004008A21A03D4D04064
:1007600040420028F3DDFF2248001206904201D9E2
:10077000002010BDC817C043584010BD10B500F090
:100780005BF8006810BD10B5044600F055F8046031
:1007900010BD000070B505464800440D124B002006
:1007A000002C0AD0634008D09A4206DA6642B24270
:1007B00003DD12054019514170BD002C08D0002BFB
:1007C00009D0C90FC907002AF6DB084A114370BDDA
:1007D000C90FC90770BD28460A03104302D0002084
:1007E000034970BD284670BDFF0700000000F07F80
:1007F0000000F87F10B5FF22C30D134009D05A4006
:1008000007D0914205DA5C42A14202DDC905081811
:1008100010BDC40FE407002B06D0002A06D0002923
:1008200002DBFF20C0050443204610BD4102FCD07E
:10083000004810BD0000C07F00487047080000203D
:10084000F8B5264C4E00069DA6420AD8A64201D114
:10085000002806D15E00A64203D8A6420AD1002A8B
:1008600008D00D242404254233D02946002000F06E
:1008700094F8F8BD0C461C4311D4994207D0C81A0D
:1008800002D3EFF30080F8BDEFF30080F8BD801ACB
:1008900002D3EFF30080F8BDEFF30080F8BD092428
:1008A0002407E5008B4207D0581A02D3EFF30080EB
:1008B00006E0EFF3008007E0101A03D3EFF30080A7
:1008C000A04303E0EFF30080A043284380F30088B7
:1008D000F8BD009500F078F8F8BD00000000E0FFDA
:1008E00010B5FF231B0644009C421DD84C009C42BF
:1008F0001AD80346124A0B4307D4401A02D3EFF327
:10090000008010BDEFF3008010BD081A03D3EFF391
:100910000080904305E0EFF3008001219043C90778
:10092000084380F3008810BD0D231B041A4204D035
:100930001146002000F031F810BD00F04FF810BD56
:100940000000009000487047080000207546FFF73F
:10095000F9FFAE46050069465346C008C00085460B
:1009600018B020B5FFF71AFC60BCB6460026002779
:10097000C0C5C0C5C0C5C0C5C0C5C0C5C0C5C0C54F
:10098000403D490849008D46704710B50446C046B1
:10099000C0462046FFF7EDFB10BDC80212D5480344
:1009A000400F002804D0C803C0430121884070478D
:1009B000EFF300800001000903210907084380F3D9
:1009C000008870470020704710B500200249029A45
:1009D00000F00CF810BD00000000F87F10B50248D0
:1009E00000F004F810BD00000000C07F10B50C46F8
:1009F0001107090F092904D00A290AD008290CD1A6
:100A000004E011460820FFF7C8FF06E0510606D5AE
:100A100001E0510601D50120C007214610BDD106D5
:100A200007D501010909CC084907000E0006044357
:100A300009E0410F20024907000A0143200E000689
:100A40001D22D14101430846E7E700000149182073
:100A5000ABBEFEE72600020070470000F0B581B093
:100A6000614C0121204600F03AF9002800D1B8E09D
:100A70005E48202101F0D2FC02205D4D285E5D4ED3
:100A80003F281FDC0027384602F026F93046394659
:100A900000F0D8F86969081868612046394600F006
:100AA000D1F8E9680818E8600121204600F0CAF88A
:100AB0002969081828616888401C688000B24128AC
:100AC00013DA86E0402810D14120688068698011DF
:100AD0006861E8688011E86028698011286100F089
:100AE0000DFC688800B2412873DB00273046394688
:100AF00000F0A8F8A8612046394600F0A3F8E9689C
:100B0000401AE8610121204600F09CF8AA69E969D1
:100B1000394FFA60394A914200DC1146384B99420C
:100B200000DB1946E9612C69001B904200DC10468D
:100B3000984200DB18462862324E327D002A0B466E
:100B400000D00346BB60002A024600D00A46401887
:100B5000404268623A60786000F052FE2A4C208879
:100B600001280CD10026304602F0B6F828783882E9
:100B700080211E483246234E01F059FC0BE02978B3
:100B80006878C0B20843411E884102F0A5F8287871
:100B9000388268787882367DE2886088002E114637
:100BA00000D001464B429FB2184B1F608FB25F606E
:100BB000A4886742BFB29F60DC60002E00D0104660
:100BC000424292B21A61EC80A980288180B25861B9
:100BD000054C0121204600F031F82021034801F0A6
:100BE0001BFC01B0F0BDC04600040140000D0140F7
:100BF0006800002000050140B00000200180FFFFD8
:100C0000FF7F0000F8000020A0000020000C014041
:100C100010B5012B04D101238B40446E1C43446664
:100C20008B071B0F0F249C400907890F8900401870
:100C3000016DA1439A400A43026510BD9422815080
:100C4000704700000F2947D87944097949008F443B
:100C500008071F27132F372B3F1B3B0F17330B237F
:100C6000001D006800B270473830006800B270475D
:100C70002C30006800B270471030006800B2704736
:100C80003030006800B270472430006800B270470E
:100C90000830006800B270473C30006800B270470E
:100CA0000C30006800B270471C30006800B270471A
:100CB0001430006800B270473430006800B27047EA
:100CC0001830006800B270472830006800B27047E2
:100CD0002030006800B27047002000B27047024622
:100CE000903252689023C0580A400240501E824100
:100CF00010467047B0B50C4605460120014602F08B
:100D00001BF920886188014390202950E08A000265
:100D1000A18A09010143608A08432866208AA867DE
:100D2000A0880003E188890201432089000208436A
:100D3000618909010143A089C0000843E189014399
:100D40006967608BC4216850C435A08B6860E08BF4
:100D5000A860A1204401204602F0D0F8124D28607E
:100D6000201D02F0CBF868602046083002F0C6F87B
:100D7000A86020460C3002F0C1F8E8602046103030
:100D800002F0BCF8094D28602046143002F0B6F895
:100D900068602046183002F0B1F8A8601C34204684
:100DA00002F0ACF8E860B0BD80040140800501406D
:100DB00010B504461221FFF721FA002020830120FC
:100DC000E082A082608210BD10B588B06C462046DB
:100DD00002F004F901200290002000900390FF210E
:100DE00001910490059006900790204602F0B2F819
:100DF00008B010BDB0B5194A012313600024046087
:100E00000C7A8460CC68C4600C6904614C694460ED
:100E10004C78A4028D782D022543CC78A4012C4374
:100E20000D792D0125434C79E4002C438D796D001B
:100E30002543CC792C430460097800290BD008495C
:100E400040180521C841032805D8800005A108588D
:100E50005168014351601360B0BDC046801201402B
:100E600000EEFEBF010000000200000004000000D0
:100E7000080000000021016041608160C1600161E3
:100E800041617047B0B50468651C05604468A542BF
:100E900004D9046000240C7014701C6012490B68A3
:100EA0001422D31A048AA34216D1837C5B1CDBB2C2
:100EB000FA2B1C4600D3FA2484740C68141B048299
:100EC0000C68022B07D30B46083B1C680125AC437A
:100ED0001C60C5740A60B0BD002383740B68D21A0D
:100EE00002820868B0BDC04608120140F0B585B066
:100EF0000293019203910490C07C012800D088E005
:100F00000498048A102C7CD32546103DE8B2844214
:100F10001FD9002158480E46EAB25200825A17469D
:100F20005A3F01233C2F1F4605D9B43A792A06D2ED
:100F3000022B07D165E00F46B43A792AF8D37B003B
:100F4000022B5ED07200D6186D1CEAB29442E3D830
:100F500000E00026300A320B424072403004010D9E
:100F60004A4010074DD1002404980460012529400F
:100F7000C181B1B24E090681480A03280CD3012170
:100F80000398017000210198017004980689B0004F
:100F90003A4941180298016004984089864212D16A
:100FA00004988089401C80B235498842024600D3AB
:100FB0000A4604998A8107280DD32246049846815F
:100FC000242E0DD913E0049884812A460498468182
:100FD000242E05D90BE0012204984681242E06D840
:100FE00003980078002800D11546002D13D00498EE
:100FF0000089002805D103980470019804700298B4
:10100000046000210498C1741E48016801220A434B
:10101000026005B0F0BDF01F0E28E8D878440079D2
:101020004000874408170707070E07071E07070732
:1010300007261300DBE704980475204601F0DAFF69
:10104000D5E70498007D01F0D5FFD0E70121049891
:101050000175CCE7012504980575284601F0CAFF03
:10106000C5E703980470012101980170029804609B
:10107000BDE704980475BAE7D00000200809000015
:1010800060EA00000012014010B5244A904223D0CB
:10109000234B98420FD0234A90421CD110291AD2D8
:1010A00088B2224AC240D00715D0880020A1085833
:1010B0001D49086010BD0123002907D00A2903D06B
:1010C000012906D15B0202E09B0200E01B02164CE4
:1010D0002360904200D010BDCA1E0C2AFBD801210B
:1010E000C802C0467A44127952009744080706069F
:1010F0000B060606060F06061300ECE708030A496E
:10110000086010BD48030849086010BD88030649FF
:10111000086010BDC8030449086010BD800D01407F
:10112000400D0140000D01400C0E01404FC8000071
:1011300001000000020000000400000008000000A0
:10114000010000000100000010000000010000008C
:10115000010000000100000001000000200000006C
:1011600001000000010000004000000080000000BD
:1011700002460020384B9A4225D0384B9A4218D06C
:10118000374B9A4200D065E00F2900D962E0C04693
:101190007944097949008F44074451555D5D595D93
:1011A0005D5D5D405D5D484C2E4801680120084052
:1011B00070470A291DD0012917D000294AD1294892
:1011C0000068C00545E0C91E0C2943D87944097957
:1011D00049008F4406163F3F123F3F3F3F1A3F3FB3
:1011E0001E0020480068000533E01E4800688005A6
:1011F0002FE01C48006840052BE01A480068800476
:1012000027E018480068C00423E01648006840043E
:101210001FE01448006800041BE0124800688006C4
:1012200017E010480068800713E00E480068400689
:101230000FE00C480068C0B2C00970470948006858
:10124000400706E007480068000702E0054800681C
:10125000C006C00F7047C046800D0140400D0140E0
:10126000000D01400C0E0140F0B581B000911B490A
:101270001B4B0B601B4B8B62012674041A4B1D68C1
:101280001A4F1B4A1B49954210D10D4610351F6855
:101290006F403D6815490D4016493D6060603868F3
:1012A000009D2843F50705433D60104F1868104D19
:1012B000A84208D1186848400F49016020683840AA
:1012C00020600020186020683840206000201860EE
:1012D00002498862086001B0F0BDC046A800004025
:1012E000837A0000CA8F000010010020FF77FF7F83
:1012F0001F360D9A0F360F9ABADC5476F0B583B0CC
:10130000D220F24A01251554C820F1491152FF207C
:101310000230D02150527D20C0009061ED48EE494E
:101320000F2202F021FD0A2202F01EFD06460C46A5
:10133000E8070F46029087430022E84B30463946C3
:10134000009202F0B1FB002811D10025E44B304699
:1013500039462A4602F0B3FB00280DD10022E04BAB
:1013600030462146FFF7CEF802F062FC01E030463D
:101370002146FFF7F7F805469C20D44F3D52D94847
:101380000A2102F029FD06460446029884434B20B8
:1013900001062046019102F09DFB002809D13F2063
:1013A00005062046294602F0A0FB002803D00020B5
:1013B00009E0304605E03046294602F003FE02F01F
:1013C0009BFCFFF7B5F9AE217852F748072102F0F0
:1013D00003FD06460446029884432046019902F024
:1013E00079FB00280FD13F2005062046294602F050
:1013F0007CFB0028009809D13046294602F0E2FD26
:1014000002F07AFC00E03046FFF792F9B021785202
:10141000E648E7490F2202F0A7FC06460D460C46B7
:10142000029884430027DE4B304621463A4602F0BC
:101430003BFB002810D1DB4B304621463A4602F0F8
:101440003EFB00280DD10022D64B30462946FFF73F
:1014500059F802F0EDFB01E030462946FFF782F82B
:101460000746C220CD490F52D248D3490F2202F07D
:101470007BFC07460D460E46029886430022C84B69
:1014800038463146009202F00FFB002811D10024AB
:10149000C44B38463146224602F011FB00280DD1DC
:1014A0000022C04B38462946FFF72CF802F0C0FB5B
:1014B00001E038462946FFF755F80446C420B74FE7
:1014C0003C52BE480F2102F087FC064604460298B3
:1014D00084432046019902F0FDFA002809D13F20FB
:1014E00005062046294602F000FB002803D0002014
:1014F00009E0304605E03046294602F063FD02F07F
:10150000FBFBFFF715F9B866AD480F2102F064FC4C
:1015100006460446029884432046019902F0DAFA0E
:10152000002809D13F2005062046294602F0DDFAB1
:10153000002803D0002009E0304605E03046294667
:1015400002F040FD02F0D8FBFFF7F2F8B4210522CB
:101550007A52A42175227A52A221E9227A5278661F
:10156000984899490F26324602F0FEFB1922920153
:10157000B623FA529E220923BB5202F0C1FAFEF7AB
:10158000F1FFA02178529148F8679148F865914899
:10159000314602F021FC0646044602988443204668
:1015A000019902F097FA002809D13F20050620464C
:1015B000294602F09AFA002803D0002009E03046BC
:1015C00005E03046294602F0FDFC02F095FBFFF7EE
:1015D000AFF88021804A7A50B8658048F866804824
:1015E000042102F0F9FB02F0EFFAFFF7A1F8B221B3
:1015F00078527C480F24214602F0EEFB7A49B96705
:1016000002F0E2FAFFF794F878677848214602F092
:10161000E3FB06460446029884432046019902F003
:1016200059FA002809D13F2005062046294602F034
:101630005CFA002803D0002009E0304605E030467F
:10164000294602F0BFFC02F057FBFFF771F838673C
:1016500067480F2102F0C0FB064604460298844307
:101660002046019902F036FA002809D13F200506EC
:101670002046294602F039FA002803D0002009E06C
:10168000304605E03046294602F09CFC02F034FB6F
:10169000FFF74EF8A621785256480F2102F09CFB26
:1016A00006460446029884432046019902F012FA45
:1016B000002809D13F2005062046294602F015FAE8
:1016C000002811D0002017E0304613E01C01002054
:1016D000FFFF0000F168E388B5F8043F00003043E5
:1016E0000000E03F9999C93F3046294602F06AFC64
:1016F00002F002FBFFF71CF8A82178523E480F21A8
:1017000002F06AFB0646044602988443204601998B
:1017100002F0E0F9002809D13F20050620462946BD
:1017200002F0E3F9002803D0002009E0304605E08C
:101730003046294602F046FC02F0DEFAFEF7F8FFDA
:10174000AC2115227A52AA2178522C480F26314614
:1017500002F042FB07460446029884432046019962
:1017600002F0B8F900280FD13F200506204629468F
:1017700002F0BBF90028009809D13846294602F04A
:1017800021FC02F0B9FA00E03846FEF7D1FFF30180
:101790009A21024A5352106603B0F0BD1C0100208A
:1017A000000030430000E03F0000903FBDB94F7C97
:1017B000A072E63F868C6007BF1AB33FC24C3B3F26
:1017C00000A0AA45A82E9C8AA168D53F00C40900A4
:1017D000A86100006F12033A80999939C0CCCC3CC3
:1017E00092240941237D1638337300009A99193FDA
:1017F0004260E53C0AD7A33B0AD7233CA69B443B67
:10180000F0B590B0B020B249095EB24C206962696F
:101810004843C311D8170B934340181A4A43D311B6
:10182000DA170E9353409A1A904200D81046A269D4
:101830005143CA11D1170D924A40511A884200D81B
:101840000846A34B596D0F224A43801800110F9090
:101850005865D6200790185CCA2109915F5CAE21BB
:10186000595EE2694A439512196F0A91002F0C974D
:101870001BD0002804D10120079958540020D864B7
:101880000126B00300218542304600DB08461A6E6F
:101890000F9C9442324600DB0A46104301280DD1CA
:1018A000C9201C5C002119541CE0002833D0002002
:1018B00007995854C920FF2119542CE0C921A420AC
:1018C000185E4710DB6C0020BB42089501DA024627
:1018D00000E001227E4D6C5C6A54BB422B46089DA1
:1018E0000C9F06DA002C01D0002000E0186D411C8E
:1018F0001965D96D4910884205DA00200F990A9AB6
:101900008A4205DA05E001200F990A9A8A4200DB33
:101910000646CF201E5484269959481C002488422C
:101920001CD2E043CD215A5C002A1CD0CE27D95DC1
:10193000491E062944D8C0467944097949008F4494
:10194000034627311B4D58006249098C00293AD0C3
:10195000FA287CD300209851072087E09851CD21A8
:101960005A5C002AE2D1CE2003221A540120585496
:10197000002098513C467BE05648008C002842D01D
:10198000CF20185C002801D100F038FC02206DE067
:101990005049098C012939D1FA2837D300209851B0
:1019A000012063E04B49098C00292CD04A49884228
:1019B00044D38C21595E494A91423FDC052055E0D1
:1019C000474988422CD30020985103204EE04149DA
:1019D000088C002829D0012008802CE03D49488C43
:1019E000002825D00520099A98540C8004460F46FB
:1019F0003FE03849098C002905D03A4988422ED960
:101A00009C51042032E09C5103202FE03149498C45
:101A1000012900D0EDE3FA2800D2EAE3062025E010
:101A200001202C4F38800C9C23E00020985100E0CE
:101A30009C510320D8550C9C0F461AE00F990A9A26
:101A40008A4211DB274988420ED80324DBE30F9832
:101A50000A99814200DBD3E30020985105E00F98FA
:101A60000A99814200DBCDE39C510820D8550C9C9B
:101A7000184F60206843000C2D21081A00B2C117CE
:101A80008843302800DB30201749414317480A18A3
:101A9000786A174B984201462CDC194690420C4B51
:101AA0002BDDC821052C0C942CD8585C1D46C04653
:101AB0007C4424796400A7440265385B2A73B8200B
:101AC00000262E526E5488202E502B466DE1C046C3
:101AD0001C010020A00000206A180000FF1F000069
:101AE00088130000D330000084FEFFFF04290000AB
:101AF000C40900009042C54BD3DC0A46C821052C1E
:101B00000C94D2D9FF205854B8201E5A4EE1042319
:101B10006B54042860D1BC89B8202C52D020285C9A
:101B200000286DD19220285A6FE002226A54882141
:101B300000226A52A621695A8A22A9529C216A5E11
:101B4000A221695E51438901C913022801D12B6A80
:101B5000C9180C9C8B125A43D613AC4B022801D1E6
:101B6000586A36180E9AB8201E5219625E621EE13B
:101B700003226A5403286FD1D220285C002871D137
:101B8000E96971E001226A54B82100266E528A2167
:101B90006E52A6239821012800D18DE005248DE006
:101BA00005226A54882100226A52AA21695A8A228F
:101BB000A9529C21695EAC22AA5E4A439101CE13D0
:101BC00005282B4601D1586936180C9C0E9A0D99A0
:101BD000B8201E525E61EBE0CC2000212954CB20BE
:101BE0002954C6202952FF200230D023874CE052CE
:101BF000864DBC89B8202C52A9607D20C000A86108
:101C0000A820285A404292216852C623E95A00B2BD
:101C1000002800D4002008947D4CA14210D8491C13
:101C20007A4EF152CB24355D002D0ED0CC23F45CDE
:101C3000012C51D1774A914250D30221F15450E006
:101C4000724ECB24355D002DF0D1CC21012272548F
:101C500032550021F15244E0962000212952D22031
:101C600001212954BA20295AD22000222A54962030
:101C70002A5A2E468823EA52A623EB5A9C1A8A2512
:101C800074539C24345FA425755F6543AC01E41351
:101C90006518B8212C467552511C09B2A822B25AB7
:101CA0009A1A13B2994202DCCA1791430A46574B5B
:101CB0001A522646DC6178E0685A441DE85E24B278
:101CC000012C234600DC1346844200DC18464F4BAF
:101CD00058528821585268E0B26002E07D21090123
:101CE000B160B221715EBC68B269B3689B1A1BB265
:101CF0000525ED43AB4208DC2B466143062B07DA92
:101D000009119A18444B08D50DE06143062BF7DB07
:101D1000062309119A18404B05D4D418A41CA142DB
:101D200001DA3E4C0FE0002A04D51340994201DD50
:101D30003B4C08E0511A3A4B99420C4600DC1C46D9
:101D4000364B9942EDDCD121304F7B5CD025002110
:101D50007953451C9226BD537E6FBD6F66436F421B
:101D6000BE42344600DC3C46AE4200DC2546281A22
:101D70008A24264D28539420002B089E08D0A623A1
:101D8000EB5AA8242C5BE31A1BB2002B04D504E009
:101D90002B5A1BB2002B00D40B46591C1B4C215252
:101DA0005842234688216052A2610C9C0E9A0D99DC
:101DB000B0B2C009401E80B240001A4D285E0E909D
:101DC0000120069080030F90301880B2C009401E99
:101DD00080B24000285E0D90501A13494143C81349
:101DE0000A90002C08960BD0D420195C00291DD035
:101DF00090201A5A8E20185ADC68196909911BE044
:101E0000D4200021195403CB9DE0C0461C010020C2
:101E1000FE070000E2040000FFFFFF7FFF7F0000DD
:101E20000080FFFFC8420000E549000006991954F0
:101E300000200246044609908821595A091A0EB218
:101E4000F7498E4200DC0E46F64B9E4200DB1E46F2
:101E500030188E26ED4DA8538A26AE5BB61A36B2E0
:101E60008E4200DC0E469E4200DB1E46B2189021D8
:101E7000E64B05925A520D990B9A51430E9A0A9DC0
:101E80006A435118C91300B2471AE248874200DC7E
:101E90000746E148874200DB07469C20195E08465A
:101EA0007843C0135A6E1D46931258430019EC6EC6
:101EB0006642B042024600DC3246A042204600DCC8
:101EC0001046D24A0490D0600E9A0B9D6A430D9D35
:101ED0000A984543AA1AD213059805B2AA1ACD4802
:101EE000824200DC0246CC48824200DB024651437B
:101EF000C9134B4309981918B1420B4600DC33460D
:101F0000A1422146049800DC1946C04B19619B6E22
:101F10005F43C719B742384600DC3046A742274620
:101F200000DC07463814B94D28605343CA18B24242
:101F3000114600DC3146A24200DC0C462114B34AB3
:101F400051600C9C089E0E9D2A4642430D9F3B46C5
:101F50004B439A18D21309924D434743781B0E9076
:101F6000C513D520002C15D0A84B195C00290D9560
:101F700023D0986A0090DA6A186B02905F6B9C6BB2
:101F8000D86B0190186C0490586C0590A04880891B
:101F900003901FE000219D4B19549A201C5A9C4F1E
:101FA000D320195C002900D1B4E0BE20185ABC210E
:101FB000595A081AC021595AB0E0069919540020FC
:101FC00098640490039001900446074602900246EC
:101FD00005900090C420185A1D46B423EB5E1E469F
:101FE00009994E43F61B4643F613C227EF5B7C4329
:101FF000E4133419AC630D9E73430099591A41439D
:10200000C8137A43D1130F18EF620A98221A9E2040
:10201000295E4A438448824200DC02467E4B9A4253
:1020200000DB1A460198141AA026784DAE5F74435F
:10203000E4132418EC630B9D7F1B79437A4881429B
:1020400000DC01469942724F00DB1946029BC81A18
:102050004643F013C018A2186C4B18635A6341181A
:102060009962039EF109491E89B249006B4D695E70
:102070006143C9130F9AB21892B2D209521E92B29A
:102080005200AA5E4243D013401844429C20185E7E
:1020900001466143C913DA6F92124A4304995218F8
:1020A000802159584B429A42164600DC1E468A420D
:1020B0000A4600DC3246B626544DAE5F744316190C
:1020C0009E42344600DC1C468E4200DC21460B1446
:1020D000BB60AC6DAE6CC9134843801205994018C3
:1020E0002A646864AB642B4666433102C913490015
:1020F0004A4A89184D4A895A0818B8819A202C5A98
:102100000C9803286BD8089E0D9DD320195C0029DC
:1021100000D04AE70699195400210846BE229E5273
:10212000BC229952B989C022995201B2C9134840C0
:10213000401A8C2158520798185C002801D0B868C2
:10214000D864BA201E523A4809994843C0130E99E0
:102150000B14C11A8D422A460BDC0A46C0184342B2
:102160009A420ADD8D422E460BDB0E469E420ADA6B
:102170000AE0C01843429A42F4DC1A468D422E46C9
:10218000F3DA9E4200DB1E46B2185310CE1A2949DC
:102190008E4200DC0E460F9A964200DB0F9E22B262
:1021A0005643F60B5410A61BBE80ED1A8D4200DC80
:1021B0000D460F9EB54200DB35465543ED0B651BC2
:1021C0007D80C0184042884200DC0846B04200DBF7
:1021D00030464243D00B201AF88010B0F0BDD32017
:1021E00000211954089E0D9D0798185C0028A6D15F
:1021F000A7E709981C54064F3C803AE4042402E007
:10220000012400E0022409981C5431E41C01002040
:10221000A00000200080FFFFFF7F0000C8420000F8
:102220000880FFFFF87F00000180FFFFFE03000031
:10223000D96E000001C0FFFFB0B50F4C0E21204643
:10224000FEF796FF002816D002200C49085E4128B0
:102250000DDB0B4D297848424841287000F03CFDC9
:102260002A78084802828021204600F0E0F80E21FA
:102270002046FEF709FFB0BD000D014068000020B8
:1022800000000020B0000020B0B50D46044601213A
:10229000C80200F08DFE03CD083D032909D00129B5
:1022A00004D000291ED16168814304E061680143C4
:1022B0001AE0616801436160216801432160A968F7
:1022C000002918D1216981432161E968002918D1C9
:1022D000A1698143A1612969002918D1E16981437C
:1022E000E161B0BD61688143616021688143216023
:1022F000A9680029E6D0216901432161E968002924
:10230000E6D0A1690143A16129690029E6D0E1690C
:102310000143E161B0BD00000F2960D8794409791B
:1023200049008F4407482E3A1A4F5D416B276413CA
:1023300021560E353749E131036A0B409918016285
:102340007047C16A324B0B40110246E0816A2F4B45
:102350000B4011035918816270472E49E131436ADD
:102360000B409918416270472A49E131C36A0B401A
:10237000991833E0816A274B0B401101591881628B
:102380007047016A224B0B401102591801627047D5
:10239000C16A1E4B0B4011031FE0016A1B4B0B402F
:1023A0001103591801627047416A184B0B40110321
:1023B000591841627047016A164B0B4011015918B8
:1023C00001627047416A134B0B4011015918416279
:1023D0007047C16A0F4B0B4011015918C162704719
:1023E000416A0B4B0B401102591841627047816AD8
:1023F000074B0B4011025918816270470549E131C2
:10240000836A0B40991881627047C046FF0F000035
:10241000FFF000000FFF0000416370470163704749
:102420000021016041608160C16001617047002A44
:1024300004D0302283580B43835070473422835892
:102440000B43835070470000F0B589B001AF3846A8
:10245000FEF7AEFC00247C8001253D80BC80FC8022
:102460003C817C81BC81FC81BC8203267E823D82D2
:102470001A487F210091FEF7E1FB18483946FEF724
:1024800039FC164F3846214632462346FEF7C0FB3C
:102490000222384629462346FEF7BAFB01AF3846EA
:1024A000FEF786FCFC81BC817C813C81FC80BC8089
:1024B0007C80BC827D823D82094D28460099FEF7D2
:1024C000BDFB28463946FEF715FC0C22284621465E
:1024D0002346FEF79DFB09B0F0BDC0460004014055
:1024E00000050140F0B5BFB00025284600F0F4FB20
:1024F00006AE304600F07EFB442035522120355494
:102500006C203552A22035523046A2300324847705
:102510003146213101270F714D71F777B58531466D
:102520006C310D813A02CA8075778D7005732D4A22
:1025300013920A3232803F221201009210323E92F0
:102540001095079508950995274A1592FF220232A2
:102550009623F2528A23F552334696339A805A8054
:1025600032468A329580558032464832958045837E
:10257000CD818D8218951D48672101601C482590EA
:10258000304600F0DBF8284600F0A6FB01AD2846F7
:10259000FFF746FF5E4E042130462246FFF7BCFEA1
:1025A000052130462246FFF7B7FE06213046224677
:1025B000FFF7B2FE072130462246FFF7ADFE0821A5
:1025C00030462246FFF7A8FE092130462246FFF793
:1025D000A3FE00980190029730462946FFF754FE6B
:1025E0003FB0F0BD760700000A000A00140E01405B
:1025F0000101010070B584B010200124214600F0D3
:102600009BFC01AE304600F061FB0394029403256D
:1026100001950220314600F0F3FA2020214600F017
:102620008BFC01AE304600F051FB039402940195FF
:102630002846314600F0E4FA04B070BD80B501468A
:1026400007484160062909D3064801F00FF9401EEA
:1026500005494860002088600720086080BDC046AA
:10266000F800002000D8B80510E000E0F0B5B1B0E7
:102670000DAF384600F052FF01261F961D96219699
:102680000F96002520951A9618961C950E950320F6
:10269000019027900F20800122901B9670022890B5
:1026A0001395072026901596184C2046394600F0C1
:1026B000B7FE2046314600F0A9FE08AE3046FFF7CF
:1026C000AFFE082708970995114D28463146FFF7B8
:1026D000DBFD284601993A46FFF71EFE02AD28466B
:1026E000FEF7C8FB14202872802007990143297542
:1026F0000848029008480690103405940748039053
:1027000007482946FEF776FB31B0F0BD00090140CD
:10271000400D014000010100D00000200100010136
:102720000012014080B5FFF7A1FF80BD0F2080029D
:10273000014908607047C04604170140F0B581B0F8
:1027400004460121880200F033FCFC48FC4901608A
:10275000214620318A794B799B0013430A79D200B4
:102760001A43CB781B0113438A7852011A43E37F43
:102770009B011343A27FD2011A43497809021143F6
:102780002022A25C52020A43617F89021143227F08
:10279000D2020A43EB49CA67A28E0A63E28E4A63F9
:1027A000228F8A63628FCA6322880A6462884A64BD
:1027B00025466035AA7CEB7C1B0113432A7D520120
:1027C0001A436B7D9B011343AA7D12021A43EB7DD2
:1027D0001B0313432A7E52031A436B7E9B0313434E
:1027E0004B67A28F0A66E28F4A664022A25A8A6627
:1027F000264640367288CA66034601462C3BFB4893
:1028000018602346A0339F78DA7852003A431F7A43
:10281000BF0017435A7AD2003A439F7A3F011743C9
:10282000DA7A52013A431F7BBF0117435A7BD20128
:102830003A431F79BF0217435A79D2023A439F792C
:102840003F031743DA7952033A439F7BBF03174391
:102850000A46403A1760DA7B1F7C7F0017435A7D97
:1028600092003A439F7DFF001743DA7D12013A43FD
:102870001F7E7F0117435A7E92013A439F7EFF01DC
:1028800017435A7C92023A439F7CFF021743DA7C3B
:1028900012033A431F7D7F031743DA7E92033A43C4
:1028A0000F46383F3A601A7F12015F7F7F0117435E
:1028B0009A7F92013A43DF7FF80110432746C037E1
:1028C0007A7812020243B878400210433039086027
:1028D000B088C5498865F088C865C020205C086755
:1028E000387EFA7D52000243B87D800010437A7D25
:1028F000D2000243387D00011043FA7C52010243AA
:10290000B87C800110437A7CD2010243387C0002FB
:102910001043FA7B52020243B87B800210437A7B59
:10292000D2020243387B00031043FA7A5203024377
:10293000B87A800310437A7AD2030243A949084641
:1029400028380260F8783A7952000243787980009A
:102950001043BA79D2000243F879000110433A7A61
:1029600052010243084624380260307A727A5200DB
:1029700002436878800010436022A25CD2000243C8
:10298000707D00011043327D52010243287B80019B
:102990001043228DD2010243B07A00021043F27A32
:1029A00052020243E87880021043AA78D20202431E
:1029B000F07D00031043B27D52030243687B800325
:1029C0001043628DD203024308460F46203802604E
:1029D000307B727B520002436879800010432A7971
:1029E000D2000243707E00011043327E5201024346
:1029F000A87B80011043A28DD2010243B07B00026C
:102A00001043F27B52020243E87980021043AA7914
:102A1000D2020243F07E00031043B27E520302430F
:102A2000E87B80031043E28DD203024308461C3842
:102A30000260307C727C52000243687A800010434E
:102A40002A7AD2000243707F00011043327F520184
:102A50000243287C80011043228ED2010243B07CC5
:102A600000021043F27C52020243E87A80021043D3
:102A7000AA7AD2020243F07F00031043B27F5203CE
:102A80000243687C80031043628ED20302430846EF
:102A900018380260A08854490860E088486020899E
:102AA00088606089C860A0890861E0894861208ADF
:102AB0008861608AC861A08A0862E08A4862208BC7
:102AC0008862608BC8628020205CC000EA7F920030
:102AD0000243A87E00011043EA7E520102432646CB
:102AE00080367078C00110436A7F12020243A87FCB
:102AF000800210432A7FD203024338461038026016
:102B0000F0798000327AD2000243B078000110439D
:102B1000F27852010243707AC001104372791202B6
:102B20000243B079800210433279D203024338461F
:102B30000C380260F07AB27A520005E0C00C014015
:102B4000ADDE0000000C01400243707B80001043AA
:102B5000327BD2000243F07B00011043B27B520172
:102B60000243707C80011043327CD2010243F07C2E
:102B700000021043B27C52020243707D8002104377
:102B8000327DD2020243384608380260B07DF27DC1
:102B900052000243307E80001043727ED200024316
:102BA000B07E00011043F27E52010243307F80016B
:102BB0001043727FD2010243B07F00021043F27FC4
:102BC00052020243A020205C800210435A78D202B5
:102BD0000243381F0260054808650548386001B0A7
:102BE000F0BDC046C00C0140000C0140FFFF0000DA
:102BF000FECA000080B5E421FDF702FB80BD0000A5
:102C0000F0B5E64AE64B13602E4B1D685C6903285D
:102C100054D8C0467844007940008744012C0F1EE8
:102C20004868002802D1284E012737700326B54393
:102C300028432025ED431C3502262AE04868002859
:102C400002D1214E012737703026B54300012843B9
:102C50002025ED43103504261BE04868002802D1EA
:102C6000194E01273770C026B5438001284320251F
:102C7000ED4305260DE04868002802D1124E0127D9
:102C800037700C26B543800028432025ED431835C6
:102C900003262C408D68B54025430B4C2478641ED8
:102CA0006642664174000C60710203242402A04352
:102CB000081818605D6100201060F0BD28462546A8
:102CC000EBE7C04610000040140100200021032261
:102CD00002604260816070470C490D4A0A610A68CF
:102CE000002808D040231A430A6048681843486007
:102CF0000020086170474020C3431A400A604868BA
:102D000018404860002008617047C046B00C014080
:102D1000ADDE0000F0B584B015460091014601AC6F
:102D2000012222709D48AC4E0660364EC662C248F3
:102D30000768354EC14CA74254D10468334F6740F1
:102D40003868334C04403C600C46316038681843A6
:102D5000D20602433A600023B74803600098C71CBC
:102D600003218F430297009403940298002818D0FF
:102D70002A4603988843306010785478240220183B
:102D8000947824040019D4782406001970600298FD
:102D9000001F02900398001D0390121D0298002846
:102DA000E7D102970098039006E00298001F029076
:102DB0000398001D03902D1D0298002812D003983F
:102DC0008843306028786A7812021018AA781204B2
:102DD0008018EA7812068018B2689042E5D001A8FF
:102DE0000370E2E7301F01680A4A0A4002600020CF
:102DF000914908606949C862086001A8007804B078
:102E0000F0BDC046358F0000040002000CA4FF9AFC
:102E1000FF7FFF7FFFF7FFF780B502460121CB025E
:102E2000002000F001F880BDB0B582B01446002249
:102E300001920092009101900098002846D0244D04
:102E4000002B0BD13B4824E00098401E00900198D5
:102E5000001D0190241D0098002837D0019800F033
:102E600039F820602868C007EED12868C007EBD188
:102E70002868C007E8D12868C007F3D0E4E70099C4
:102E8000491E00910199091D0191241D00990029F5
:102E90001CD029461839019A0B6803400B602B4659
:102EA000143B1A602A460C3A12680B6803400B6008
:102EB00022602968C907E2D12968C907DFD12968DA
:102EC000C907DCD12968C907F3D0D8E702B0B0BD83
:102ED0001800020010B516490968491E4A1E9141A2
:102EE000C902012252041368124C23405918116080
:102EF0005060D06811682140116010BD10B50C49B8
:102F00000968491E4A1E9141CA02012149040B6801
:102F1000084C23409A180A60592212064A604860F9
:102F2000C868952212064A600A6822400A6010BDED
:102F3000A0000040FFF7FFFF184A274B1360194A13
:102F4000002903D011680143116070471168814363
:102F50001160704710B511491F4A0A6011494A684B
:102F6000114B13400468E203D2184A600122012C7D
:102F700001D0920200E092030B680C4C1C40121925
:102F80000A60426883681B029A18CA65C268CA66EA
:102F900002694A674069886710BDC046A8000040C2
:102FA000837A000024000040FF7F0000FFBB000088
:102FB000084A094BD360012905D11168014311600A
:102FC0000020D06070471168814311600020D060FC
:102FD0007047C0469C000040837A00000021012217
:102FE000FF230AC0026041608160C16001614161EC
:102FF00070470000F0B581B00D4A0E4911606C4673
:1030000020700125EE02002738463146FEF72CF9E4
:10301000074807600849094808603846294622469B
:103020003346FFF777FE0448076001B0F0BDC046A5
:10303000100100201F360D9A180100200CA4FD9AE3
:10304000F0B5C7B007920691029000242046FFF722
:1030500043FE42AE3046FFF7E3F909AD2846FFF7DD
:10306000C9FD3F2738010490429001200890439009
:10307000A9483146FFF708F9A8480699FDF7A8FACC
:10308000390601F039F801460798039101F034F848
:103090000746294621312A46443228466C3006909C
:1030A00002982E46A236E03505950328079600D1F2
:1030B0009FE0022851D000970128089F00D0E7E048
:1030C00002910421944D284601922246FFF724F9EB
:1030D000102128462246FFF7AAF905212846224654
:1030E000FFF71AF9202128462246FFF7A0F906210A
:1030F00028462246FFF710F9402128463A46FFF7B6
:1031000096F9072103222846FFF706F908212846E9
:103110002246FFF701F9390228462246FFF787F9D0
:10312000092128462246FFF7F7F879022846224669
:10313000FFF77DF9009D2846FDF7FAFA09AFF88000
:103140000898C00745402846FDF7F2FA019A02990F
:10315000B880089F0C940B949AE0029104216E4D64
:10316000284601922246FFF7D7F81021284622462A
:10317000FFF75DF9052128462246FFF7CDF820210B
:1031800028462246FFF753F9062128462246FFF734
:10319000C3F840212846089E3246FFF748F9072128
:1031A00028462246FFF7B8F8802128462246FFF736
:1031B0003EF9082103222846FFF7AEF809212846E8
:1031C0002246FFF7A9F8710228462246FFF72FF999
:1031D0003846FDF7ADFA394609AF7881F00741402E
:1031E0000846FDF7A5FA019A029938813746079EED
:1031F0004CE002910421484D00972F462846019249
:103200002246FFF789F810212846089D2A46FFF735
:103210000EF9052138462246FFF77EF82021384670
:103220002246FFF704F9062138462246FFF774F8D4
:10323000402138462246FFF7FAF807213846224651
:10324000FFF76AF8802138462246FFF7F0F8082198
:1032500003223846FFF760F8092138462246FFF777
:103260005BF8690238462246FFF7E1F8009F3846CE
:10327000FDF75EFA394609AF7881E8074140084614
:10328000FDF756FA019A029938812F460C940A9458
:103290000F714C710C20B0773D4609AFFD77BC85AE
:1032A0007C770C7014803046069E3481B470348074
:1032B0000480047304991031059801600398FDF7A8
:1032C00037FA38802802F080154918911394169423
:1032D000FF2102319622B9528A22BC523A469632D6
:1032E0009180518039468A318C804C8039464831F2
:1032F0008C80F48107994C83B0820A4830611B941A
:103300000948672101603846FFF718FA2846FFF799
:10331000E3FC47B0F0BDC046400D0140001BB74C78
:103320000A000A0001010100140E014081B00021D1
:103330000091009981421BD200BF0099491C009165
:103340000099814214D200BF0099491C0091009954
:1033500081420DD200BF0099491C00910099814221
:1033600006D200BF0099491C009100998142E3D325
:1033700001B0704780B507494A1C074B1433074812
:10338000FDF780FD012000047B490A6882430A6042
:1033900080BDC04668000020B0000020F80000207A
:1033A00081B01648164901600121CA0315490A6017
:1033B00000220092009B632B1BD800BF009B5B1C6C
:1033C0000093009B632B14D800BF009B5B1C0093F1
:1033D000009B632B0DD800BF009B5B1C0093009BE0
:1033E000632B06D800BF009B5B1C0093009B642BE3
:1033F000E3D3054BCB65026001B07047A8000040E5
:10340000837A000024000040FF010000424A0029A6
:1034100000D0511C036813400B4303607047C04643
:1034200070B50D4604463A4820180821C8410328C3
:1034300005D88000374908580121FFF7B9FD284613
:10344000803035492A78002A00D04A1C23680B4076
:1034500013432360696D6160E96DE160296E21614C
:10346000696E6161A96EA161E96EE161A96F4902AE
:10347000EA6F12020A434AC80068C90111439A0060
:103480000A43710011430143616268684007A968FB
:1034900009070143286FC0060843696F8906014385
:1034A000E868400608432969090601436869C005C0
:1034B0000843A96909050143E869C0040843296A6A
:1034C00089040143686A40040843A96A0904014366
:1034D000E86A00030843296BC9020143686B800254
:1034E0000843A96B49020143E86B00020843296CB9
:1034F00009010143686CC0000843A96C89000143BD
:10350000E86C40000843296D0143216070BDC0464E
:1035100000FAFEBFB8420000FFFFFF7F80B5001D2C
:103520008C21FCF76DFE80BD70B5002821D00021F4
:10353000104A114B114C0D4606E000261E609E609D
:103540006D1CAEB2B04214D95C6005261E60996055
:103550001E681640012EF0D11E681640012EECD1D7
:103560001E681640012EE8D11E681640012EEFD0CD
:10357000E3E770BD0100010010E000E0007701000A
:1035800082B072B6A648A7490160FDF71DFCFFF79F
:10359000CDF8FFF7C7F8FEF7A5FFFEF755FFFFF7D9
:1035A00029F86420FFF7C2FE00279F4D9F4C0021A1
:1035B00028460191FDF746FBE1680818E060012606
:1035C00028463146FDF73EFB216908182061791C29
:1035D0003F2F0F46EBD38011944D2861E86880118E
:1035E000E8609349934A3046FFF72AFD9624204627
:1035F000FFF79AFF8C483146FDF724FB1027E95F5F
:10360000401AA86202208A498A4AFFF719FD20461B
:10361000FFF78AFF84483146FDF714FBE95F401A43
:10362000E86203208249834AFFF70AFD2046FFF73C
:103630007BFF7D48019C2146FDF704FB0C21695E60
:10364000401A28632046FFF747FBA86A0A2830463D
:103650002F4642DAF96A0A29314643DA0843396BC0
:103660000A2900DB264630434B21890001910028BE
:103670003ED001986430FFF757FF6D4D019C01204B
:103680002946784AFFF7DCFC2046FFF74DFF00276C
:103690003846FFF721FB64263046FFF745FF02203E
:1036A0002946714AFFF7CCFC2046FFF73DFF38461C
:1036B000FFF712FB3046FFF737FF03202946694A20
:1036C000FFF7BEFC2046FFF72FFF3846FFF704FB4D
:1036D00019204001FFF728FFD1E72046F96A0A299F
:1036E0003146BBDB21460843396B0A29BADABAE70F
:1036F000C820FFF719FF01244F494E4E204632469D
:10370000FFF79EFC019D64352846FFF70DFF03205F
:103710004A493246FFF794FC2846FFF705FFFEF7BB
:10372000E1FEA5032846FEF789FF6420FFF7FEFDB2
:103730000026FE603E617E61414F38461430FFF73F
:103740006BFB3046FFF7C8FAFF2001063D4A1368BD
:103750008B43E1075918116000043B490A68824312
:10376000A0051018086039480195056062B630461A
:10377000FFF7B2FA3E60364C00962661354880214C
:10378000FEF74AFE2A4D354E06E028494A1C2346DC
:1037900014333846FDF7AAFB03CF083F8842F4D321
:1037A0002F4801990160BFF34F8FBFF36F8F012046
:1037B00029462C4AFFF744FC274F3846FFF7B6FD51
:1037C000009C2046FFF788FA3046FFF7AFFD022045
:1037D0002946254AFFF734FC3846FFF7A7FD204667
:1037E000FFF77AFA3046FFF7A1FD032029461D4A6C
:1037F000FFF726FC3846124FFFF798FD2046FFF7EB
:103800006BFA3046FFF792FD3C60FEF76BFE6420DA
:10381000FFF78CFD0D48019901600D4CB5E7C046DE
:10382000A8000040837A00000004014068000020E6
:1038300000C0C9448FC2F53C00A0F04400B01A4556
:10384000F800002020ED00E00CE400E000E100E0E2
:10385000B0000020000D014000F22B00003E4900A6
:1038600080E100E00AD7233C0AD7A33C43088B42FF
:103870001AD3002203098B4279D3030A8B425ED309
:10388000030B8B4242D3030C8B4227D30902FF2246
:1038900012BA030C8B4202D31212090203D0030B9B
:1038A0008B4233D31AE0D3E0411A8041401C704769
:1038B00003460B4371D443088B42F5D3002203091E
:1038C0008B4254D3030A8B4239D3030B8B421DD353
:1038D000030C8B4202D394466EE0090AC30B8B4261
:1038E00001D3CB03C01A5241830B8B4201D38B030C
:1038F000C01A5241430B8B4201D34B03C01A5241B1
:10390000030B8B4201D30B03C01A5241C30A8B42F3
:1039100001D3CB02C01A5241830A8B4201D38B02DE
:10392000C01A5241430A8B4201D34B02C01A524182
:10393000030A8B4201D30B02C01A5241CDD2C309F4
:103940008B4201D3CB01C01A524183098B4201D370
:103950008B01C01A524143098B4201D34B01C01A5B
:10396000524103098B4201D30B01C01A5241C308D3
:103970008B4201D3CB00C01A524183088B4201D342
:103980008B00C01A524143088B4201D34B00C01A2E
:103990005241411A524110007047CA0F00D04942AB
:1039A000031000D34042534000229C4603098B423F
:1039B0002DD3030A8B4212D38901FC2212BA030AC7
:1039C0008B420CD3890192118B4208D38901921149
:1039D0008B4204D3890137D0921100E08909C309D1
:1039E0008B4201D3CB01C01A524183098B4201D3D0
:1039F0008B01C01A524143098B4201D34B01C01ABB
:103A0000524103098B4201D30B01C01A5241C30832
:103A10008B4201D3CB00C01A524183088B4201D3A1
:103A20008B00C01A5241D9D243088B4201D34B00BC
:103A3000C01A5241411A00D2014652411046634613
:103A40005B1000D34042704763465B1000D3404296
:103A500001B50021004201D0C9430846C046C04616
:103A600002BD000010B50721024A00200907FCF73B
:103A700091FE10BD01030000034A10B5002011079C
:103A8000FCF788FE10BD000001FDFFFF10B5072008
:103A900061210007FCF7AEFE10BD5E2110B5C943E1
:103AA0000807FCF7A7FE10BD10B500F0F3F9EFF31F
:103AB0000080800001D5012010BD002010BD10B590
:103AC00000F01AFAEFF30080800001D4012010BD4D
:103AD000002010BD10B500F0BBFAEFF300808000AD
:103AE00001D5012010BD002010BD10B500F0DAFA9C
:103AF000EFF30080800001D4012010BD002010BD34
:103B0000F8B54A002B4B520DD6182B4A0C460546E9
:103B1000142E2BDA002E12DA284BFCF7F3FC0022CD
:103B2000134600F01BFA40D2002C03DA0124E4070C
:103B300000253AE02046284337D0214C14E0214F9D
:103B40000B46F7403B402B4331D01C4BFCF7DAFCD3
:103B50000022134600F002FA27D2002C03DD0120D8
:103B60000005F0400419BC4300251EE0332E1EDC86
:103B700033460027143BFF43DF40384217D00F4B3A
:103B8000FCF7D8FC0022134600F0E8F90DD2002C17
:103B90000ADD142E0CD03420811B012088404019EE
:103BA000A84200D2641C0546BD4321462846F8BD04
:103BB000641CF9E701FCFFFF9C7500883CE4377E3C
:103BC0000000F03FFFFF0F00F8B541000D0E7F3DF4
:103BD0000446172D27DAFF273F061349002D0FDA79
:103BE00000F0F0F94100B9421CD800281ADD002C81
:103BF00001DAFC0116E0002C14D07F24E40511E06A
:103C00000A4EEE4030420ED000F0DCF94100B942DD
:103C100008D8002806DD002C03DD0120C005E8409F
:103C20000419B4432046F8BDCAF24971FFFF7F0072
:103C3000F8B54A002B4B520DD6182B4A0C460546B8
:103C4000142E2BDA002E12DA284BFCF75BFC002234
:103C5000134600F083F940D2002C02DB00242546F5
:103C60003BE060004008284337D0214C14E0214F4E
:103C70000B46F7403B402B4331D01C4BFCF742FC3A
:103C80000022134600F06AF927D2002C03DA012043
:103C90000005F0400419BC4300251EE0332E1EDC55
:103CA00033460027143BFF43DF40384217D00F4B09
:103CB000FCF740FC0022134600F050F90DD2002C16
:103CC0000ADA142E0CD03420811B012088404019C0
:103CD000A84200D2641C0546BD4321462846F8BDD3
:103CE000641CF9E701FCFFFF9C7500883CE4377E0B
:103CF0000000F0BFFFFF0F00F8B541000D0E7F3D43
:103D00000446172D28DAFF273F061449002D10DA44
:103D100000F058F94100B9421DD800281BDD002CE5
:103D200001DB002417E00120C007844213D00C4CB3
:103D300011E00C4EEE4030420ED000F043F941004D
:103D4000B94208D8002806DD002C03DA0120C0059E
:103D5000E8400419B4432046F8BD0000CAF2497196
:103D6000000080BFFFFF7F0070B50546080DC0430F
:103D700016460C4640052CD000221346284600F07B
:103D800057F826D0324628462146FCF703FD054663
:103D9000080DC0430C46400510D0002213462846AB
:103DA00000F046F815D10220FCF7EDFCFFF764FEA9
:103DB00049004908E20FD207114370BD0220FCF709
:103DC000E2FCFFF74FFE49004908E20FD20711431A
:103DD00070BD2846214670BDC20DD2431206120E98
:103DE00024D0420022D010B5FCF704FD0446C00DDB
:103DF000C0430006000E03D060000CD0204610BD6A
:103E00000220FCF7C0FCFFF741FE40004008E10F34
:103E1000C907084310BD0220FCF7B5FCFFF73DFEC3
:103E200040004008E10FC907084310BD704700007B
:103E300070B501252D050C001C4310D4EC4206D4AE
:103E4000AC420AD4994200D070BD904270BDE942A4
:103E500017D4EB4215D4994270BD894270BDEC4233
:103E600006D5AC42F9D58B4200D070BD824270BD00
:103E70006D004C00EC4204D25C00EC4201D28B425B
:103E800070BD034C30B4FCF7DBFC30BC70BD00BF30
:103E90001900120470B501252D050C001C4310D427
:103EA000EC4206D4AC420AD4994200D070BD904294
:103EB00070BDE94217D4EB4215D4994270BD8942D6
:103EC00070BDEC4206D5AC42F9D58B4200D070BD36
:103ED000824270BD6D004C00EC4204D25C00EC42AA
:103EE00001D28B4270BD034C30B4FCF7A9FC30BC4E
:103EF00070BD00BF1900130470B501252D050C001D
:103F00001C4310D4EC4206D4AC420AD4994200D0EF
:103F100070BD904270BDE94217D4EB4215D499426E
:103F200070BD894270BDEC4206D5AC42F9D58B42DA
:103F300000D070BD824270BD6D004C00EC4204D2D6
:103F40005C00EC4201D28B4270BD034C30B4FCF7F4
:103F500077FC30BC70BD00BF1900160470B5012598
:103F60002D051C000C4310D4EC4206D4AC420AD4FC
:103F70008B4200D070BD824270BDEB4217D4E94243
:103F800015D48B4270BD9B4270BDEC4206D5AC424D
:103F9000F9D5994200D070BD904270BD6D005C00B3
:103FA000EC4204D24C00EC4201D2994270BD0FB4F5
:103FB0000CBC03BC024C30B4FCF742FC30BC70BDFE
:103FC0001900160470B50125ED0704004C4020D4FB
:103FD000441A01D2001B0919C60D4B00F2B2FF2A88
:103FE00029D01B0E2CD000020C0228432C43D31ADC
:103FF000DC40051910D2280A02D3401C6D0611D0EE
:10400000761EF6058019FF2A00DA70BDC00DC005C6
:1040100070BD694000F0CEF801200543C541521C37
:10402000761CE8E764089C40C90161408900E7D13B
:104030000124A043E4E71B0E440200D0034870BDF6
:10404000002AFCD1C00FC00770BD00BF0000C07FB8
:104050000123DB0502000A430DD4DA4203D49A425D
:1040600007D488427047D84214D4D94212D4884227
:10407000704780427047DA4203D59A42F9D58142AF
:1040800070475B004200DA4204D24A00DA4201D2B1
:104090008142704710B5024AFCF722FC10BD00BFF8
:1040A000090013040123DB0502000A430DD4DA42A0
:1040B00003D49A4207D488427047D84214D4D942D4
:1040C00012D48842704780427047DA4203D59A4240
:1040D000F9D5814270475B004200DA4204D24A00BF
:1040E000DA4201D28142704710B5024AFCF7F8FB70
:1040F00010BD00BF0900160470B5420064414B00BA
:104100005C41120E39D01B0E38D0FF2A3CD0FF2B59
:104110003AD0D2187F3A40024902400A490A45186B
:10412000ED0106004E43000A090A48430104731AD0
:104130004019190C4318990F04D05B080121490755
:104140005B1A521CD80904D3401CF50301D19D060B
:1041500007D0FF2A08D2D50506D0E407204340192E
:1041600070BD0125A843F4E7002A01DCE00770BD1B
:104170002402FF202043C00570BD1B0EFF2A03D080
:10418000FF2B01D0E00770BDFF2636064500B54283
:1041900006D84D00B54203D8D218FF2A00D0E7E771
:1041A000004870BD0000C07F70B50125ED07040018
:1041B0004C4022D4441A02D26C40001B0919C60D8F
:1041C0004B00F2B2FF2A4BD01B0E50D000020C0263
:1041D000A8432C43D31ADC40051B05D5AD0019D3E9
:1041E0006D08761E521E37D0F605280A01D28019B6
:1041F00070BD70416D0603D070BD6940FFF7E8FEE9
:104200009C4009026140490001D0401E70BD01245C
:10421000A04370BD6D081DD001202B0C01D12D04D1
:1042200010302B0E01D12D0208302B0F01D12D01A2
:10423000001DAB0F01D1AD00801CEB0F01D16D0053
:10424000401C361A121A6D00680AF5054019012A39
:1042500002DB70BD002070BDC036300AC00770BDE3
:104260001B0E440201D1FF2B00D1024870BD002A71
:10427000F0D070BD0000C07F8182838485868788EE
:10428000898B8C8D8E8F919293959697999A9C9D00
:104290009FA0A2A3A5A7A8AAACAEB0B2B3B5B7B968
:1042A000BCBEC0C2C5C7C9CCCED1D4D7D9DCDFE231
:1042B000E6E9ECF0F3F7FAFE100000002000000041
:1042C0004000000080000000000093012603B804B5
:1042D0004B06DD076F09010B920C230EB30F421141
:1042E000D1125F14ED1579170519901A191CA21D2A
:1042F000291FAF203422B8233A25BB263A28B829F3
:10430000342BAE2C272E9E2F13318632F733663591
:10431000D3363E38A7390E3B723CD43D343F9140F2
:10432000EB4143439944EC453C478948D4491B4BF6
:10433000604CA24DE14E1D5055518B52BD53EC5473
:104340001856405765588759A55AC05BD75CEB5D36
:10435000FB5E07600F611462156312640C650166F1
:10436000F266E067C968AE69906A6D6B466C1B6D5A
:10437000EB6DB76E7F6F43700271BD7174722673FF
:10438000D4737D742275C2755E76F576877715785D
:104390009E782279A2791D7A947A057B727BDA7BEA
:1043A0003E7C9C7CF67C4B7D9A7DE67D2C7E6D7EF2
:1043B000AA7EE17E147F427F6A7F8E7FAD7FC77FBA
:1043C000DC7FEC7FF77FFE7FFF7FFB7FF27FE57F67
:1043D000D27FBB7F9E7F7D7F577F2B7FFB7EC67EFC
:1043E0008C7E4D7E097EC17D737D217DC97C6D7C77
:1043F0000D7CA77B3C7BCD7A597AE0796379E178B3
:104400005A78CF773E77AA7610767275D074297471
:104410007E73CE7219726171A370E26F1C6F526E5F
:10442000836DB16CDA6BFF6A206A3C695568696715
:104430007A6687658F649463956292618C60815F10
:10444000735E615D4C5C335B175AF758D357AD56BA
:10445000825555542453F051B9507F4F424E014D6F
:10446000BE4B784A2F49E34794464345EE43984272
:104470003E41E23F843E233DC03B5B3AF3388937FF
:104480001D36AF343F33CC315830E22E6B2DF12B3B
:10449000762AF9287A27FA257924F6227221EC1F48
:1044A000651EDE1C541BCA193F18B3162615981337
:1044B0000A127B10EB0E5A0DC90B380AA608140716
:1044C0008205EF035C02C90037FFA4FD11FC7EFAF0
:1044D000ECF85AF7C8F537F4A6F215F185EFF6EDCA
:1044E00068ECDAEA4DE9C1E736E6ACE422E39BE1A9
:1044F00014E08EDE0ADD87DB06DA86D807D78AD598
:104500000FD495D21ED1A8CF34CEC1CC51CBE3C9A4
:1045100077C80DC7A5C540C4DDC27CC11EC0C2BEE0
:1045200068BD12BCBDBA6CB91DB8D1B688B542B46D
:10453000FFB2BEB181B047AF10AEDCACABAB7EAA70
:1045400053A92DA809A7E9A5CDA4B4A39FA28DA125
:104550007FA0749F6E9E6B9D6C9C719B799A8699CF
:104560009798AB97C496E095019526944F937D92CA
:10457000AE91E4901E905D8F9F8EE78D328D828C80
:10458000D78B308B8E8AF0895689C2883188A6876E
:104590001F879D862086A7853385C4845984F3832D
:1045A00093833783DF828D823F82F781B381748169
:1045B0003A810581D580A9808380628045802E80E4
:1045C0001B800E8005800180028009801480248079
:1045D0003980538072809680BE80EC801F81568126
:1045E0009381D4811A826682B5820A836483C283EE
:1045F00026848E84FB846C85E3855E86DE866287F6
:10460000EB8779880B89A2893E8ADE8A838B2C8C82
:10461000DA8C8C8D438EFE8EBD8F819049911592E0
:10462000E592BA93939470955296379720980E9985
:10463000FF99F49AEE9BEB9CEC9DF19EF99F05A1EE
:1046400015A229A340A45BA579A69BA7C0A8E8A9A9
:1046500014AB43AC75ADABAEE3AF1FB15EB2A0B36C
:10466000E5B42CB677B7C4B814BA67BBBDBC15BEE9
:104670006FBFCCC02CC28EC3F2C459C6C2C72DC9ED
:104680009ACA09CC7ACDEDCE62D0D9D152D3CCD44E
:1046900048D6C6D745D9C6DA48DCCCDD51DFD7E0ED
:1046A0005EE2E7E370E5FBE687E813EAA1EB2FEDB6
:1046B000BEEE4DF0DDF16EF3FFF491F623F8B5F99F
:1046C00048FBDAFC6DFE0000000040008000C100E5
:1046D000010141018101C201020242028202C202C1
:1046E000020343038303C303030443048304C30497
:1046F000020542058205C205010641068106C00683
:1047000000073F077F07BE07FD073D087C08BB0881
:10471000FA0839097809B709F509340A730AB10AA0
:10472000EF0A2E0B6C0BAA0BE80B260C640CA20CE8
:10473000E00C1E0D5B0D980DD60D130E500E8D0E58
:10474000CA0E070F440F800FBD0FF90F36107210FD
:10475000AE10EA10251161119D11D81113124F12DC
:104760008A12C51200133A137513AF13E9132414F8
:104770005E149814D1140B1544157E15B715F01559
:10478000291662169A16D3160B1743177B17B31701
:10479000EB1723185A189218C918001937196D19F0
:1047A000A419DA19101A471A7D1AB21AE81A1D1B31
:1047B000531B881BBD1BF21B261C5B1C8F1CC31CC0
:1047C000F81C2B1D5F1D931DC61DF91D2C1E5F1EA1
:1047D000921EC51EF71E291F5B1F8D1FBF1FF11FD5
:1047E000222054208520B620E62017214821782158
:1047F000A821D8210822372267229622C522F42236
:10480000232352238023AF23DD230B243924672461
:104810009424C124EF241C2549257525A225CE25E5
:10482000FA25272652267E26AA26D52601272C27BA
:1048300057278127AC27D72701282B2855287F28E1
:10484000A928D228FC2825294E297729A029C8295A
:10485000F129192A412A692A912AB92AE02A082B22
:104860002F2B562B7D2BA42BCA2BF12B172C3E2C38
:10487000642C8A2CAF2CD52CFA2C202D452D6A2D9A
:104880008F2DB42DD82DFD2D212E452E692E8D2E48
:10489000B12ED52EF82E1C2F3F2F622F852FA82F3B
:1048A000CA2FED2F0F303130543076309830B93078
:1048B000DB30FC301E313F3160318131A231C231F9
:1048C000E331033224324432E84800000000002083
:1048D000080000001C010000F04800000800002053
:1048E000F00700003C010000010000000000000093
:04000005000000C136
:00000001FF
