:020000040000FA
:1000000090110020B9010000C7010000C9010000E3
:1000100000000000000000000000000000000000E0
:10002000000000000000000000000000CB01000004
:100030000000000000000000CD01000017290000B2
:10004000D1010000D1010000D1010000D101000068
:10005000D1010000D1010000731F000059280000E9
:10006000F11D0000D1010000A92A0000312B000081
:10007000D1010000691100006D0D0000D1010000E8
:10008000D1010000D1010000D1010000D101000028
:10009000D1010000D1010000D1010000D101000018
:1000A000D10100000000000000000000000000007E
:1000B0000000000000000000000000000000000040
:1000C00000F002F800F04CF812A030C808382418EC
:1000D0002D18AC4201D100F043F80FCCA246AB463C
:1000E0000CA730CF2D1B083F3F197C427F1E544484
:1000F0002D090426F441641EAC4201D300F030F80F
:100100000126334200D0FB1A3343984754465D46DC
:10011000DFE70000203B0000403B0000103A02D324
:1001200078C878C1FAD8520701D330C830C101D598
:1001300004680C6070470000704700000023002432
:1001400000250026103A01D378C1FBD8520700D30E
:1001500030C100D50B6070471FB51FBD10B510BD75
:1001600000F062FD1146FFF7F7FF02F0F1FD00F02D
:100170007AFD03B4FFF7F2FF03BC00F0D5FD0000E9
:1001800070B505460C46164602E00FCC0FC5103E72
:10019000102EFAD2082E02D303CC03C5083E042E3B
:1001A00007D301CC01C5361F03E021782970641CF8
:1001B0006D1C761EF9D270BD094880F30888094885
:1001C000804709480047FEE7FEE7FEE7FEE7FEE757
:1001D000FEE7000005480649064A074B7047000045
:1001E0009011002019290000C1000000900B002090
:1001F00090110020900D0020900D002001E004C01F
:10020000091F0429FBD28B0701D50280801CC90776
:1002100000D00270704700290BD0C30702D00270D3
:10022000401C491E022904D3830702D50280801C8A
:10023000891EE3E70022EEE70022DFE77047704700
:1002400070470000F0B50C46871A9C410D46861A8F
:100250009D4103D2C01BA141D21963410D0D1F0D59
:10026000C94EEC1BAE435CD07F057F0D0026002FEE
:1002700051D02D05AC46A943DD020123ED0A1B0533
:100280001D4320231B1B24D41746E7403818714117
:100290002F46E740CC199D402818314661410C0D8E
:1002A00027D161449A4013D50023401C5941520084
:1002B0000ED14008400001224B005205D34207D323
:1002C00005204007C14201D5B04900E0B0493046A1
:1002D000F0BD6B00002A00D001229A181F23203C99
:1002E0001B1B01D5002302E0E540281871410C0DCD
:1002F000D7D0012424050919C407CD0740084908AF
:10030000E40F28436144002CD5D00024401C6141F7
:100310009A40D0D1CDE76A05520DD9D1C90FC9078E
:10032000D5E79C4D4E00002801D0012400E00024B8
:1003300034195F00002A01D0012600E00026BE1912
:10034000954FAC420CD8AE420AD8B44206D0012533
:100350006D05EC42BCD010461946F0BD9942FCD068
:1003600000203946F0BDF0B51FB40C460F46811A87
:100370009F412546861A9D4106D20125ED076F4013
:10038000401ABC4152187B41210D1E0D8D1BAC46FD
:100390007D4D8D437ED075056D0D7CD00D05AE462F
:1003A000AC431B031B0B794D52429D4120236646F3
:1003B0009B1B14D31746F740381800260090744151
:1003C00060462F460741E41900989D402818664171
:1003D00016D4714671189A4025D5012320E0931850
:1003E0002A466A415200002B00D0521C1E23203E98
:1003F0009B1B002B61DD3541EE1728186641E8D5BF
:10040000001876415B1C9A4000D3401C4B05F31842
:100410001524E34010D3002B52D071467118D30F2E
:10042000C01802D3491C05B0F0BD0123DB079A4276
:10043000F9D140084000F6E701225205B21801D177
:10044000002853D00123CC0ADB029943891E002ADD
:1004500008D1020C03D0020C0004103902E002465D
:10046000002020390023550B05D112020823550B1B
:1004700001D152010D23550C01D112011B1DD50CC8
:1004800001D192009B1C150D01D152005B1C20254F
:10049000EE1A01E02CE022E00546F54015439840B5
:1004A000CA1AE10769181305C918002ABBDA032024
:1004B00040070818C10FC9070FE071466118B2E77D
:1004C000F10740080843711071444A000CD0012321
:1004D0005B059A42A7D2C90FC9070020A3E74905C7
:1004E000490D26D1002001E00028F4D100219AE72F
:1004F000284D6600002801D0012100E0002171187C
:100500005F00002A01D0012600E00026BE19224F1C
:10051000A94210D8AE420ED8B14208D001256D05CF
:10052000E94206D01946A802414010467BE79C42AA
:1005300001D0214677E70020394674E710B50C4614
:100540005C4005D50124E4076340FFF70CFF10BDB4
:10055000FFF778FE10BD30B40C465C4004D5012492
:10056000E407634030BC6DE630BCFCE670B50124A6
:10057000E40761400D465D4002D4FFF763FE70BDA5
:100580006340FFF7F0FE70BDFF0700000000F0FFC2
:100590000000F07F0000E0FF0000F87F30B5034668
:1005A000CA02400D1043164D164C0A1502D02043C6
:1005B000002A06DBAA1A002A12DDD040FF2A0BDC33
:1005C00030BD5205520D01D140004008AA1A07D48F
:1005D000D0404042FF2A01DD002030BD0028FCDD74
:1005E0004A00002B01D0012000E000201018012259
:1005F0005205D042F0D8C817C043604030BD00005B
:100600001E04000000000080F0B58B4C0F09254649
:1006100089B0BD437BD01D092646AE43FAD00E46B5
:100620005E402740F60F3E43254071D02401214211
:10063000FBD0FF24AD19A4042D1B039501252D0526
:10064000DB02DB0AC9022B43C90A29431E01090147
:10065000040F130F050121431701880B82039143F7
:100660002D098C46A90B1E438A039543B30B9A03AD
:1006700096433F09BA0B9403A74302962E467E4346
:100680000497B6464E19D7190C4601965443059760
:100690007E43371B7646BF1B3601B646BE0B361966
:1006A00000967646BC043719009C01D3641C009464
:1006B0006400002F01D001263443029E049F75433D
:1006C00066467E430496760034196E003419009411
:1006D000029C019E1C196643751BAE460694654636
:1006E0004519059C05956C43594375460891691A4F
:1006F0000191049E01465143A41B0491611A009C80
:100700000791E10605D061090122114302E072E080
:100710006EE06109089D00272C0A2D066918049DCA
:100720007C412A0A2D066918019D6241AC0DAD027B
:100730006D185441079A910D920255196141029A20
:10074000644658435443069B059A5A43121A131B96
:100750009A0E9B015B187A41010B0005C3185141A9
:10076000220A200644195A419A4200D2491C01200B
:100770004002814203D315230226F64302E01423EC
:100780000326F6432020C51AA9401746AF40DA4099
:100790000A4320460399D8400914731819055118C3
:1007A000039A3843D2075140AC4009D0012294400B
:1007B00006D30022401C5141002C01D140084000CA
:1007C0001E4A934212D3012203989206904207DBFD
:1007D0000520400709181A480143C012414004E0AF
:1007E000032040070818C10FC907002009B0F0BD59
:1007F0000020F107FAE705180C464C4111486D42FC
:10080000A04115D394181A465A410E4864429041AB
:100810000ED301204A004005824209D35A00824289
:1008200006D35940C90F084AC90700201143DDE724
:1008300000200649DAE700000000FF07FE0700007D
:10084000FFFFFF7F0000E0FF0000F07F0000F87F67
:10085000F0B5FF252D04C609C209FF2704462E4026
:100860000137CB093E4348402A402B400746002A27
:100870006BD0002B69D0AA4267D0AB4265D000286C
:1008800000DA32460125ED0529432C4309022002F6
:10089000090AD21A4B0C7F24E31A434C000A7C4409
:1008A000E35C7D242404121914145B00A21888420E
:1008B00001D3521C00E0400049420C465C43241125
:1008C0005C43DB016415E318040A5C43C502200D98
:1008D0000C4644436419250A5D432303EC0C0D4682
:1008E000654300030019EB184C42A34201D35B1887
:1008F000401CD4052018002B07D05B00C91804D376
:10090000401C002901D1400840003F2189048A424F
:1009100009D3002A08DC1106090F04D00321490776
:100920004018C00FC007F0BD01224100120689180F
:100930007F2252069142F6D205214907C84201D5CD
:100940009010F0BDFF20C005F0BD002F00DA324648
:100950001648AA4207D2AB4205D21902090E17D097
:10096000F80FC007F0BDFF2563002D06AB42F9D894
:100970004900A942F6D8AB4201D1A942F2D0A9421E
:1009800001D1002101E061004908D0050843F0BD14
:100990001102090EFBD0FF200243D005F0BD0A462C
:1009A0000146104654E70000422F00000000C07FBF
:1009B00010B501469E240002CA15A307002A02D0E2
:1009C0001843002A04DBA21A002A0CDDD04010BD17
:1009D0001206120E01D140004008A21A03D4D040E2
:1009E00040420028F3DDFF2248001206904201D960
:1009F000002010BDC817C043584010BD1F22030C73
:100A000002D10F2200041CD0030E01D10002083ACB
:100A1000030F01D10001121F830F01D18000921E2C
:100A2000002801DB4000521ED20551180212511855
:100A30001922904004D3491C002801D149084900DB
:100A400008467047C10FC90700D0404201229207F3
:100A50001143D3E701218907D0E710B500F05AF818
:100A6000006810BD10B5044600F054F8046010BDD5
:100A700070B505464800440D124B0020002C0AD0EA
:100A8000634008D09A4206DA6642B24203DD12059C
:100A90004019514170BD002C08D0002B09D0C90F5E
:100AA000C907002AF6DB084A114370BDC90FC90700
:100AB00070BD28460A03104302D00020034970BDD0
:100AC000284670BDFF0700000000F07F0000F87F9F
:100AD00010B5FF22C30D134009D05A4007D09142F0
:100AE00005DA5C42A14202DDC905081810BDC40F39
:100AF000E407002B06D0002A06D0002902DBFF20E5
:100B0000C0050443204610BD4102FCD0004810BD82
:100B10000000C07F0048704708000020F8B5264C50
:100B20004E00069DA6420AD8A64201D1002806D151
:100B30005E00A64203D8A6420AD1002A08D00D249E
:100B40002404254233D02946002000F094F8F8BD53
:100B50000C461C4311D4994207D0C81A02D3EFF3B4
:100B60000080F8BDEFF30080F8BD801A02D3EFF3E8
:100B70000080F8BDEFF30080F8BD09242407E500EC
:100B80008B4207D0581A02D3EFF3008006E0EFF350
:100B9000008007E0101A03D3EFF30080A04303E0C6
:100BA000EFF30080A043284380F30088F8BD009550
:100BB00000F078F8F8BD00000000E0FF10B5FF235A
:100BC0001B0644009C421DD84C009C421AD8034688
:100BD000124A0B4307D4401A02D3EFF3008010BD32
:100BE000EFF3008010BD081A03D3EFF300809043A9
:100BF00005E0EFF3008001219043C907084380F32B
:100C0000008810BD0D231B041A4204D01146002099
:100C100000F031F810BD00F04FF810BD000000905A
:100C200000487047080000207546FFF7F9FFAE4600
:100C3000050069465346C008C000854618B020B577
:100C4000FFF7C8FA60BCB64600260027C0C5C0C57D
:100C5000C0C5C0C5C0C5C0C5C0C5C0C5403D4908A8
:100C600049008D46704710B50446C046C046204630
:100C7000FFF77FFA10BDC80212D54803400F0028C5
:100C800004D0C803C043012188407047EFF30080BF
:100C90000001000903210907084380F30088704719
:100CA0000020704710B500200249029A00F00CF8AD
:100CB00010BD00000000F87F10B5024800F004F8F5
:100CC00010BD00000000C07F10B50C461107090FD1
:100CD000092904D00A290AD008290CD104E01146B8
:100CE0000820FFF7C8FF06E0510606D501E05106CF
:100CF00001D50120C007214610BDD10607D501014D
:100D00000909CC084907000E0006044309E0410F19
:100D100020024907000A0143200E00061D22D1418E
:100D200001430846E7E7000001491820ABBEFEE793
:100D30002600020070470000B0B59C4C7F21204681
:100D400000F068F908220025204629462B4600F0CD
:100D50004BF9012120462A462B4600F045F9022195
:100D600020460A462B4600F03FF9B0BDF0B581B0F1
:100D70008E4C01262046314600F081F9002800D132
:100D8000BFE0614F2021384601F0EAF85F4D286846
:100D90003F281FDC0026304601F026FD2046314664
:100DA00000F03CF96C490A681018086001212046DF
:100DB00000F034F957490A681018086002212046EB
:100DC00000F02CF958490A68101808602868401C7F
:100DD00028608EE0402824D1412028605E490868C0
:100DE000801108604B490A6892110A604E490A68EE
:100DF00092110A60FFF726FE584902F033FC584969
:100E0000FFF726FD574902F02DFCFFF7D1FD5649AB
:100E1000088000F01FFA304601F0E6FC3F480681EA
:100E200067E000262046314600F0F8F8384D28608B
:100E300001212046009100F0F1F836490968401A76
:100E4000354F38600221204600F0E8F82968334D1C
:100E5000E9803B6832498B4200DC0B46314A9342C1
:100E600000DB13463B60AB802F4B1B68C01A8842E7
:100E700000DC0846904200DB10462C4908602880C0
:100E800000F0BAFB2A4F3868411C39602949884272
:100E900003DB2E81304601F0A7FC386826498842E2
:100EA00004DB009828813E6001F09EFC234EB08850
:100EB000414289B2224D2960686071884A4292B2EB
:100EC000AA60E96037887A4292B22A611D4A10808E
:100ED0001D4801801D480780F088FFF7BBFD1C49B5
:100EE00008600820305EFFF7ADFD1A4908606F61A9
:100EF000B34F0121204600F08DF82021384601F043
:100F00002DF801B0F0BDC046000D01406800002082
:100F1000840B00208400002080000020400B002073
:100F20000180FFFFFF7F00007C0000207800002090
:100F30006C000020D8B80500D1DD0600580B002059
:100F4000000C01407C0B00207E0B0020800B002059
:100F5000900000208C000020880B00206666664010
:100F600000FEFF460000244200000020B0B588B01B
:100F70006C46204600F0ECF80020608001212180C2
:100F8000A080E08020816081A081E081A082032098
:100F900060822182054D7F21284600F03BF82846DB
:100FA000214600F077F808B0B0BDC046000401400B
:100FB0007047000010B588B06C46204600F0C8F8B5
:100FC000002002900190009005900690079001206B
:100FD0000390000404900348214600F05BF808B039
:100FE00010BDC0460005014010B5012B04D10123FE
:100FF0008B40446E1C4344668B071B0F0F249C40A0
:101000000907890F89004018016DA1439A400A43DE
:10101000026510BD94228150704700000F292BD823
:101020007944097949008F44240713170D1B1F19B0
:101030002311210B0F1D0915001D1AE0383018E08F
:101040002C3016E0103014E0303012E0243010E084
:1010500008300EE03C300CE00C300AE01C3008E0B8
:10106000143006E0343004E0183002E0283000E0AC
:101070002030006800B27047002000B2704702467E
:10108000903252689023C0580A400240501E82415C
:1010900010467047B0B50C4605460120014601F0E8
:1010A000DDFB20886188014390202950E08A0002FE
:1010B000A18A09010143608A08432866208AA8673B
:1010C000A0880003E18889020143208900020843C7
:1010D000618909010143A089C0000843E1890143F6
:1010E0006967608BC4216850C435A08B6860E08B51
:1010F000A860A1204401204601F090FB124D286019
:10110000201D01F08BFB68602046083001F086FB53
:10111000A86020460C3001F081FBE86020461030CA
:1011200001F07CFB094D28602046143001F076FB6D
:1011300068602046183001F071FBA8601C3420461E
:1011400001F06CFBE860B0BD800401408005014007
:1011500010B504461221FFF76DF80020208301200E
:10116000E082A082608210BD704710B588B06C46E6
:10117000204601F0C5FB0120029000200090039062
:10118000FF2101910490059006900790204601F000
:1011900073FB08B010BD000010B586B001AC20464E
:1011A00000F0E0FE00200490039001200290202037
:1011B00001900348214600F01CFE06B010BDC04659
:1011C000000D0140B0B5194A0123136000240460EA
:1011D0000C7A8460CC68C4600C6904614C6944601A
:1011E0004C78A4028D782D022543CC78A4012C43A1
:1011F0000D792D0125434C79E4002C438D796D0048
:101200002543CC792C430460097800290BD0084988
:1012100040180521C841032805D8800005A10858B9
:101220005168014351601360B0BDC0468012014057
:1012300000EEFEBF010000000200000004000000FC
:10124000080000000021016041608160C16001610F
:1012500041617047F0B585B0C348C44AFF21019190
:1012600011541046C24D00262E71EE700127AF704A
:101270006E702E707030BC02BE492246FEF780FFB1
:1012800047200001B9490818BA492246FEF778FFFD
:101290006E71AE71B848B5490818B1010180801C63
:1012A000761C39028E42F8D1B448B5490F2202F0BB
:1012B00011F80024B34B2246FFF7A6F906460D4667
:1012C000F8070F4604908743AF4B30463946224615
:1012D00001F0A0FE002810D1AC4B30463946224622
:1012E00001F0A3FE00280DD10022A84B304629466C
:1012F000FFF724F901F052FF01E030462946FFF7DD
:101300004DF90446A248994A14522D204001A149A2
:101310005052A148A149082201F0DCFF05460C46C5
:101320000F46049887430026974B28463946324695
:1013300001F070FE002810D1944B28463946324601
:1013400001F073FE00280DD10022904B2846214663
:10135000FFF7F4F801F022FF01E028462146FFF7ED
:101360001DF906468E4881490E528E488E49082244
:1013700001F0B0FF06460D460C4604988443002257
:10138000814B30462146029201F044FE002811D1E3
:1013900000277E4B304621463A4601F046FE0028A3
:1013A0000DD10022794B30462946FFF7C7F801F0EE
:1013B000F5FE01E030462946FFF7F0F807467B4886
:1013C0006A490F527A480299405EFFF73BFB01469B
:1013D00078480091FFF73CFA0746774902F042F956
:1013E0000F2101F0AFFF06460446049884434B20CA
:1013F00001062046039101F023FE002809D13F2079
:1014000005062046294601F026FE002803D00020CC
:1014100009E0304605E03046294602F089F801F03F
:1014200021FFFFF7C5FA514988656449384602F043
:1014300019F90F2101F086FF0446064604988643F9
:101440003046039901F0FCFD002809D13F20050634
:101450003046294601F0FFFD002803D0002009E0B6
:10146000204605E02046294602F062F801F0FAFE27
:10147000FFF79EFA3D4948654E490098FFF7E8F9A5
:1014800004460646049886433046039901F0D8FD89
:10149000002809D13F2005063046294601F0DBFD32
:1014A000002803D0002009E0204605E02046294618
:1014B00002F03EF801F0D6FEFFF77AFA404C2B4DD1
:1014C000285340484049295040484149042201F0EE
:1014D00001FF019B1C333F4AAB523F4AAA4BAB5220
:1014E00001F0C4FDFFF75AF83C496852285FFFF746
:1014F000A9FA01463A48FFF7ABF901F01BFEFFF7E6
:1015000057FA1121C90168523648286636480F2615
:10151000314601F017FF04460746049887433846D2
:10152000039901F08DFD00280FD13F2005063846B4
:10153000294601F090FD0028029809D1204629464D
:1015400001F0F6FF01F08EFE00E02046FFF730FAD2
:10155000F3012649054A535225495166106525482D
:10156000D06505B0F0BDC0469E0A00009400002082
:10157000380B0020243800008E080000F168E38852
:10158000B5F8043F00009040000030430000E03F09
:101590007E08000088080000D6A3D83A0AD7E33FA7
:1015A0009A0A00000300C8060000F03F9C0A0000F1
:1015B00000000020000020416E12833C0000184310
:1015C0008A08000084080000750075002235C17883
:1015D0002BFBAC3F8C0800007A080000820800005A
:1015E0001E85E340409C00003EC32E3A7C0800006C
:1015F000C0CCCC3C40333333F0B596B05D4FF86E81
:10160000401C00D2F866B86E401C00D2B8665A483A
:10161000395C002911D05949785C401E042841D812
:101620007844007940008744022F1C280B00F86E94
:10163000FA2851D30520785431E05149395273E0EA
:101640005048007A002859D0F86E4F4A90425BD338
:10165000032078545520400100213954B966F966B9
:1016600062E0F86E494A904222D90620785455200B
:10167000400100213952F96656E04248007A0028BC
:1016800031D0434805214EE03E48007A01282DD153
:101690000120785455204001FF21023139520020A9
:1016A000F86641E0F86E394A90421CD8384839E073
:1016B000B86E384A90422AD33748385AA9221201C4
:1016C000BA5A101A02B2D2135040801A00B2334AEA
:1016D00090421CDC042022E02A48007A002802D034
:1016E0002B4802211FE0022078541DE028480121E8
:1016F0003954552040010021395215E00220785418
:101700005520400100210EE0214803210BE01D4837
:10171000007A002802D01E48042104E002207854F8
:1017200055204001012139541948385C421ED0B27D
:1017300000210528134600D3CB43194C385D3B5597
:10174000042A00D9B0E0C0467A4412795200974486
:1017500002932F69080013480021395287200001A5
:1017600090E01148385A0F497852872000010F49FC
:1017700088E0C04694000020A20A0000A30A0000EE
:1017800001020000400B0020A8610000D3300000DF
:101790009F0A000098190000920A0000AF040000A0
:1017A0009E0A00008E0A0000940A00000000FF7FDD
:1017B000022805D0F94800210171B9603960C17073
:1017C000B868F860F6483A5EF648385E50438001E3
:1017D000C513552040013C5CF049002C04D0087929
:1017E000012801D06842F86038687860601E23469E
:1017F00083410B71F8684019B86080124243D213DC
:10180000002C04D0C878012801D05042786087208D
:101810000001E54C3C5078688018E44AB852CB701F
:10182000386041E0032805D0E1483952B962DB480D
:1018300001228270DE4AB85ADE4BC318DE4C3B539D
:101840004342872424013B53401E00B2002800D4A9
:101850000846DA49884200DC0846B852D048385E6B
:10186000D749795E41438801C213BB6ACB49887866
:10187000000609D118460AE0CC48002139528720D9
:101880000001D04939500FE0CF48385A801A55240A
:1018900064013C5D002C00D018468018C34AB85241
:1018A000621E94418C70B862C848395C481E14911D
:1018B0008141BA484278159141700B92501E4142C5
:1018C0004141C3483A5E0420C24E305E1346434352
:1018D000DC1100230993F35EC01850434042C0114D
:1018E000001BBD4C44432514B048385A0D90C40920
:1018F00060003E467036305E1290109568435A4341
:101900005202131480340122119252020A9294431B
:101910006200B65E32460F935A438018C40BAF483C
:101920003A5A87200001385A801A03B20620062B43
:1019300000DB0346009020B20524E443A34200DC10
:1019400023469A180C9212B2121AA548824200DB62
:1019500002460594A348824200DC02469048385E65
:1019600013900E925043C213786D800103145A43B2
:10197000FC6D119880070890001B824200DB024634
:101980000390159841400320800707902018824259
:1019900000DC024602907F6A002901D1384600E04F
:1019A00050420B99032900D138468118A14200DB2F
:1019B000214660428142F64A00DC014604905162B1
:1019C000F74800780190401E154647424741069669
:1019D0003046109A5043129A0F9E7243801AC00BE1
:1019E000F54AAA5AEF4EAE5BB61A36B2062E00DBA7
:1019F000009E00B2059DAE4200DC2E46B2180B924E
:101A000012B2121AEA48824200DB0246E9488242D8
:101A1000049D00DC024613985043C01343430398CF
:101A2000834200DB0346159847400298834200DC5E
:101A30000346D748006A002F01D1064600E05E4207
:101A4000019F032FD24F00D10646F318A34200DBBB
:101A50002346AB4200DC2B463846BF6D0362159827
:101A6000CF4E30700E9878430818A04200DB204615
:101A7000A842099E00DC2846400001147A439818C9
:101A8000A04200DB2046129A4A43A842C04F00DC25
:101A9000284640000014069C234643439A18D30B63
:101AA000129A42436143881AC50B149800283246A3
:101AB0000E931DD0C148395AC1483C5E28B26043DC
:101AC000FA6A12923B6B7A6BBE6B801A4843001223
:101AD000BC4ABF5A7E43321282180E9800B260434D
:101AE000129C001B484300127B43A94F19120E1889
:101AF0001295BA633E63AA4B997915989871B248CA
:101B0000385E1123DB01FB5E43430F9C121B5A43DB
:101B10001024201A00B27C694443A21812117A6181
:101B2000109C341B5C433B69434318190011386116
:101B30007A63F86247231B01FB180A9E751E3C6CF2
:101B4000E4092C4065005D5F4543ED0B8034B443F0
:101B50009E48844200D304466000185E5043C00B88
:101B60002818000440420214139810925043C013E6
:101B70003C6E7A6EA401241444430898801A84426F
:101B800000DB044607981018844200DC0446FD6C14
:101B9000C8B2012828D1284627E0C046380B0020CB
:101BA0007E080000840800000000CC0C8E0A0000B3
:101BB00078080000CC0C0000720800007BF4FFFFE6
:101BC0008608000098190000960A0000A10A00008B
:101BD00088080000400B0020CA9300007408000031
:101BE000FF7F00000080FFFF60421499002900D1B0
:101BF00028460619964200DB16465442A64200DCEF
:101C00002646F86B0F907248385EFE64644B5D792F
:101C100015995971109948433318934200DB1346C4
:101C2000A34200DC2346D813139941438A12E8B239
:101C3000012801D10F9800E05042149C002C00D1E3
:101C40000F988418786C201A00B26249795E41437B
:101C50000814F9694018C0000511FD611814B9692C
:101C60004018C0000211BA61B86C396D41430802D6
:101C7000C013C1174840401AFF2800D3FF2040007E
:101C800038185549465AFC633C647C64BA640820A1
:101C90004049085E01280E985ADB13961495159456
:101CA00000B24F4941430814129D2AB2D103494260
:101CB0000C1401190EB296420B4600DC2B461DB2E5
:101CC000241A27B2AF42254600DC1D46964208463C
:101CD00000DB129802B29742224600DB02465019FE
:101CE00000B20028119A00DC0022101A4710781860
:101CF00002B23C4DAA4200DC2A4611988603B24249
:101D000000DB3246384822490B5E5A43D00B5A104A
:101D1000101A324948801298381800B2A84200DCE4
:101D20002846B04200DB30465843C00B101A0880EA
:101D3000381900B2A84200DC2846B042144F159C66
:101D400000DB30464343D80B121A149D139E03E068
:101D500022480022428002800F480D9939521248D1
:101D6000395212480C99395213480B9939521F486D
:101D7000395AA9231B01F952B108091939520748E8
:101D80003952164882800581C18016B0F0BDC04628
:101D900094000020400B0020920A0000940A0000EA
:101DA000380B002072080000960A0000740800003A
:101DB000FF7F00000080FFFF760800009C0A000003
:101DC0008A0800009A0A000082080000FEFF000056
:101DD0008C0800007A0800008E080000580B0020D4
:101DE000B4DD000000C0FFFF7C080000980A00007E
:101DF0007047B0B50D4604460121C80200F068FDE9
:101E000003CD083D032909D0012904D000290BD1B5
:101E10006168814304E06168014307E06168014350
:101E200061602168014304E0616881436160216869
:101E3000814321602868A968002902D021690143F3
:101E400001E02169814321612868E968002902D005
:101E5000A169014301E0A1698143A1612868296961
:101E6000002903D0E1690143E161B0BDE16981432B
:101E7000E161B0BD0F2954D87944097949008F44F4
:101E8000073E2A34184551395F2558131F4A0E2F33
:101E90003149E131036A0B40991801627047C16A08
:101EA0002C4B0B4011023AE0816A294B0B40110385
:101EB00043E02949E131436A0B4099184162704778
:101EC0002549E131C36A0B40991829E0816A224B08
:101ED0000B40110131E0016A1E4B0B40110212E070
:101EE000C16A1B4B0B40110319E0016A184B0B40F0
:101EF000110308E0416A164B0B40110316E0016A1A
:101F0000154B0B401101591801627047416A124B81
:101F10000B4011010AE0C16A0F4B0B401101591827
:101F2000C1627047416A0B4B0B4011025918416264
:101F30007047816A074B0B40110259188162704744
:101F40000549E131836A0B40991881627047C046A8
:101F5000FF0F0000FFF000000FFF0000416370471B
:101F6000016370470021016041608160C1600161CF
:101F7000704770470F208002014908607047C046D3
:101F80000417014070B586B0002000F02DFC01ACB4
:101F90002046FFF7E7FF154D042103262846324669
:101FA000FFF768FF052128463246FFF763FF062149
:101FB00028463246FFF75EFF072128463246FFF7E4
:101FC00059FF082128463246FFF754FF09212846C9
:101FD0003246FFF74FFF3F200001019001200290A1
:101FE00028462146FFF705FF06B070BD400D0140B1
:101FF000F0B5F5B03CAC204600F0EEFA2620002506
:102000002554012738020290A08440953D483F9016
:102010003E903D903C483C90419542954495380611
:102020004390469547954895384849904A95384891
:102030004B90204640305621FEF7FEF8FF26023630
:102040009620019026522046963086804680204673
:102050009C302421FEF7F0F8C0200C21009121547F
:102060002046C03085834583C13418212046FEF7C1
:10207000E1F8749703AC204600F0AEFA44202552F4
:10208000212025546C202552A22025522046A23022
:1020900000998177214621310F714D71E777A58530
:1020A00021466C310D81029BCB8065778D70057365
:1020B00039225201109260322280BA023B920D9571
:1020C000049505950695134A1292019AA6528A2202
:1020D000A5522246963296805680224648329580F6
:1020E00022468A3255809580CF8145838B82159513
:1020F00009486721016009482290204600F010F845
:1021000075B0F0BD24FADC05B80B000049F40000FE
:102110007300730060006000140E014001010100B3
:10212000F0B581B004460121880200F0D1FBFC48E3
:10213000FC490160214620318A794B799B00134389
:102140000A79D2001A43CB781B0113438A785201D3
:102150001A43E37F9B011343A27FD2011A434978BC
:10216000090211432022A25C52020A43617F8902C4
:102170001143227FD2020A43EB4BDA67A18E196327
:10218000E18E5963218F9963618FD9632188196426
:102190006188596422466032917CD57C2D010D43C3
:1021A000117D49012943557DAD010D43917D090202
:1021B0002943D57D2D030D43117E49032943557EC7
:1021C000AD030D435D67A18F1966E18F596640210C
:1021D000615A9966254640356988D96601460346A5
:1021E0002C39FB4E0E602146A0318F78CE787600D8
:1021F0003E430F7ABF0037434E7AF6003E438F7A54
:102200003F013743CE7A76013E430F7BBF01374310
:102210004E7BF6013E430F79BF0237434E79F602FB
:102220003E438F793F033743CE7976033E438F7B1E
:10223000BF0337430646403E3760CE7B0F7C7F00AE
:1022400037434E7DB6003E438F7DFF003743CE7D42
:1022500036013E430F7E7F0137434E7EB6013E433B
:102260008F7EFF0137434E7CB6023E438F7CFF02D8
:102270003743CE7C36033E430F7D7F033743CE7E0C
:10228000B6033E430746383F3E600E7F36014F7F20
:102290007F0137438E7FB6013E43CF7FF801304345
:1022A0002746C0377E7836020643B878400230436E
:1022B000303B1860C648C54B1865A8889865E88803
:1022C000D865C020205C1867387EFE7D7600064306
:1022D000B87D800030437E7DF6000643387D0001E6
:1022E0003043FE7C76010643B87C800130437E7C1F
:1022F000F6010643387C00023043FE7B760206433B
:10230000B87B800230437E7BF6020643387B0003B5
:102310003043FE7A76030643B87A800330437E7AF0
:10232000F6030643A84B184628380660F8783E792D
:1023300076000643787980003043BE79F600064384
:10234000F879000130433E7A760106431846243876
:102350000660287A6E7A7600064350788000304313
:102360006026A65DF6000643687D000130432E7DA1
:1023700076010643107B80013043268DF60106432B
:10238000A87A00023043EE7A76020643D0788002C3
:1023900030439678F6020643E87D00033043AE7D75
:1023A00076030643507B80033043668DF603064375
:1023B00018461F4620380660287B6E7B7600064351
:1023C0005079800030431679F6000643687E00019C
:1023D00030432E7E76010643907B80013043A68DEC
:1023E000F6010643A87B00023043EE7B76020643EB
:1023F000D079800230439679F6020643E87E0003E6
:102400003043AE7E76030643D07B80033043E68DB7
:10241000F603064318461C380660287C6E7C76005E
:102420000643507A80003043167AF6000643687FF0
:10243000000130432E7F76010643107C800130433B
:10244000268EF6010643A87C00023043EE7C76021D
:102450000643D07A80023043967AF6020643E87F3C
:1024600000033043AD7F6D030543507C8003284358
:10247000658EED030543184618380560A088534B58
:102480001860E0885860208998606089D860A089C9
:102490001861E0895861208A9861608AD861A08AB1
:1024A0001862E08A5862208B9862608BD862802024
:1024B000205CC000D37F9B000343907E0001184343
:1024C000D37E5D010543234680335878C0012843FD
:1024D000557F2D020543907F80022843127FD2034F
:1024E0000243384610380260D87980001A7AD20048
:1024F0000243987800011043DA7852010243587A77
:10250000C00110435A7912020243987980021043A5
:102510001A79D203024338460C380260D87A05E0B3
:10252000C00C0140ADDE0000000C01409A7A520060
:102530000243587B800010431A7BD2000243D87BB1
:10254000000110439A7B52010243587C80011043E2
:102550001A7CD2010243D87C000210439A7C5202BA
:102560000243587D800210431A7DD202024338464E
:1025700008380260987DDA7D52000243187E8000A0
:1025800010435A7ED2000243987E00011043DA7E47
:1025900052010243187F800110435A7FD201024347
:1025A000987F00021043DA7F52020243A020205C91
:1025B000800210434978C9020143381F0160054871
:1025C000386001B0F0BDC046C00C0140000C0140B5
:1025D000FFFF0000FECA000080B5E421FDF72CFEDD
:1025E00080BD000070B586B001AD2846FFF7BAFC8B
:1025F00000240494039402200290A02001902E4E07
:1026000030462946FFF7F5FB052130462246FFF705
:1026100031FC072130462246FFF72CFC0420012420
:10262000214600F01BF91020214600F017F9202068
:10263000214600F013F906B070BDC04670B584B0F5
:1026400004200124214600F009F91020214600F061
:1026500005F901AD284600F0C1F803940026029662
:10266000032001903046294600F040F830462146CC
:1026700000F0A2F804B070BD70B586B001AD284678
:10268000FFF770FC002404940394022002900320BE
:1026900080020190084E30462946FFF7AAFB0A2126
:1026A00030462246FFF7E6FB0B2130462246FFF775
:1026B000E1FB06B070BDC046C00D014070B584B0EE
:1026C00001AC204600F08AF8012503950020029015
:1026D0000320019002263046214600F007F83046DC
:1026E000294600F069F804B070BD0000F0B5744AE6
:1026F0007F4B13602E4B1D685C69032854D8C0467D
:102700007844007940008744012C0F1E4868002857
:1027100002D1284E012737700326B54328432025D0
:10272000ED431C3502262AE04868002802D1214EDC
:10273000012737703026B543000128432025ED439B
:10274000103504261BE04868002802D1194E0127E5
:102750003770C026B543800128432025ED43052668
:102760000DE04868002802D1124E012737700C2670
:10277000B543800028432025ED43183503262C401F
:102780008D68B54025430B4C2478641E6642664133
:1027900074000C60710203242402A043081818601E
:1027A0005D6100201060F0BD28462546EBE7C0467D
:1027B0001000004088000020414A4D4B1360002962
:1027C00004D0032805D8401CC0B200E00020024914
:1027D00008600020106070471800004000210322AC
:1027E00002604260816070470A490B4A0A610A68C8
:1027F000002805D040231A430A604868184305E0C2
:102800004020C3431A400A604868184048600020CE
:1028100008617047B00C0140ADDE000010B50C49F6
:102820000968491E4A1E9141CA02012149040B68E8
:10283000084C23409A180A60592212064A604860E0
:10284000C868952212064A600A6822400A6010BDD4
:10285000A0000040FFF7FFFF70470000184A244B1C
:102860001360184A002903D01168014311607047B2
:10287000116881431160704710B511491C4A0A6004
:1028800010494A68104B13400468E203D2184A60AA
:102890000122012C01D0920200E092030B680B4C44
:1028A0001C4012190A60426883681B029A18CA65A4
:1028B000C268CA6602694A674069886710BDC04637
:1028C000A800004024000040FF7F0000FFBB000084
:1028D000064AEB4BD360012902D11168014301E0A4
:1028E0001168814311600020D06070479C00004057
:1028F000837A0000014800687047C0460400002049
:1029000000210122FF230AC0026041608160C16092
:10291000016141617047704710B588B06C46204630
:10292000FFF7EEFF01200290002000900390FF21AE
:10293000019104900590069007902046FFF79CFFB8
:1029400008B010BDB0B50D4604463A48201808211D
:10295000C841032805D88000374908580121FFF7EE
:10296000B7FF2846803035492A78002A00D04A1C13
:1029700023680B401343236069684907AA6812075C
:102980000A43296FC90611436A6F92060A43E96830
:10299000490611432A6912060A436969C9051143A8
:1029A000AA6912050A43E969C90411432A6A920413
:1029B0000A43696A49041143AA6A12040A43E96A8C
:1029C000090311432A6BD2020A43696B890211433E
:1029D000AA6B52020A43E96B090211432A6C1201E5
:1029E0000A43696CC9001143AA6C92000A43E96C5E
:1029F000490011432A6D0A432260696D6160E96DE7
:102A0000E160296E2161696E6161A96EA161E96E63
:102A1000E161A96F4902EA6F12020A432AC80068FD
:102A2000C90111439A000A436900114301436162DD
:102A3000B0BDC04600FAFEBF243C0000FFFFFF7F90
:102A400080B5001D8C21FDF7F7FB80BDF0B585B08A
:102A50006D462846FFF786FA0024039402940194F9
:102A60000127F80300900F4E30462946FFF7C1F9C1
:102A70002846FFF777FA03940294019700973746A8
:102A8000403738462946FFF7B4F90F210425304670
:102A90002A46FFF7EFF9384621462A46FFF7EAF9BA
:102AA00005B0F0BD000D014010B5744C0121204669
:102AB00000F041F8002803D00121204600F039F849
:102AC00010BDC046F0B58BB006AC204600F0DAF879
:102AD00000202081A07220824B20C0010690012698
:102AE000300207900F4F09976D462846FEF7AAFB64
:102AF00019202872A87D02210143A9753006009093
:102B00005E4E30460C3004900748401C03900197FD
:102B100006482946FEF756FB3046214600F012F8DB
:102B20000BB0F0BD00000101620B002060120140FB
:102B3000704701627047026A0A40C0691040411E36
:102B400088417047F0B583B00D460246474C484F68
:102B5000484E4948824217D04848824259D1029291
:102B600001218803FFF7B4FE2F68FFF7C3FE216839
:102B7000491C00F031F93168090272685118491C8A
:102B800000F02AF9064613E002920121C803FFF77C
:102B90009FFEFFF7AFFE2168491C00F01DF9396860
:102BA00009027A685118491C00F016F907462E6888
:102BB000FFF7A0FE394600F00FF90746FFF79AFE2F
:102BC000314600F009F906468742384600D83046BB
:102BD000000C0190441C3846214600F0FDF8401ED0
:102BE000C1B2234A5160000AC0B21060304621468B
:102BF00000F0F2F8401EC1B21E4A5160000AC0B295
:102C000010601F4819490861019808600020086198
:102C1000029AE9791020012903D0022903D1082161
:102C200003E0002101E00021084601432879084320
:102C3000697949000143A87980000843297A49014C
:102C40000143687A80010843A97AC90101431160F0
:102C5000287C697C490001435162A8891061E87BA6
:102C60009061A87BD06103B0F0BDC04698000040E1
:102C70000410014004110140001101400010014006
:102C8000837A000000210182817381810181817238
:102C90004B22D201026041607047704710B5A4B06A
:102CA0006C462046FFF7CCFE0121217000200A90DF
:102CB000019002900390049005900C900991089067
:102CC0000790052106910D900E900F901B901A9081
:102CD000199016900348159003482146FFF732FEDD
:102CE00024B010BD00D8B8050009014015490422E0
:102CF0000A60154908607D21C9004143014801600F
:102D00007047C04670000020F0B5002819D000219F
:102D10000C4A0D4B0D4C0D467D26F6001F6877437F
:102D20005760916016680127374317601668264080
:102D3000012EFBD016681660002696606D1C854239
:102D4000EAD1F0BD10E000E07400002001000100B5
:102D500072B6FEF70AFAFFF70DF9FEF71DFAFFF754
:102D600075FEFFF79AFFFFF70DF9FDF7E5FFFEF798
:102D70001FF9FFF737FCFFF77FFCFFF7A3FEFFF714
:102D80008DFFFFF735F9FEF7F1F8FEF713F9FFF7BE
:102D900055FCFFF793FC6020FFF7A8FFFF2000041D
:102DA0000B490A68824301208305D2180A60820217
:102DB00008490A6008220A6002040A6082030A6065
:102DC000C003086062B66420FFF79EFFFBE7C046C1
:102DD0000CE400E000E100E043088B421AD300223B
:102DE00003098B4279D3030A8B425ED3030B8B42D8
:102DF00042D3030C8B4227D30902FF2212BA030CE1
:102E00008B4202D31212090203D0030B8B4233D33D
:102E10001AE0D3E0411A8041401C704703460B433F
:102E200071D443088B42F5D3002203098B4254D35B
:102E3000030A8B4239D3030B8B421DD3030C8B4205
:102E400002D394466EE0090AC30B8B4201D3CB0335
:102E5000C01A5241830B8B4201D38B03C01A5241DB
:102E6000430B8B4201D34B03C01A5241030B8B42DD
:102E700001D30B03C01A5241C30A8B4201D3CB02C8
:102E8000C01A5241830A8B4201D38B02C01A5241AD
:102E9000430A8B4201D34B02C01A5241030A8B42B0
:102EA00001D30B02C01A5241CDD2C3098B4201D3C8
:102EB000CB01C01A524183098B4201D38B01C01A46
:102EC000524143098B4201D34B01C01A52410309BD
:102ED0008B4201D30B01C01A5241C3088B4201D36C
:102EE000CB00C01A524183088B4201D38B00C01A19
:102EF000524143088B4201D34B00C01A5241411A40
:102F0000524110007047CA0F00D04942031000D34D
:102F10004042534000229C4603098B422DD3030AB2
:102F20008B4212D38901FC2212BA030A8B420CD3C2
:102F3000890192118B4208D3890192118B4204D3EB
:102F4000890137D0921100E08909C3098B4201D36E
:102F5000CB01C01A524183098B4201D38B01C01AA5
:102F6000524143098B4201D34B01C01A524103091C
:102F70008B4201D30B01C01A5241C3088B4201D3CB
:102F8000CB00C01A524183088B4201D38B00C01A78
:102F90005241D9D243088B4201D34B00C01A52414F
:102FA000411A00D201465241104663465B1000D3DD
:102FB0004042704763465B1000D3404201B5002198
:102FC000004201D0C9430846C046C04602BD0000C9
:102FD00010B50721024A00200907FDF749FD10BD81
:102FE00001030000034A10B500201107FDF740FD62
:102FF00010BD000001FDFFFF10B507206121000793
:10300000FDF766FD10BD5E2110B5C9430807FDF749
:103010005FFD10BD10B500F0F3F9EFF30080800004
:1030200001D5012010BD002010BD10B500F01AFA26
:10303000EFF30080800001D4012010BD002010BDFE
:1030400010B500F0BBFAEFF30080800001D501203D
:1030500010BD002010BD10B500F0DAFAEFF30080CB
:10306000800001D4012010BD002010BDF8B54A0039
:103070002B4B520DD6182B4A0C460546142E2BDA34
:10308000002E12DA284BFDF759FA0022134600F001
:103090001BFA40D2002C03DA0124E40700253AE0B1
:1030A0002046284337D0214C14E0214F0B46F740EF
:1030B0003B402B4331D01C4BFDF740FA0022134616
:1030C00000F002FA27D2002C03DD01200005F040B9
:1030D0000419BC4300251EE0332E1EDC33460027B6
:1030E000143BFF43DF40384217D00F4BFDF73EFA49
:1030F0000022134600F0E8F90DD2002C0ADD142E50
:103100000CD03420811B012088404019A84200D2F5
:10311000641C0546BD4321462846F8BD641CF9E7FA
:1031200001FCFFFF9C7500883CE4377E0000F03F07
:10313000FFFF0F00F8B541000D0E7F3D0446172D2F
:1031400027DAFF273F061349002D0FDA00F0F0F9C8
:103150004100B9421CD800281ADD002C01DAFC011C
:1031600016E0002C14D07F24E40511E00A4EEE4056
:1031700030420ED000F0DCF94100B94208D80028F6
:1031800006DD002C03DD0120C005E8400419B4432E
:103190002046F8BDCAF24971FFFF7F00F8B54A002A
:1031A0002B4B520DD6182B4A0C460546142E2BDA03
:1031B000002E12DA284BFDF7C1F90022134600F069
:1031C00083F940D2002C02DB002425463BE060005E
:1031D0004008284337D0214C14E0214F0B46F740DC
:1031E0003B402B4331D01C4BFDF7A8F9002213467E
:1031F00000F06AF927D2002C03DA01200005F04024
:103200000419BC4300251EE0332E1EDC3346002784
:10321000143BFF43DF40384217D00F4BFDF7A6F9B0
:103220000022134600F050F90DD2002C0ADA142EB9
:103230000CD03420811B012088404019A84200D2C4
:10324000641C0546BD4321462846F8BD641CF9E7C9
:1032500001FCFFFF9C7500883CE4377E0000F0BF56
:10326000FFFF0F00F8B541000D0E7F3D0446172DFE
:1032700028DAFF273F061449002D10DA00F058F92C
:103280004100B9421DD800281BDD002C01DB0024C1
:1032900017E00120C007844213D00C4C11E00C4E03
:1032A000EE4030420ED000F043F94100B94208D858
:1032B000002806DD002C03DA0120C005E8400419CF
:1032C000B4432046F8BD0000CAF24971000080BF37
:1032D000FFFF7F0070B50546080DC04316460C463B
:1032E00040052CD000221346284600F057F826D07F
:1032F000324628462146FDF7BBFB0546080DC04374
:103300000C46400510D000221346284600F046F82F
:1033100015D10220FDF7A6FBFFF764FE490049081E
:10332000E20FD207114370BD0220FDF79BFBFFF7B0
:103330004FFE49004908E20FD207114370BD2846ED
:10334000214670BDC20DD2431206120E24D0420097
:1033500022D010B5FDF7BCFB0446C00DC0430006EB
:10336000000E03D060000CD0204610BD0220FDF7F7
:1033700079FBFFF741FE40004008E10FC907084311
:1033800010BD0220FDF76EFBFFF73DFE4000400838
:10339000E10FC907084310BD7047000070B5012553
:1033A0002D050C001C4310D4EC4206D4AC420AD4C8
:1033B000994200D070BD904270BDE94217D4EB42F3
:1033C00015D4994270BD894270BDEC4206D5AC421D
:1033D000F9D58B4200D070BD824270BD6D004C00AB
:1033E000EC4204D25C00EC4201D28B4270BD034C33
:1033F00030B4FDF793FB30BC70BD00BF1900120460
:1034000070B501252D050C001C4310D4EC4206D4E8
:10341000AC420AD4994200D070BD904270BDE942DE
:1034200017D4EB4215D4994270BD894270BDEC426D
:1034300006D5AC42F9D58B4200D070BD824270BD3A
:103440006D004C00EC4204D25C00EC4201D28B4295
:1034500070BD034C30B4FDF761FB30BC70BD00BFE4
:103460001900130470B501252D050C001C4310D460
:10347000EC4206D4AC420AD4994200D070BD9042CE
:1034800070BDE94217D4EB4215D4994270BD894210
:1034900070BDEC4206D5AC42F9D58B4200D070BD70
:1034A000824270BD6D004C00EC4204D25C00EC42E4
:1034B00001D28B4270BD034C30B4FDF72FFB30BC02
:1034C00070BD00BF1900160470B501252D051C0044
:1034D0000C4310D4EC4206D4AC420AD48B4200D048
:1034E00070BD824270BDEB4217D4E94215D48B42C5
:1034F00070BD9B4270BDEC4206D5AC42F9D59942F5
:1035000000D070BD904270BD6D005C00EC4204D2F2
:103510004C00EC4201D2994270BD0FB40CBC03BC0C
:10352000024C30B4FDF7FAFA30BC70BD1900160435
:1035300070B50125ED0704004C4020D4441A01D297
:10354000001B0919C60D4B00F2B2FF2A29D01B0E31
:103550002CD000020C0228432C43D31ADC4005195E
:1035600010D2280A02D3401C6D0611D0761EF60533
:103570008019FF2A00DA70BDC00DC00570BD69401A
:1035800000F0CEF801200543C541521C761CE8E747
:1035900064089C40C90161408900E7D10124A0432F
:1035A000E4E71B0E440200D0034870BD002AFCD1A2
:1035B000C00FC00770BD00BF0000C07F0123DB0546
:1035C00002000A430DD4DA4203D49A4207D4884257
:1035D0007047D84214D4D94212D4884270478042EE
:1035E0007047DA4203D59A42F9D5814270475B00B1
:1035F0004200DA4204D24A00DA4201D281427047E4
:1036000010B5024AFDF7DAFA10BD00BF0900130435
:103610000123DB0502000A430DD4DA4203D49A42A7
:1036200007D488427047D84214D4D94212D4884271
:10363000704780427047DA4203D59A42F9D58142F9
:1036400070475B004200DA4204D24A00DA4201D2FB
:103650008142704710B5024AFDF7B0FA10BD00BFB5
:103660000900160470B5420064414B005C41120E23
:1036700039D01B0E38D0FF2A3CD0FF2B3AD0D218BD
:103680007F3A40024902400A490A4518ED01060006
:103690004E43000A090A48430104731A4019190CE1
:1036A0004318990F04D05B08012149075B1A521C8B
:1036B000D80904D3401CF50301D19D0607D0FF2A89
:1036C00008D2D50506D0E4072043401970BD012576
:1036D000A843F4E7002A01DCE00770BD2402FF20C4
:1036E0002043C00570BD1B0EFF2A03D0FF2B01D065
:1036F000E00770BDFF2636064500B54206D84D00EE
:10370000B54203D8D218FF2A00D0E7E7004870BDC1
:103710000000C07F70B50125ED0704004C4022D4A5
:10372000441A02D26C40001B0919C60D4B00F2B2BC
:10373000FF2A4BD01B0E50D000020C02A8432C4392
:10374000D31ADC40051B05D5AD0019D36D08761ED4
:10375000521E37D0F605280A01D2801970BD70417B
:103760006D0603D070BD6940FFF7E8FE9C4009027A
:103770006140490001D0401E70BD0124A04370BDCE
:103780006D081DD001202B0C01D12D0410302B0E03
:1037900001D12D0208302B0F01D12D01001DAB0FDF
:1037A00001D1AD00801CEB0F01D16D00401C361A19
:1037B000121A6D00680AF5054019012A02DB70BD76
:1037C000002070BDC036300AC00770BD1B0E440219
:1037D00001D1FF2B00D1024870BD002AF0D070BD8E
:1037E0000000C07F8182838485868788898B8C8D49
:1037F0008E8F919293959697999A9C9D9FA0A2A344
:10380000A5A7A8AAACAEB0B2B3B5B7B9BCBEC0C28A
:10381000C5C7C9CCCED1D4D7D9DCDFE2E6E9ECF01C
:10382000F3F7FAFE000092012403B7044906DB0710
:103830006C09FE0A8E0C1F0EAF0F3E11CC125A14EB
:10384000E7157317FE18891A121C9A1D211FA7204D
:103850002B22AF233125B1263028AD29292BA32CCB
:103860001C2E922F07317A32EB335A35C636313857
:103870009A39003B643CC63D253F8240DC413443DD
:103880008A44DC452C477948C4490B4B504C914D38
:10389000D04E0C5044517A52AC53DB5407562F573C
:1038A00054587659945AAE5BC65CD95DE95EF55FB3
:1038B000FE60026203630164FA64EF65E166CE674D
:1038C000B8689D697F6A5C6B356C0A6DDB6DA76EAD
:1038D0006F6F3370F370AE7165721773C5736E746A
:1038E0001375B4755076E7767A77087891781679FB
:1038F0009679127A887AFA7A687BD07B347C937CCA
:10390000ED7C427D927DDE7D257E677EA37EDC7E22
:103910000F7F3D7F667F8B7FAA7FC57FDA7FEB7F3E
:10392000F77FFE7FFF7FFC7FF47FE77FD57FBF7F40
:10393000A37F827F5C7F327F027FCE7E957E577E23
:10394000137ECC7D7F7D2D7DD77C7B7C1B7CB67BE5
:103950004D7BDE7A6B7AF3797779F5786F78E57756
:103960005577C27629768C75EA7444749A73EB7233
:1039700037727F71C37002703E6F746EA76DD56C25
:10398000FF6B256B476A64697E689367A566B265BD
:10399000BC64C263C462C261BC60B25FA55E945D78
:1039A000805C685B4D5A2E590B58E556BC558F54B8
:1039B00060532D52F650BD4F814E414DFF4BBA4AD8
:1039C00071492648D84688453544DF4286412B4018
:1039D000CE3E6E3D0B3CA73A4039D7376B36FE34AE
:1039E0008F331D32AA30352FBE2D452CCA2A4E29C1
:1039F000D0275126D0244E23CA214620BF1E381D71
:103A0000B01B261A9C1810178415F7136912DA10C8
:103A10004B0FBB0D2A0C990A08097607E4055204DE
:103A2000C0022D019CFF09FE77FCE5FA53F9C1F7AE
:103A30002FF69EF40DF37DF1EEEF5FEED0EC43EB4D
:103A4000B6E92AE89FE615E58CE304E27DE0F8DEBE
:103A500074DDF1DB6FDAEFD871D7F4D578D4FFD20B
:103A600087D111D09CCE2ACDB9CB4BCADFC875C740
:103A70000DC6A7C443C3E2C183C027BFCDBD76BC7A
:103A800022BBD0B980B834B7EAB5A3B460B31FB2D3
:103A9000E1B0A6AF6EAE39AD08ACDAAAAFA987A87F
:103AA00063A743A625A50BA4F5A2E3A1D4A0C89FB4
:103AB000C19EBD9DBD9CC19BC89AD499E398F797C0
:103AC0000E972A964A956E949593C292F2912791F9
:103AD0005F909D8FDE8E248E6E8DBD8C108C688BDA
:103AE000C48A258A8A89F4886288D5874D87C986E1
:103AF0004B86D0855B85EA847E841784B4835683A5
:103B0000FD82A9825A821082CA818A814E811781E0
:103B1000E580B88090806D804F8035802180128054
:103B200007800180018005800E801D8030804880E4
:103B300065808780AE80DA800A8140817A81BA818F
:103B4000FE8147829582E88240839C83FD83648462
:103B5000CE843E85B2852B86A9862C87B3873F8885
:103B6000CF886489FE899C8A3F8BE68B928C428D3C
:103B7000F68DAF8E6D8F2E90F490BF918D926093E5
:103B800037941295F295D596BC97A89897998B9AE9
:103B9000829B7D9C7D9D7F9E869F90A09FA1B0A2D1
:103BA000C6A3DEA4FBA51BA73EA865A98FAABCAB34
:103BB000EDAC21AE58AF92B0CFB10FB352B498B5BF
:103BC000E1B62DB87CB9CDBA21BC77BDD0BE2CC032
:103BD0008AC1EBC24EC4B3C51AC784C8F0C95ECB54
:103BE000CECC3FCEB3CF29D1A0D21AD495D511D700
:103BF0008FD80FDA90DB13DD97DE1CE0A2E12AE319
:103C0000B3E43CE6C7E753E9DFEA6DECFBED8AEF8E
:103C100019F1A9F23AF4CBF55CF7EEF880FA12FC50
:103C2000A5FD37FF1000000020000000400000004C
:103C300080000000583C0000000000200800000048
:103C40001C010000603C00000800002088110000FA
:103C50003C010000000000003000000000D8B80562
:04000005000000C136
:00000001FF
